:100000000C94BC000C94E4000C94E4000C94E40008
:100010000C94E4000C94E4000C94E4000C94E400D0
:100020000C94E4000C941F0C0C94DA080C9449090D
:100030000C94E4000C94E4000C94E4000C94E400B0
:100040000C94E4000C94E4000C94E4000C94E400A0
:100050000C94E4000C94E4000C94E4000C947B0BEE
:100060000C94E4000C94E4000C94E4000C94E40080
:100070000C94E4000C94E4000C94E4000C94E40070
:100080000C94E4000C94E4000C94E4000C94E40060
:100090000C94E4000C94E4000C94E4000C94E40050
:1000A0000C94E4000C94C50B0C94E400080B0002C3
:1000B0000202000009040000010202000005240001
:1000C0001001052401010104240206052406000193
:1000D0000705810310004009040100020A00000026
:1000E00007050202400000070583024000000403E8
:1000F000090412010002EF020140501D5E60000180
:1001000001020301426C696E6B696E6C616273007F
:10011000426C696E6B7954617065000000000025C7
:100120000028002B002E00310000000000240027D2
:10013000002A002D00300004040404040304050216
:100140000202020403020202020606060606060472
:10015000040202020404040802011040804010203E
:10016000408040800802040180402010020110807D
:10017000102040402000620C11241FBECFEFDAE0B7
:10018000DEBFCDBF11E0A0E0B1E0E2E4FFE102C0DC
:1001900005900D92A834B107D9F728E0A8E4B1E0A2
:1001A00001C01D92A731B207E1F710E0CCEBD0E01F
:1001B00004C02197FE010E94850FCB3BD107C9F7F0
:1001C0000E949C0C0C949F0F0C940000CF93DF9323
:1001D000EC014D855E8588819981489F9001499FFA
:1001E000300D589F300D1124C901880F991F280F19
:1001F000391F8B859C85820F931F988B8F87DB011E
:1002000090E080E070E060E0288139816217730738
:10021000E0F42F853889FC013296E20FF31F4491F8
:10022000FC013196E20FF31F5491280F391FF90199
:1002300024912C9311965C93119712964C931297DC
:100240006F5F7F4F03961396DFCFDF91CF910895B5
:10025000FC0180919807882311F13FB7F89482E060
:100260008093E9002091F200822F90E01816190681
:1002700014F481E090E0882339F0289844E6409314
:1002800097074091F1004083222339F02091F2003A
:10029000211103C02BE62093E8003FBF08958FEFA4
:1002A0009FEF08952FB7F89483E08093E900909131
:1002B000E800892F807295FF04C09091F20080E4DD
:1002C000891B2FBF089580918F0781110DC082E097
:1002D00080938B0784E080938C0710928E07109296
:1002E0008D0781E080938F078BE897E0089580E980
:1002F00091E0089540915B0150915C01209159017A
:1003000030915A0142175307B4F49091E800957068
:10031000E1F39091E80092FD19C08093F100809183
:100320005B0190915C0101968F739927892B19F4D9
:100330008EEF8093E80080915B0190915C010196C3
:1003400090935C0180935B0181E0089580E00895C3
:10035000EF92FF920F931F93CF93DF93F82E192FF5
:10036000E62E042F81E0860F880F0E947A0183E039
:100370000E947A01CF2DD12FEC0EFD2EF11CCE154F
:10038000DF05B9F007FF13C0FE0184910E947A01D6
:10039000182F80E00E947A01812321968111EFCFEE
:1003A000DF91CF911F910F91FF90EF900895888179
:1003B000EDCF81E0F5CFDF92EF92FF920F931F9385
:1003C000CF93DF93D82E8A01EB017B01E40EF51E5B
:1003D000CE15DF0559F0D7FE12C0FE0184910E94B0
:1003E0007A0121968111F4CF0FEF1FEFC801DF9141
:1003F000CF911F910F91FF90EF90DF90089588812A
:10040000EECF0F931F93CF93DF931F92CDB7DEB73D
:1004100082E0898342E450E06CEA70E080E80E9468
:10042000DB010E946301DC0112960D911C91011504
:10043000110589F0D801ED91FC910280F381E02D46
:10044000BE016F5F7F4FC801099597FD04C0F80199
:1004500000851185ECCF89810F90DF91CF911F919D
:100460000F910895615030F02091F100FC0120833C
:100470000196F8CF289884E6809397070895CF9344
:10048000DF931F92CDB7DEB76983DC01ED91FC915C
:100490000280F381E02D41E050E0BE016F5F7F4FAD
:1004A00009950F90DF91CF91089583E08093E90043
:1004B0008091F200882319F08AE38093E800089580
:1004C0000E94520190E00895CF93DF931F92CDB721
:1004D000DEB7FC018485958597FD08C02FEF3FEFBF
:1004E000358724870F90DF91CF910895CE01019633
:1004F0000E942801019719F4898190E0F3CF8FEFD2
:100500009FEFF0CF0F931F93CF93DF931F92CDB741
:10051000DEB78C01FC018485958597FF0BC0CE0169
:1005200001960E942801019771F4898190E0F801F9
:1005300095878487F801848595850F90DF91CF9109
:100540001F910F9108958FEF9FEFF1CFFC018485EC
:10055000958597FD0BC09FB7F89482E08093E900E2
:100560008091F2009FBF90E0019608959FB7F894A4
:1005700082E08093E9008091F2009FBF90E00895AF
:100580003FB7F8948091550190915601A091570181
:10059000B091580126B5A89B05C02F3F19F00196D0
:1005A000A11DB11D3FBFBA2FA92F982F8827BC01CD
:1005B000CD01620F711D811D911D42E0660F771FF5
:1005C000881F991F4A95D1F708958F929F92AF92F5
:1005D000BF92CF92DF92EF92FF926B017C010E945B
:1005E000C0024B015C01C114D104E104F104B9F073
:1005F0000E94C002681979098A099B09683E734004
:100600008105910580F321E0C21AD108E108F108C3
:1006100088EE880E83E0981EA11CB11CE4CFFF90E9
:10062000EF90DF90CF90BF90AF909F908F90089504
:100630008F929F92AF92BF92CF92DF92EF92FF92F2
:100640000F931F93CF93DF936C017B018A018091FD
:100650000B01882309F45CC080919807882309F472
:1006600057C080915F0180FF05C08091E0008260EB
:100670008093E000E801B12C8AEFA82E93E0892E48
:100680002AE3922E209711F4BB20D9F10E94520147
:1006900081110AC0AA94AA20D9F161E070E080E03B
:1006A00090E00E94E502EECF8C171D0611F00CF0D1
:1006B0008C2F9FB7F8948092E9002091E80025FDE7
:1006C00002C09FBFDFCF282F30E0C21BD30BF70142
:1006D000815020F041914093F100FACFE20EF31ED9
:1006E000BB2021F09092E800B12CEBCF8091E80084
:1006F00085FDE7CF9092E800BB24B394209709F3DF
:10070000F3CF5D9884E680935E01101611063CF0ED
:1007100081E090E0F6019383828310E000E0C8015D
:10072000DF91CF911F910F91FF90EF90DF90CF90CD
:10073000BF90AF909F908F9008952FB7F8946091DD
:1007400051017091520180915301909154012FBF3A
:1007500008954F925F926F927F929F92AF92BF9255
:10076000CF92DF92EF92FF920F931F93CF93DF937D
:1007700000D01F92CDB7DEB7D82E8091F8079091A8
:10078000F907A091FA07B091FB07892B8A2B8B2BD5
:10079000D9F00E94C0020091A1071091A2072091F8
:1007A000A3073091A407601B710B820B930B009180
:1007B000F8071091F9072091FA073091FB076017AD
:1007C000710782079307C8F20E94C0026093A107D5
:1007D0007093A2078093A3079093A407E091000869
:1007E000F0910108309759F04091FC075091FD07B6
:1007F0006091FE077091FF078D2D0995D82EE0902E
:100800009F07F090A0074D2C512C712C612CE11406
:10081000F10409F459C0D7011C96CC901C97809123
:10082000F6079091F7078436910510F41C961C92F8
:10083000D701ED91FC91A280B38019821A821B82AC
:10084000DD2079F1F701369610E000E021912223B6
:1008500019F19280992001F130E050E040E02F5FE3
:100860003F4F4F4F5F4FC301B2010E940D0F9B01DD
:10087000AC01892D90E0B0E0A0E0BC01CD016F5F3C
:100880007F4F8F4F9F4F0E940D0FA1E0B0E0AC0F44
:10089000BD1FA00FB11F8C930F5F1F4F03301105B9
:1008A000A9F609811A812B81F70145855685628158
:1008B0007381C701F5010995D7011C96CC921C974D
:1008C0001496ED90FC90A3CF80919D0790919E0788
:1008D0008C010F5F1F4F10939E0700939D07499750
:1008E000B4F10E949D03C0909907D0909A07E090C0
:1008F0009B07F0909C079B01AC012C193D094E0908
:100900005F0921F421E030E040E050E088EE93E020
:10091000089FB001099F700D189F700D1124072EBC
:10092000000C880B990B0E94510F3093F70720930E
:10093000F60710929E0710929D070E949D036093F8
:10094000990770939A0780939B0790939C070F9049
:100950000F900F90DF91CF911F910F91FF90EF902B
:10096000DF90CF90BF90AF909F907F906F905F90FF
:100970004F9008951F93CF93DF93EC018D859E8553
:10098000892B21F48B859C85988B8F8790E080E064
:10099000288139818217930708F03AC02F8538895A
:1009A000F9015491319644912E5F3F4FF901249102
:1009B000142F187F30E0F90133E0F595E7953A956B
:1009C000E1F73E2F3C71A0E24A9FF0011124E32B96
:1009D000220F220F220FDC01AA0FBB1FA80FB91F85
:1009E000A60FB71F30E0351751F01C931196EC930A
:1009F000119712962C9312973F5F1396F4CF830FA3
:100A0000911D2F8538892D5F3F4F388B2F87C0CFA1
:100A1000DF91CF911F9108950F931F93CF93DF9391
:100A200020914F012F5F322F377030934F0120FFFD
:100A30002BC020E831FD2064347009F02062205F73
:100A4000FC01EC01239600E011E06485662329F0A7
:100A500070E0C8010E943D0F6F5F6187322F369FA3
:100A6000030E30E0311D1124311110C016826623AF
:100A700011F0615061873196EC17FD0731F7DF9176
:100A8000CF911F910F91089520E0D4CF315036833C
:100A9000EECF4F925F926F927F928F92AF92BF9202
:100AA000CF92DF92EF920F931F93CF93DF933C018E
:100AB000EB010E94C002F30127853089621B730B92
:100AC0006A307105B0F3F894E881F98178B1706803
:100AD00068B16F7768B9CA848F812C2D281B822F4B
:100AE0002F83BF844A805B801D850C85DE841F5F59
:100AF0000F5FD3949E813885A984EB844181D20114
:100B000020E0C32F522F322F318144278894311196
:100B1000380F08F43FEF8195889410FD430F4795F7
:100B2000889411FD430F4795889412FD430F479514
:100B3000889413FD430F4795889414FD430F479500
:100B4000889415FD430F4795889416FD430F4795EC
:100B5000889417FD430F47958894232F1111242F54
:100B60008C0D422F002C78B900C000C047FF68B937
:100B700030812227889400C0002C68B93111390FC8
:100B800000C0002C78B900C000C046FF68B908F466
:100B90003FEF9195889400C0002C68B900FD230FA9
:100BA00000C0002C78B900C000C045FF68B9279587
:100BB000889401FD230F00C0002C68B92795889404
:100BC00000C0002C78B900C000C044FF68B902FD25
:100BD000230F2795889400C0002C68B903FD230FCC
:100BE00000C0002C78B900C000C043FF68B9279549
:100BF000889404FD230F00C0002C68B927958894C1
:100C000000C0002C78B900C000C042FF68B905FDE3
:100C1000230F2795889400C0002C68B906FD230F88
:100C200000C0002C78B900C000C041FF68B927950A
:100C3000889407FD230F00C0002C68B9279588947D
:100C400000C0002C78B900C000C040FF68B9432F35
:100C50000111422F9A0D00C0002C68B900C000C0DD
:100C6000002C78B900C000C047FF68B93281222744
:100C7000889400C0002C68B931113C0F00C0002CD2
:100C800078B900C000C046FF68B908F43FEFEB0D2B
:100C9000F11D00C0002C68B9D0FC230F00C0002C4F
:100CA00078B900C000C045FF68B927958894D1FC89
:100CB000230F00C0002C68B92795889400C0002C31
:100CC00078B900C000C044FF68B9D2FC230F279553
:100CD000889400C0002C68B9D3FC230F00C0002CFE
:100CE00078B900C000C043FF68B927958894D4FC48
:100CF000230F00C0002C68B92795889400C0002CF1
:100D000078B900C000C042FF68B9D5FC230F279511
:100D1000889400C0002C68B9D6FC230F00C0002CBA
:100D200078B900C000C041FF68B927958894D7FC06
:100D3000230F00C0002C68B92795889400C0002CB0
:100D400078B900C000C040FF68B9432FD110422FCE
:100D5000C19500C0002C68B9CE0D00C000C078B9A4
:100D600000C000C047FF68B931812227889400C0C5
:100D7000002C68B93111380F00C0002C78B900C0C0
:100D800000C046FF68B908F43FEF8195889400C021
:100D9000002C68B910FD230F00C0002C78B900C0EA
:100DA00000C045FF68B92795889411FD230F00C046
:100DB000002C68B92795889400C0002C78B900C031
:100DC00000C044FF68B912FD230F2795889400C026
:100DD000002C68B913FD230F00C0002C78B900C0A7
:100DE00000C043FF68B92795889414FD230F00C005
:100DF000002C68B92795889400C0002C78B900C0F1
:100E000000C042FF68B915FD230F2795889400C0E4
:100E1000002C68B916FD230F00C0002C78B900C063
:100E200000C041FF68B92795889417FD230F00C0C3
:100E3000002C68B92795889400C0002C78B900C0B0
:100E400000C040FF68B9432F1111422F8C0D00C024
:100E5000002C68B9119709F086CE20EE31E0D2015E
:100E60000E94730FDC01CB01F4E0B695A79597952E
:100E70008795FA95D1F730E020E0B901EAE94E9E76
:100E8000040C611D5E9E600D711D1124650D711DA8
:100E9000860F971FA11DB11D893E43E09407A10550
:100EA000B10508F434C0885E9340A109B10942E05D
:100EB000B695A795979587954A95D1F747E0849F72
:100EC000080E211D949F200D311D1124290F311D65
:100ED00060914E0170E0860F971F820F931F409123
:100EE0005101509152016091530170915401292F89
:100EF0003327420F531F611D711D409351015093C1
:100F00005201609353017093540180934E01789481
:100F10000E94C002F301708B6787DF91CF911F9110
:100F20000F91EF90DF90CF90BF90AF908F907F9018
:100F30006F905F904F9008953F9A0895EF92FF92BF
:100F40000F931F93CF93DF93CDB7DEB762970FB6A2
:100F5000F894DEBF0FBECDBF7C01DC011C968C91E6
:100F60007A8369835C834B835E834D830D871E8701
:100F70002F87813001F5CE0101960E940C0583E098
:100F8000888B1A8A198AD701ED91FC910484F58522
:100F9000E02DBE016F5F7F4FC701099562960FB6C6
:100FA000F894DEBF0FBECDBFDF91CF911F910F919F
:100FB000FF90EF9008951C861B861A861986188666
:100FC0001F82DDCFEF92FF920F931F93CF93DF939A
:100FD000CDB7DEB762970FB6F894DEBF0FBECDBFB8
:100FE0007C01DC011C968C917A8369835C834B8342
:100FF0005E834D830D871E872F878130F9F4CE01E4
:1010000001960E940C05188A1A8A198AD701ED9157
:10101000FC910484F585E02DBE016F5F7F4FC70111
:10102000099562960FB6F894DEBF0FBECDBFDF9173
:10103000CF911F910F91FF90EF9008951C861B8612
:101040001A86198618861F82DECF90E080E0089508
:10105000FC018585968508950F931F93CF93DF93A9
:1010600000D01F92CDB7DEB7AB0119821A821B8266
:10107000DC01ED91FC910190F081E02D00E010E0A9
:1010800020E0BE016F5F7F4F09950F900F900F908A
:10109000DF91CF911F910F9108950E949A0F682FB1
:1010A000677060937C0181E090E00E94EF0EE09118
:1010B0007C01F0E0E358FE4F80818093F5070895AE
:1010C000AF92BF92CF92DF92EF92FF921F93CF9396
:1010D000DF93282F609187010E941D0F90938A0152
:1010E000622F90E080E00E94EF0EC0918A0189E0BB
:1010F000C89FE0011124C55FDE4FCE010E94E10EC2
:10110000182FCE0101960E94E90E6C01CE010396C4
:101110000E94E90E5C01CE0105960E94E90E7C0159
:10112000CE0107960E94E90E20918501309186013B
:10113000B0920508A0920408D0920E08C0920D0843
:10114000412F50E050930C0840930B083093030854
:1011500020930208F0920708E0920608909309088D
:1011600080930808892BA9F081E080930A08112355
:1011700099F01130E1F01092100810920F08DF91F1
:10118000CF911F91FF90EF90DF90CF90BF90AF90E5
:10119000089510920A08EBCF86EE90E09093140821
:1011A000809313081092160810921508E4CF8AEB6A
:1011B00094E0F4CF1F920F920FB60F9211248F93E9
:1011C0009F938091E1009091E100937F9093E100E3
:1011D00083FF0FC01092E90091E09093EB00109212
:1011E000EC0092E39093ED001092980798E09093B2
:1011F000F00082FF22C093E09093E9009091F2000A
:10120000992319F09AE39093E80090915E01992355
:1012100041F090915E01915090935E01911101C057
:101220005D9A90919707992341F09091970791507B
:1012300090939707911101C0289A84FF18C080915C
:10124000E2008E7E81608093E2008091E1008F7EDB
:101250008093E10080915F018E7E806180935F01C9
:101260009F918F910F900FBE0F901F90189580FF48
:10127000F7CF8091E2008E7E80618093E2008091C2
:10128000E1008E7E8093E10080915F018E7E81601F
:10129000E5CF1F920F920FB60F921124CF92DF92DB
:1012A000EF92FF920F931F932F933F934F935F9370
:1012B0006F937F938F939F93AF93BF93EF93FF931E
:1012C000CF93DF93CDB7DEB76C97DEBFCDBF109263
:1012D000E9008091E80083FF25C068E0CE014596D3
:1012E0000E94320282EF8093E8008D8987FF39C027
:1012F0009091E80090FFFCCF982F907609F034C1D0
:101300009E894F89588D2F89F88C911131C0803872
:1013100061F5809160018093F1001092F1008EEFF1
:101320008093E8006C960FB6F894DEBF0FBECDBF79
:10133000DF91CF91FF91EF91BF91AF919F918F91ED
:101340007F916F915F914F913F912F911F910F91DD
:10135000FF90EF90DF90CF900F900FBE0F901F90F7
:1013600018959EEF9093E800C7CF1092F100D5CF6B
:10137000913059F48111D3CF4130510581F68091DC
:1013800060018D7F80936001CACF933049F4811151
:10139000C6CF4130510519F6809160018260F2CFCD
:1013A000953041F48091E80080FFFCCF20682093C5
:1013B000E300B5CF963009F0A9C00B8D1C8D22E05B
:1013C0001092E90010925C0110925B01F2122EC0A3
:1013D00010925A01109259010E9401021F8299E055
:1013E0009983FA8291E09E8390EA98879AEF998791
:1013F00020915B0130915C01275F3F4F3C832B8341
:101400008D831092E90010925C0110925B011093A1
:101410005A010093590149E050E0BE016F5F7F4FD0
:1014200080E00E94DB010E94010279CF10935A01F3
:10143000009359010E946301DC0112960D911C91E9
:101440000115110509F451C1D801ED91FC910480F9
:10145000F581E02DBE016B5E7F4FC80109950097B5
:1014600009F03EC1F80100851185EACFF3E0FF12D3
:101470000EC08F89882309F440C0823061F440E8AF
:101480006AE080E191E00E94A801811148CF81E2E9
:101490008093EB0047CF813029F440E86BE084E093
:1014A00091E0F1CF833099F70E946301DC0112963D
:1014B000ED90FC908E010F5F1F4F6801E114F10465
:1014C00079F0D701ED91FC910680F781E02DB8010C
:1014D000C7010995080F111DF701E084F184EECFD3
:1014E000D8011C92F60101900020E9F73197BF0165
:1014F0006C197D0940E0C601C6CF6EEE70E0FB01BD
:10150000449150E080E80E94DB0109CF973009F454
:10151000BECF983021F481E08093F10000CF993064
:1015200009F0FDCE837009F0B2CFEDE0F1E081E08B
:1015300031E096E32191222371F08093E90030930A
:10154000EB00DF0111972C912093EC009093ED00BC
:101550008F5F873079F78EE78093EA001092EA0078
:101560008F8980939807DBCE8B8D9C8D1092E9003C
:1015700010925C0110925B0190935A018093590183
:10158000898D811192C08E899D89913A49F4813269
:1015900009F07DCF47E050E064E071E080E0B3CF38
:1015A000913209F074CF833269F48F89988DB0E05D
:1015B000A0E08093000190930101A0930201B093F9
:1015C0000301ADCE803269F48091E80082FFFCCF48
:1015D00067E084E091E00E9432028BEF8093E800A4
:1015E0009ECE823209F09BCE8F8980930B01EEEF65
:1015F000FFE7859194918B3F9C4D51F1E0E0F8E03D
:101600008091040190910501A0910601B09107011C
:10161000803B9440A105B105F1F480910B0180FD60
:101620001AC0EE3F8AE0F80789F587E797E79183CC
:1016300080838091600080935D0188E19BE00FB61C
:10164000F894A895809360000FBE9093600067CED9
:10165000EEEFFAE0D5CF808191818737974709F087
:101660005ECEA89580916000886180936000809133
:101670005D0180936000EE3F2AE0F20789F08091DF
:10168000FE0A9091FF0A9183808349CE80819181E7
:101690008737980751F29093FF0A8093FE0AC5CFCF
:1016A0001092FF0A1092FE0A3ACE0E946301DC01FA
:1016B00012960D911C910115110509F4E8CED8017F
:1016C000ED91FC910190F081E02DBE016B5E7F4FAA
:1016D000C8010995811123CEF80100851185EBCF52
:1016E000181619060CF41BCED2CEF1E0FF12BECEB6
:1016F00062EF70E004CF1F920F920FB60F92112489
:101700002F933F938F939F93AF93BF9380915101FA
:1017100090915201A0915301B09154013091500128
:1017200023E0230F2D3758F50196A11DB11D2093FD
:1017300050018093510190935201A0935301B093B3
:1017400054018091550190915601A0915701B0919B
:1017500058010196A11DB11D80935501909356012A
:10176000A0935701B0935801BF91AF919F918F9172
:101770003F912F910F900FBE0F901F90189526E864
:10178000230F0296A11DB11DD2CF1F920F920FB64B
:101790000F9211240F931F932F933F934F935F93B7
:1017A0006F937F938F939F93AF93BF93EF93FF9329
:1017B00080914D0181110AC081E080934D0180919B
:1017C0007C0180934C018F5F0E944F080E949D0313
:1017D000009148011091490120914A0130914B013B
:1017E000601B710B820B930B693E73408105910561
:1017F0009CF080914C010E944F0880918A018F5F7C
:101800000E9460080E949D03609348017093490103
:1018100080934A0190934B01FF91EF91BF91AF915B
:101820009F918F917F916F915F914F913F912F91F8
:101830001F910F910F900FBE0F901F9018951F9240
:101840000F920FB60F9211242F933F934F935F93F4
:101850006F937F938F939F93AF93BF93EF93FF9378
:101860001E992DC00E949D03609348017093490109
:1018700080934A0190934B0110924D018FE0809329
:10188000C10083E08093C30080E18093D100109277
:10189000BF001092BE0084E080937200FF91EF9130
:1018A000BF91AF919F918F917F916F915F914F9178
:1018B0003F912F910F900FBE0F901F90189510928F
:1018C0007200ECCFE5EAF7E01382128288EE93E033
:1018D000A0E0B0E084839583A683B78389E391E099
:1018E000918380838FEF9FEF95878487E5EFF7E003
:1018F000808312821182148613868FEF9FEFDC01A2
:1019000087839087A187B287E2E0F8E01382128292
:101910001486138612861186118210821582148213
:1019200017821682108686EE90E0928B818B148A45
:10193000138A168615860895CF93DF9300D01F92E1
:10194000CDB7DEB7789484B5826084BD84B58160FC
:1019500084BD85B5826085BD85B5816085BD80917A
:101960006E00816080936E001092810080918100F2
:1019700082608093810080918100816080938100EA
:1019800080918000816080938000809191008260CE
:10199000809391008091910081608093910080916B
:1019A00090008160809390008091C100846080935A
:1019B000C1008091C10082608093C1008091C1000C
:1019C00081608093C1008091C30081608093C300D7
:1019D0008091C00082608093C0008091C2008160CD
:1019E0008093C20080917A00846080937A00809115
:1019F0007A00826080937A0080917A00816080937F
:101A00007A0080917A00806880937A00109298071B
:101A10001092600110925F018091D70081608093E5
:101A2000D70080EA8093D80089B5806189BD89B5E7
:101A3000826089BD09B400FEFDCF61E070E080E006
:101A400090E00E94E5028091D8008F7C80618093B5
:101A5000D8008091E000807F8093E0008091E100D9
:101A60008E7E8093E1008DE08093E200559A209A6B
:101A70008FEF9FEF9093B2078093B107E0E6F1E01C
:101A80002491E1E4F1E084918823C9F090E0880F8B
:101A9000991FFC01E75DFE4F45915491FC01E55E05
:101AA000FE4FA591B4919FB7F894FA013081822F2F
:101AB000809583238083EC912E2B2C939FBFD89A03
:101AC00080916B00806480936B00809168008160DE
:101AD0008093680080E091E00E94E10E809387018E
:101AE00081E091E00E94E90E6C0190938601809361
:101AF00085017DE7A72E71E0B72EE3E0EE2EFF24EF
:101B0000F394C7010E94E10ED5018D935D01BFEFF3
:101B1000EB1AFB0AEBE0EE16E1E0FE0691F7F1E0CE
:101B2000CF16F2E0DF0630F080E092E0909386017D
:101B30008093850190E080E00E94E10EF82E809372
:101B40008A0181E090E00E94E10E80937C018F2D5C
:101B50000E94600880917C010E944F0820918501BD
:101B60003091860180917401811145C01092660107
:101B7000109265018FEF8093690180936A018093D1
:101B80006B0180936C0180936D0180936E0181E005
:101B900080936F0110927101109270011092680190
:101BA0001092670180919F079091A007892B31F4D3
:101BB00083E691E09093A00780939F07E0916101F5
:101BC000F0916201309721F083E691E09583848360
:101BD00083E691E09093620180936101109273011A
:101BE0001092720187E291E0909364018093630107
:101BF00081E0809374013F9A8BE891E090936601B5
:101C00008093650130937101209370018091F807F2
:101C10009091F907A091FA07B091FB07843C29E065
:101C20009207A105B10520F484EC99E0A0E0B0E0B2
:101C30008093F8079093F907A093FA07B093FB07F6
:101C400083E691E090938901809388018091F50764
:101C50000E94A90360E0E62E60E0F62E85EA97E098
:101C60000E94A602181619060CF051C0D12C5BE890
:101C7000E52E51E0F52E20C091E09D0DE1E0F0E071
:101C8000EC0FFD1FED0DF11D80839330A1F40115C4
:101C9000B2E01B0778F48B819A81F801EE0FFF1FE9
:101CA000E00FF11FE557FE4F298120839183828346
:101CB0000F5F1F4F90E0D92E85EA97E00E94A602A1
:101CC00018161906CCF785EA97E00E9464028F3F48
:101CD00099F68091880190918901DC01ED91FC9148
:101CE0000084F185E02D09958017910740F4E0917B
:101CF0008801F0918901F382E2821687058780913D
:101D0000F5070E94A90390E010E000E0D4CF2091F5
:101D1000150830911608C901959587958E5F974FE4
:101D2000E0911308F091140820FF08C0DC012D9108
:101D30003C91E20FF31F0190F081E02D6BE871E020
:101D400009958091F5070E94A90380910F08909151
:101D50001008019660910408709105080E94290FEF
:101D60009093100880930F0820910A08892B69F43A
:101D70002223C1F08091080890910908009729F06A
:101D800001979093090880930808222359F08091C5
:101D9000080890910908892B29F480918A018F5FA6
:101DA0000E946008609106087091070890E080E04A
:101DB0000E94E502E114F10409F450CF0E940000F2
:101DC0004DCFF999FECF92BD81BDF89A992780B584
:101DD0000895A8E1B0E042E050E00C94FF0E262FF9
:101DE000F999FECF1FBA92BD81BD20BD0FB6F89400
:101DF000FA9AF99A0FBE01960895DC01CB01FC0115
:101E0000F999FECF06C0F2BDE1BDF89A319600B453
:101E10000D9241505040B8F70895DB018F939F9386
:101E20000E947A0FBF91AF91A29F800D911DA39F39
:101E3000900DB29F900D11240895991B79E004C074
:101E4000991F961708F0961B881F7A95C9F78095F9
:101E50000895AA1BBB1B51E107C0AA1FBB1FA617F1
:101E6000B70710F0A61BB70B881F991F5A95A9F743
:101E700080959095BC01CD01089597FB072E16F42F
:101E8000009407D077FD09D00E94290F07FC05D0E8
:101E90003EF4909581959F4F0895709561957F4F81
:101EA0000895A1E21A2EAA1BBB1BFD010DC0AA1F9B
:101EB000BB1FEE1FFF1FA217B307E407F50720F0B3
:101EC000A21BB30BE40BF50B661F771F881F991F2E
:101ED0001A9469F760957095809590959B01AC0177
:101EE000BD01CF0108950E948B0FB7FF0895821B9B
:101EF000930B08950E948B0FA59F900DB49F900D9A
:101F0000A49F800D911D11240895EE0FFF1F0590D1
:101F1000F491E02D0994A29FB001B39FC001A39F4B
:101F2000700D811D1124911DB29F700D811D112412
:101F3000911D089581E090E0F8940C949F0FF8941F
:021F4000FFCFD1
:101F4200FFFFFFFF00E100000000000000C18081F0
:101F5200000000000000004D084D084D082C082824
:101F620008250800000000E2079E079C072C0828AD
:101F72000877014905000000003F0218036002557E
:081F820002A6026402820200C3
:00000001FF
