:100000000C94BC000C94E4000C94E4000C94E40008
:100010000C94E4000C94E4000C94E4000C94E400D0
:100020000C94E4000C94F3050C94C4080C94360969
:100030000C94E4000C94E4000C94E4000C94E400B0
:100040000C94E4000C94E4000C94E4000C94E400A0
:100050000C94E4000C94E4000C94E4000C94A505CA
:100060000C94E4000C94E4000C94E4000C94E40080
:100070000C94E4000C94E4000C94E4000C94E40070
:100080000C94E4000C94E4000C94E4000C94E40060
:100090000C94E4000C94E4000C94E4000C94E40050
:1000A0000C94E4000C94B8060C94E400080B0002D5
:1000B0000202010009040000010202000005240000
:1000C0001001052401010104240206052406000193
:1000D0000705810310004009040100020A00000026
:1000E00007050202400000070583024000000403E8
:1000F000090412010002EF020140501D5E60000180
:1001000001020301426C696E6B696E6C616273007F
:10011000426C696E6B7954617065000000000025C7
:100120000028002B002E00310000000000240027D2
:10013000002A002D00300004040404040304050216
:100140000202020403020202020606060606060472
:10015000040202020404040802011040804010203E
:10016000408040800802040180402010020110807D
:10017000102040402000D10C11241FBECFEFDAE048
:10018000DEBFCDBF11E0A0E0B1E0E4E7F0E202C0E5
:1001900005900D92A834B107D9F728E0A8E4B1E0A2
:1001A00001C01D92A931B207E1F710E0CCEBD0E01D
:1001B00004C02197FE010E941E10CB3BD107C9F756
:1001C0000E94080D0C9438100C940000FC018485EA
:1001D000958597FD0BC09FB7F89482E08093E90066
:1001E0008091F2009FBF90E0019608959FB7F89428
:1001F00082E08093E9008091F2009FBF90E0089533
:10020000089580E090E00895EF92FF920F931F937E
:10021000CF93DF93EC018A859B85892B21F4888518
:1002200099859D878C8780E090E0288139818217AD
:10023000930708F03DC02C853D85F9015491319616
:10024000449131962491142F187FE22FE07E3E2FA7
:10025000369536953695A0E24A9FF00111240E2F6F
:10026000032B220F220F220FDC01AA0FBB1FA80FA6
:10027000B91F1296A60FB71F30E0351781F07D0128
:10028000E2E0EE1AF108F70110837D01F1E0EF1AC8
:10029000F108F70100832C933F5F1396EECF830F95
:1002A000911D2C853D852D5F3F4F3D872C87BDCF10
:1002B000DF91CF911F910F91FF90EF900895CF9311
:1002C000DF93EC014A855B8528813981429FC0011B
:1002D000439F900D529F900D11249C01220F331FBC
:1002E000820F931F28853985820F931F9D878C87E6
:1002F000DB01129680E090E060E070E028813981B7
:1003000062177307D8F42C853D85FC013296E20F05
:10031000F31F4491FC013196E20FF31F5491F90150
:10032000E80FF91F2491FD01329720833196508305
:100330004C936F5F7F4F03961396E0CFDF91CF9181
:100340000895EF92FF920F931F93CF93DF93EC01E9
:10035000909154019F5F292F27702093540190FFA3
:1003600002C090E801C090E021FD9064247009F083
:10037000906220E1290FFE013C967E018FE0E80E9D
:10038000F11C00E011E06191662331F070E0C801DA
:100390000E94B70F6F5F01C060E0DF0114976C939C
:1003A000322F369F030E30E0311D1124CF01079705
:1003B000311103C0EC01188203C03150EC013883C5
:1003C000662311F061506C93EE15FF05E1F6DF91A5
:1003D000CF911F910F91FF90EF90089580E991E0E8
:1003E00008953F9A08950F931F93CF93DF93CDB74E
:1003F000DEB762970FB6F894DEBF0FBECDBF8C019B
:10040000F901DC011C968C917A8369835C834B83B0
:100410005E834D8390819D8791819E8792819F8786
:10042000813029F4CE0101960E94A10106C01C86EC
:100430001B861A86198618861F8283E0888B1A8A83
:10044000198AD801ED91FC910484F585E02DBE0157
:100450006F5F7F4FC801099562960FB6F894DEBFB3
:100460000FBECDBFDF91CF911F910F9108950F93D4
:100470001F93CF93DF93CDB7DEB762970FB6F89493
:10048000DEBF0FBECDBF8C01F901DC011C968C9143
:100490007A8369835C834B835E834D8390819D87E0
:1004A00091819E8792819F87813029F4CE010196A8
:1004B0000E94A10106C01C861B861A861986188612
:1004C0001F82188A1A8A198AD801ED91FC91048436
:1004D000F585E02DBE016F5F7F4FC80109956296DB
:1004E0000FB6F894DEBF0FBECDBFDF91CF911F9145
:1004F0000F91089580E090E00895FC018585968530
:100500000895CF93DF9300D000D000D0CDB7DEB7F1
:10051000AB011C821D821E82DC01ED91FC910190D9
:10052000F081E02D19821A821B829E012F5F3F4FBE
:10053000BE016C5F7F4F099526960FB6F894DEBF1B
:100540000FBECDBFDF91CF910895CF93DF931F9260
:10055000CDB7DEB7FC018485958597FD05C02FEFEB
:100560003FEF358724870BC0CE0101960E94820C95
:10057000019719F4898190E002C08FEF9FEF0F90EF
:10058000DF91CF9108950F931F93CF93DF931F9225
:10059000CDB7DEB78C01FC018485958597FF0EC031
:1005A000CE0101960E94820C019719F4298130E056
:1005B00002C02FEF3FEFF80135872487F8018485CB
:1005C00095850F90DF91CF911F910F9108953FB7BF
:1005D000F89480915A0190915B01A0915C01B091D7
:1005E0005D0126B5A89B05C02F3F19F00196A11DFE
:1005F000B11D3FBFBA2FA92F982F8827820F911DB9
:10060000A11DB11DBC01CD0142E0660F771F881FFF
:10061000991F4A95D1F708958F929F92AF92BF92FA
:10062000CF92DF92EF92FF926B017C010E94E70272
:100630004B015C01C114D104E104F104F1F00E940A
:10064000E702DC01CB0188199909AA09BB09883E98
:100650009340A105B10570F321E0C21AD108E10869
:10066000F10888EE880E83E0981EA11CB11CC1140D
:10067000D104E104F10419F7DDCFFF90EF90DF9092
:10068000CF90BF90AF909F908F9008954F925F92C0
:100690006F927F928F92AF92BF92CF92EF92FF9222
:1006A0000F931F93CF93DF933C01EB010E94E7026E
:1006B000F30127853089621B730B6A307105B0F333
:1006C000F894E881F98158B1506888B18F7788B97A
:1006D0006A859F81262F291B922F2F83BF844A80F2
:1006E0005B807D85FC84EE847F5FF394E3943E81A0
:1006F0004885A984CB841181D20120E0C32F022F29
:10070000322F3181112788943111390F08F43FEFCE
:100710009195889470FD130F1795889471FD130FB0
:100720001795889472FD130F1795889473FD130F16
:100730001795889474FD130F1795889475FD130F02
:100740001795889476FD130F1795889477FD130FEE
:1007500017958894232F7111212F960F122F002C9B
:1007600058B900C000C017FF88B93081222788948B
:1007700000C0002C88B931113C0F00C0002C58B9C2
:1007800000C000C016FF88B908F43FEFC1958894F7
:1007900000C0002C88B9F0FC230F00C0002C58B911
:1007A00000C000C015FF88B927958894F1FC230F7D
:1007B00000C0002C88B92795889400C0002C58B937
:1007C00000C000C014FF88B9F2FC230F279588945D
:1007D00000C0002C88B9F3FC230F00C0002C58B9CE
:1007E00000C000C013FF88B927958894F4FC230F3C
:1007F00000C0002C88B92795889400C0002C58B9F7
:1008000000C000C012FF88B9F5FC230F279588941B
:1008100000C0002C88B9F6FC230F00C0002C58B98A
:1008200000C000C011FF88B927958894F7FC230FFA
:1008300000C0002C88B92795889400C0002C58B9B6
:1008400000C000C010FF88B9132FF110122FCA0D7D
:1008500000C0002C88B900C000C0002C58B900C0EE
:1008600000C017FF88B932812227889400C0002C6D
:1008700088B93111340F00C0002C58B900C000C035
:1008800016FF88B908F43FEFEB0DF11D00C0002CF6
:1008900088B9E0FC230F00C0002C58B900C000C08C
:1008A00015FF88B927958894E1FC230F00C0002C20
:1008B00088B92795889400C0002C58B900C000C0A2
:1008C00014FF88B9E2FC230F2795889400C0002C00
:1008D00088B9E3FC230F00C0002C58B900C000C049
:1008E00013FF88B927958894E4FC230F00C0002CDF
:1008F00088B92795889400C0002C58B900C000C062
:1009000012FF88B9E5FC230F2795889400C0002CBE
:1009100088B9E6FC230F00C0002C58B900C000C005
:1009200011FF88B927958894E7FC230F00C0002C9D
:1009300088B92795889400C0002C58B900C000C021
:1009400010FF88B9132FE110122F419500C0002C21
:1009500088B94C0D00C000C058B900C000C017FFD6
:1009600088B931812227889400C0002C88B93111C0
:10097000390F00C0002C58B900C000C016FF88B95C
:1009800008F43FEF9195889400C0002C88B970FD61
:10099000230F00C0002C58B900C000C015FF88B953
:1009A0002795889471FD230F00C0002C88B92795E6
:1009B000889400C0002C58B900C000C014FF88B94A
:1009C00072FD230F2795889400C0002C88B973FD11
:1009D000230F00C0002C58B900C000C013FF88B915
:1009E0002795889474FD230F00C0002C88B92795A3
:1009F000889400C0002C58B900C000C012FF88B90C
:100A000075FD230F2795889400C0002C88B976FDCA
:100A1000230F00C0002C58B900C000C011FF88B9D6
:100A20002795889477FD230F00C0002C88B927955F
:100A3000889400C0002C58B900C000C010FF88B9CD
:100A4000132F7111122F960F00C0002C88B9119727
:100A500009F086CE20EE31E0D2010E940C10DC01BC
:100A6000CB01F4E0B695A79597958795FA95D1F7C0
:100A700020E030E0A9016AE9469E040C411D569E23
:100A8000400D511D1124450D511D840F951FA11DB1
:100A9000B11D893E43E09407A105B10508F434C0B7
:100AA000885E9340A109B10942E0B695A795979554
:100AB00087954A95D1F747E0849F080E211D949FA2
:100AC000200D311D1124290F311D6091530170E05B
:100AD000860F971F820F931F409156015091570127
:100AE0006091580170915901292F3327420F531FEC
:100AF000611D711D40935601509357016093580139
:100B0000709359018093530178940E94E702F30196
:100B1000708B6787DF91CF911F910F91FF90EF90BE
:100B2000CF90BF90AF908F907F906F905F904F90DD
:100B300008952FB7F89460915601709157018091F4
:100B40005801909159012FBF08951F920F920FB62F
:100B50000F9211242F933F938F939F93AF93BF9343
:100B60008091560190915701A0915801B09159017F
:100B70003091550123E0230F2D3720F40196A11D5C
:100B8000B11D05C026E8230F0296A11DB11D2093BB
:100B900055018093560190935701A0935801B0934B
:100BA000590180915A0190915B01A0915C01B09133
:100BB0005D010196A11DB11D80935A0190935B01C7
:100BC000A0935C01B0935D01BF91AF919F918F9114
:100BD0003F912F910F900FBE0F901F9018950C947E
:100BE000790F0C94710F1F920F920FB60F92112470
:100BF0002F933F934F935F936F937F938F939F9325
:100C0000AF93BF93EF93FF9383B186FB992790F93E
:100C100081E08927809348018823E9F00E949905A3
:100C200060934D0170934E0180934F01909350015A
:100C3000109252018FE08093C10083E08093C30043
:100C400080E18093D1001092BF001092BE0084E03A
:100C50008093720002C010927200FF91EF91BF91D9
:100C6000AF919F918F917F916F915F914F913F9144
:100C70002F910F900FBE0F901F901895CF93DF9379
:100C80001F92CDB7DEB7682F67706093660183E06F
:100C900090E069830E94F1056981861721F083E065
:100CA00090E00E94EF05E0916601F0E0E859FE4F08
:100CB0008081809375010F90DF91CF910895CF933C
:100CC000C82F609172010E94970F9093670182E094
:100CD00090E00E94F1058C1729F06C2F82E090E0E3
:100CE0000E94EF058091670127E0829FC0011124D7
:100CF00085579049FC012491319665917491FC01CE
:100D00003396A591B491FC013596859194914091CB
:100D1000700150917101B0938501A093840170938B
:100D20008B0160938A01622F70E070938901609358
:100D300088015093830140938201909387018093AF
:100D40008601222329F0213069F484E091E002C079
:100D50008FE591E09093910180939001109293011F
:100D60001092920110928D0110928C01CF910895F2
:100D70001F920F920FB60F9211240F931F932F9370
:100D80003F934F935F936F937F938F939F93AF9313
:100D9000BF93EF93FF938091520181110AC081E0CC
:100DA0008093520180916601809351018F5F0E9470
:100DB0003E060E94990500914D0110914E0120912F
:100DC0004F0130915001DC01CB01801B910BA20B34
:100DD000B30B8093490190934A01A0934B01B093C8
:100DE0004C01893E9340A105B1059CF080915101D1
:100DF0000E943E06809167018F5F0E945F060E94FD
:100E0000990560934D0170934E0180934F0190932B
:100E10005001FF91EF91BF91AF919F918F917F9181
:100E20006F915F914F913F912F911F910F910F9073
:100E30000FBE0F901F901895409160015091610175
:100E400020915E0130915F0142175307B4F49091F5
:100E5000E8009570E1F39091E80092FD19C080934D
:100E6000F100809160019091610101968F73992743
:100E7000892B19F48EEF8093E800809160019091A6
:100E800061010196909361018093600181E0089572
:100E900080E00895CF92DF92EF92FF920F931F931D
:100EA000CF93DF931F92CDB7DEB7182F062FE42E16
:100EB000862F880F8E5F99830E941C0783E00E9413
:100EC0001C07F12EC12E9981D92E8C2D8F198017D8
:100ED00098F4F601E7FE02C0849101C080810E946F
:100EE0001C07182F80E00E941C078123FFEFCF1AF8
:100EF000DF0A8111EACF01C081E00F90DF91CF912D
:100F00001F910F91FF90EF90DF90CF900895DF92A7
:100F1000EF92FF920F931F93CF93DF93D82E8A0106
:100F20007B01E40EF51EEB01CE15DF0571F0D7FE57
:100F300003C0FE01849101C088810E941C07219694
:100F40008111F2CF8FEF9FEF01C0C801DF91CF91E8
:100F50001F910F91FF90EF90DF900895615030F056
:100F60002091F100FC0120830196F8CF289884E6B7
:100F7000809373010895CF92DF92EF92FF920F93C7
:100F80001F93CF93DF936C017A018B01C0E0D0E017
:100F9000CE15DF0589F0D8016D918D01D601ED9157
:100FA000FC910190F081E02DC6010995892B11F487
:100FB0007E0102C02196ECCFC701DF91CF911F9136
:100FC0000F91FF90EF90DF90CF900895CF93DF9334
:100FD0001F92CDB7DEB76983DC01ED91FC910280F1
:100FE000F381E02D41E050E0BE016F5F7F4F099536
:100FF0000F90DF91CF91089583E08093E900809175
:10100000F200882319F08AE38093E80008950E9493
:1010100033100F931F93CF93DF931F92CDB7DEB79B
:1010200082E0898342E450E06CEA70E080E80E944C
:1010300087070E94BD0CDC0112960D911C9113973D
:101040000115110569F0D801ED91FC910280F38141
:10105000E02DBE016F5F7F4FC801099597FF07C064
:1010600089810F90DF91CF911F910F910895F80121
:1010700000851185E5CF8F929F92AF92BF92CF925C
:10108000DF92EF92FF920F931F93CF93DF935C0158
:101090006B017A0180910B01882309F45BC0809178
:1010A0007401882309F456C08091640180FF05C053
:1010B0008091E00082608093E000E70110E00AEF99
:1010C00083E0882E9AE3992E2097D9F10E94AC0CE8
:1010D00081110AC0015009F43DC061E070E080E078
:1010E00090E00E940C03F0CF282F30E0C217D30706
:1010F0000CF48C2F4FB7F8948092E9009091E8009F
:1011000095FF1DC0282F30E0C21BD30BF601982F8E
:10111000915020F081918093F100FACFC20ED31E3E
:10112000112319F09092E80009C08091E80085FD34
:1011300006C09092E80011E0209709F010E04FBF40
:10114000C3CF1111C3CF5D9884E6809362011E1452
:101150001F0444F081E090E0F5019383828380E0F6
:1011600090E001C0C701DF91CF911F910F91FF90D7
:10117000EF90DF90CF90BF90AF909F908F900895A9
:101180000E94AC0C90E008951F920F920FB60F9240
:1011900011248F939F938091E1009091E100937FC0
:1011A0009093E10083FF0FC01092E90091E09093CB
:1011B000EB001092EC0092E39093ED00109274011A
:1011C00098E09093F00082FF20C093E09093E900B4
:1011D0009091F200992319F09AE39093E80090918E
:1011E0006201992339F090916201915090936201CC
:1011F000992389F190917301992339F090917301AA
:10120000915090937301992341F184FF10C0809114
:10121000E2008E7E81608093E2008091E1008F7E0B
:101220008093E100809164018E7E806111C080FF17
:1012300016C08091E2008E7E80618093E2008091F2
:10124000E1008E7E8093E100809164018E7E81605A
:101250008093640104C05D9ACDCF289AD6CF9F9128
:101260008F910F900FBE0F901F9018951F920F92A5
:101270000FB60F921124CF92DF92EF92FF920F934D
:101280001F932F933F934F935F936F937F938F930E
:101290009F93AF93BF93EF93FF93CF93DF93CDB71C
:1012A000DEB76C97DEBFCDBF1092E9008091E800F9
:1012B00083FFEDC168E0CE0145960E94AE0782EF44
:1012C0008093E8008D8987FF05C09091E80090FF2A
:1012D000FCCF03C09EEF9093E800982F907609F022
:1012E000C6C09E892F89188D91110CC0803829F4B1
:1012F000809165018093F10002C01092F10010927C
:10130000F10048C1422F50E0512B913051F481112E
:1013100041C14130510509F03DC1809165018D7F8A
:101320000BC0933061F4811135C14130510509F092
:1013300031C1809165018260809365012BC1953038
:1013400041F48091E80080FFFCCF20682093E30007
:1013500021C1963009F05FC0EB8CFC8C1092E90043
:101360001092610110926001123091F510925F01AC
:1013700010925E010E94090899E0BE016F5F7F4FE5
:10138000DB01E92F1D92EA95E9F799831A8391E031
:101390009E8390EA98879AEF998720916001309117
:1013A0006101275F3F4F3C832B838D831092E900BF
:1013B0001092610110926001F0925F01E0925E0173
:1013C00049E050E080E00E9487070E940908E2C0DF
:1013D000F0925F01E0925E010E94BD0CDC0112966A
:1013E000ED90FC901397E114F10409F4C0C0D7010B
:1013F000ED91FC910480F581E02DBE016B5E7F4F85
:10140000C7010995009719F00CF0C4C0C7C0F701D7
:10141000E084F184E8CF973009F4C0C0983021F41B
:1014200081E08093F100B6C0993009F0B3C08370B9
:1014300009F0B4C0EDE0F1E081E021E036E3908115
:10144000992361F08093E9002093EB0091919093B0
:10145000EC003093ED008F5F873089F78EE7809343
:10146000EA001092EA008F898093740193C08B8DFB
:101470009C8D1092E900109261011092600190938E
:101480005F0180935E01898D811156C08E899D898F
:10149000913A59F4813209F081C047E050E064E0AC
:1014A00071E080E00E94870775C0913209F076C034
:1014B000833289F4888D90E0982F88272F89822B9A
:1014C000A0E0B0E08093000190930101A09302019D
:1014D000B09303015FC0803269F48091E80082FF1D
:1014E000FCCF67E084E091E00E94AE078BEF809331
:1014F000E80006C0823209F04DC08F8980930B014D
:1015000080916301882319F0EEEFFAE002C0E0E079
:10151000F8E08091040190910501A0910601B0913D
:101520000701803B9440A105B10509F07BC0809183
:101530000B0180FF93C076C00E94BD0CDC011296A7
:101540000D911C9113970115110541F1D801ED91F1
:10155000FC910190F081E02DBE016B5E7F4FC801D0
:101560000995811117C0F80100851185ECCF113064
:1015700009F44EC0133091F48F89882309F445C0D3
:10158000823081F440E86AE080E191E00E944A07FD
:10159000882321F08EEF8093E80079C081E2809368
:1015A000EB0075C0813029F440E86BE084E091E005
:1015B000EDCF833099F70E94BD0CDC011296ED90BF
:1015C000FC9013978E010F5F1F4F6801E114F10427
:1015D00079F0D701ED91FC910680F781E02DB801FB
:1015E000C7010995080F111DF701E084F184EECFC2
:1015F000D8011C92F60101900020E9F73197BF0154
:101600006C197D0940E0C601C1CF6EEE70E002C0EA
:1016100062EF70E06115710509F2FB01449150E041
:1016200080E840CF0FB6F894A8958091600088615B
:1016300080936000109260000FBEA895EE3F2AE0F4
:10164000F20739F08091FE0A9091FF0A918380831E
:10165000A1CF1092FF0A1092FE0A9CCFEE3F8AE0C3
:10166000F80731F0808191819093FF0A8093FE0A00
:1016700087E797E7918380839BE088E10FB6F89432
:10168000A895809360000FBE9093600083CF6C9606
:101690000FB6F894DEBF0FBECDBFDF91CF91FF91A3
:1016A000EF91BF91AF919F918F917F916F915F91DA
:1016B0004F913F912F911F910F91FF90EF90DF90ED
:1016C000CF900F900FBE0F901F9018953F924F92A2
:1016D0005F926F927F928F929F92AF92BF92CF92C2
:1016E000DF92EF92FF920F931F93CF93DF9300D07F
:1016F0001F92CDB7DEB7F82E8091780190917901D5
:10170000A0917A01B0917B01892B8A2B8B2BE9F078
:101710000E94E7020091C5071091C6072091C707F4
:101720003091C807DC01CB01801B910BA20BB30BDE
:10173000009178011091790120917A0130917B011B
:1017400080179107A207B307B8F20E94E7026093DF
:10175000C5077093C6078093C7079093C807E091A9
:101760008001F0918101309759F040917C015091B6
:101770007D0160917E0170917F018F2D0995F82E7A
:101780000091C3071091C4074F2C512C612C712C70
:101790000115110509F461C0D8011C96EC901C9745
:1017A00080917601909177018436910510F41C9612
:1017B0001C92D801ED91FC91A280B38019821A820B
:1017C0001B82F11014C0F801458556856281738132
:1017D0009E012F5F3F4FC801F5010995D8011C9666
:1017E000EC921C9714960D911C911597D1CFF8018E
:1017F0003996CE0101966C0148019CE0890E911C3E
:10180000DF0113973C902191332001F12223F1F065
:10181000822F90E0A0E0B0E09C01AD012F5F3F4F30
:101820004F4F5F4FC301B2010E94870F9B01AC0174
:10183000832D90E0A0E0B0E0BC01CD016F5F7F4F51
:101840008F4F9F4F0E94870FD6018C93BFEFCB1A0B
:10185000DB0AE815F905A1F6B6CF8091C107909192
:10186000C2078C010F5F1F4F1093C2070093C1077F
:1018700049979CF10E9499054B015C0188EE93E029
:10188000089FB001099F700D189F700D1124072E3D
:10189000000C880B990BC090BD07D090BE07E0905C
:1018A000BF07F090C007A50194012C193D094E090E
:1018B0005F090E94CB0F309377012093760110923D
:1018C000C2071092C1070E9499056093BD077093EB
:1018D000BE078093BF079093C0070F900F900F90A3
:1018E000DF91CF911F910F91FF90EF90DF90CF90FC
:1018F000BF90AF909F908F907F906F905F904F9030
:101900003F900895FC0180917401811103C08FEF15
:101910009FEF08959FB7F89482E08093E9002091AB
:10192000F20030E01216130614F421E030E0211525
:10193000310559F0289884E6809373018091F10075
:1019400080838091F200882319F09FBFC901089518
:101950008BE68093E800F9CF2FB7F89483E080936B
:10196000E9009091E800892F807295FF04C0909162
:10197000F20080E4891B2FBF08958091B507811183
:101980000DC082E08093B10784E08093B20710928B
:10199000B4071092B30781E08093B50781EB97E01D
:1019A0000895E9ECF7E01382128288EE93E0A0E05C
:1019B000B0E084839583A683B78389E391E0918324
:1019C00080838FEF9FEF95878487E5E7F1E0808341
:1019D00012821182148613868FEF9FEFDC018783BA
:1019E0009087A187B287E2E8F1E013821282118624
:1019F00010861782168211821082158214828FE55A
:101A000091E097878687118A108A13861286089537
:101A1000CF93DF9300D01F92CDB7DEB7789484B513
:101A2000826084BD84B5816084BD85B5826085BDDA
:101A300085B5816085BD80916E00816080936E0068
:101A4000109281008091810082608093810080915A
:101A5000810081608093810080918000816080930B
:101A6000800080919100826080939100809191002C
:101A700081608093910080919000816080939000BC
:101A80008091C10084608093C1008091C100826018
:101A90008093C1008091C10081608093C1008091DA
:101AA000C30081608093C3008091C00082608093F6
:101AB000C0008091C20081608093C20080917A0052
:101AC000846080937A0080917A00826080937A00AB
:101AD00080917A00816080937A0080917A0080689A
:101AE00080937A0010927401109265011092640143
:101AF0008091D70081608093D70080EA8093D800DE
:101B000089B5806189BD89B5826089BD09B400FE4F
:101B1000FDCF61E070E080E090E00E940C038091D6
:101B2000D8008F7C80618093D8008091E000807F16
:101B30008093E0008091E1008E7E8093E1008DE053
:101B40008093E200559A209AEEEFFFE785919491F9
:101B50008B3F9C4D19F481E0809363018FEF9FEFE1
:101B60009093D6078093D507E0E6F1E02491E1E475
:101B7000F1E084918823C9F090E0880F991FFC015F
:101B8000E75DFE4F45915491FC01E55EFE4FA59146
:101B9000B4919FB7F894FA013081822F8095832306
:101BA0008083EC912E2B2C939FBFD89A80916B0051
:101BB000806480936B0080916800816080936800EE
:101BC000E0E8FFE6E491E0937201E1E8FFE6859149
:101BD00094919093710180937001A8E6B1E0E3E8DD
:101BE000FFE684918D933196EB382FE6F207C9F723
:101BF00080917001909171018130924030F080E0CD
:101C000092E0909371018093700180E090E00E94D7
:101C1000F105823109F050C181E090E00E94F105A8
:101C2000843309F049C182E090E00E94F105F82E6A
:101C30008093670183E090E00E94F1058093660144
:101C40008F2D0E945F06809166010E943E06E09003
:101C50007001F09071018091A701811145C010922F
:101C60009901109298018FEF80939C0180939D01C0
:101C700080939E0180939F018093A0018093A10196
:101C800081E08093A2011092A4011092A30110920E
:101C90009B0110929A018091C3079091C407892BF0
:101CA00031F486E991E09093C4078093C307E091F3
:101CB0009401F0919501309721F086E991E09583A8
:101CC000848386E991E0909395018093940110922A
:101CD000A6011092A50187E291E09093970180936D
:101CE000960181E08093A701E0919601F091970120
:101CF0000480F581E02D86E991E0099581EB91E082
:101D00009093990180939801F092A401E092A3012D
:101D1000E0919601F09197010284F385E02D86E928
:101D200091E00995009711F19C0140E050E060E4DA
:101D300072E48FE090E00E94ED0FC0907801D090A7
:101D40007901E0907A01F0907B01C901DA018C15EC
:101D50009D05AE05BF0510F4D701C601809378013B
:101D600090937901A0937A01B0937B0186E991E089
:101D70009093B0018093AF01809175010E94660B32
:101D800060E0E62E60E0F62E89EC97E00E94E60027
:101D9000181619060CF052C0D12C51EBE52E51E06B
:101DA000F52E89EC97E00E94E60018161906CCF78C
:101DB00089EC97E00E94A5028F3FF9F48091AF0172
:101DC0009091B001DC01ED91FC910084F185E02D52
:101DD00009958017910740F4E091AF01F091B001AF
:101DE000F382E28216870587809175010E94660B57
:101DF00090E000E010E0D92ED4CF91E09D0DE1E01D
:101E0000F0E0EC0FFD1FED0DF11D8083933099F78D
:101E10000115B2E01B0710F090E0EDCF8B819A81A5
:101E2000F801EE0FFF1FE00FF11FEF54FE4F298165
:101E30002083918382830F5F1F4FEECF2091920109
:101E400030919301E0919001F0919101C901959534
:101E5000879520FF0AC0DC01AE57BE4F2D913C9103
:101E6000E20FF31F0190F081E02D61EB71E08E57DE
:101E70009E4F0995809175010E94660B80918C019F
:101E800090918D01019660918401709185010E946D
:101E9000A30F90938D0180938C01609186017091C6
:101EA000870180E090E00E940C03E114F10409F442
:101EB0006BCF0E94000068CF62E180E090E00E945A
:101EC000EF0564E381E090E00E94EF0560E082E0CE
:101ED00090E00E94EF0560E083E090E00E94EF0553
:101EE000A2CEF999FECF92BD81BDF89A992780B50F
:101EF0000895262FF999FECF1FBA92BD81BD20BD4E
:101F00000FB6F894FA9AF99A0FBE01960895DB017C
:101F10008F939F930E941310BF91AF91A29F800D4A
:101F2000911DA39F900DB29F900D11240895991BB0
:101F300079E004C0991F961708F0961B881F7A95C0
:101F4000C9F780950895AA1BBB1B51E107C0AA1FC2
:101F5000BB1FA617B70710F0A61BB70B881F991F4A
:101F60005A95A9F780959095BC01CD01089597FBEE
:101F7000072E16F4009407D077FD09D00E94A30F16
:101F800007FC05D03EF4909581959F4F089570957C
:101F900061957F4F0895A1E21A2EAA1BBB1BFD017C
:101FA0000DC0AA1FBB1FEE1FFF1FA217B307E40738
:101FB000F50720F0A21BB30BE40BF50B661F771F90
:101FC000881F991F1A9469F7609570958095909570
:101FD0009B01AC01BD01CF010895052E97FB1EF4B6
:101FE00000940E94041057FD07D00E94CB0F07FCFD
:101FF00003D04EF40C9404105095409530952195E3
:102000003F4F4F4F5F4F0895909580957095619524
:102010007F4F8F4F9F4F08950E942410B7FF089560
:10202000821B930B08950E942410A59F900DB49FCE
:10203000900DA49F800D911D11240895EE0FFF1F98
:102040000590F491E02D0994A29FB001B39FC001C7
:10205000A39F700D811D1124911DB29F700D811DD4
:102060001124911D089581E090E0F8940C943810AB
:04207000F894FFCF12
:10207400FFFFFFFF00E100000000000000C18081BD
:102084000000000000000007080708070881027D1F
:10209400027A02000000003702F301F10181027D9F
:1020A40002EE01460300000000E6073B08C008FCFE
:0820B40007E600A502C30200CB
:00000001FF
