:100000000C94BC000C94E4000C94E4000C94E40008
:100010000C94E4000C94E4000C94E4000C94E400D0
:100020000C94E4000C94A10C0C945C090C94CB0986
:100030000C94E4000C94E4000C94E4000C94E400B0
:100040000C94E4000C94E4000C94E4000C94E400A0
:100050000C94E4000C94E4000C94E4000C94FD0B6C
:100060000C94E4000C94E4000C94E4000C94E40080
:100070000C94E4000C94E4000C94E4000C94E40070
:100080000C94E4000C94E4000C94E4000C94E40060
:100090000C94E4000C94E4000C94E4000C94E40050
:1000A0000C94E4000C94470C0C94E400080B000240
:1000B0000202000009040000010202000005240001
:1000C0001001052401010104240206052406000193
:1000D0000705810310004009040100020A00000026
:1000E00007050202400000070583024000000403E8
:1000F000090412010002EF020140501D5E60000180
:1001000001020301426C696E6B696E6C616273007F
:10011000426C696E6B7954617065000000000025C7
:100120000028002B002E00310000000000240027D2
:10013000002A002D00300004040404040304050216
:100140000202020403020202020606060606060472
:10015000040202020404040802011040804010203E
:10016000408040800802040180402010020110807D
:10017000102040402000E40C11241FBECFEFDAE035
:10018000DEBFCDBF11E0A0E0B1E0E4E6F0E202C0E6
:1001900005900D92A435B107D9F728E0A4E5B1E0A8
:1001A00001C01D92A932B207E1F710E0CCEBD0E01C
:1001B00004C02197FE010E941610CB3BD107C9F75E
:1001C0000E94220D0C9430100C940000CF93DF930A
:1001D000EC014D855E8588819981489F9001499FFA
:1001E000300D589F300D1124C901880F991F280F19
:1001F000391F8B859C85820F931F988B8F87DB011E
:1002000090E080E070E060E0288139816217730738
:10021000E0F42F853889FC013296E20FF31F4491F8
:10022000FC013196E20FF31F5491280F391FF90199
:1002300024912C9311965C93119712964C931297DC
:100240006F5F7F4F03961396DFCFDF91CF910895B5
:10025000FC018091AA07882311F13FB7F89482E04E
:100260008093E9002091F200822F90E01816190681
:1002700014F481E090E0882339F0289844E6409314
:10028000A9074091F1004083222339F02091F20028
:10029000211103C02BE62093E8003FBF08958FEFA4
:1002A0009FEF08952FB7F89483E08093E900909131
:1002B000E800892F807295FF04C09091F20080E4DD
:1002C000891B2FBF08958091A10781110DC082E085
:1002D00080939D0784E080939E071092A007109260
:1002E0009F0781E08093A1078DE997E0089580E959
:1002F00091E0089540916701509168012091650156
:100300003091660142175307B4F49091E80095705C
:10031000E1F39091E80092FD19C08093F100809183
:1003200067019091680101968F739927892B19F4C1
:100330008EEF8093E80080916701909168010196AB
:10034000909368018093670181E0089580E00895AB
:10035000EF92FF920F931F93CF93DF93F82E192FF5
:10036000E62E042F81E0860F880F0E947A0183E039
:100370000E947A01CF2DD12FEC0EFD2EF11CCE154F
:10038000DF05B9F007FF13C0FE0184910E947A01D6
:10039000182F80E00E947A01812321968111EFCFEE
:1003A000DF91CF911F910F91FF90EF900895888179
:1003B000EDCF81E0F5CFDF92EF92FF920F931F9385
:1003C000CF93DF93D82E8A01EB017B01E40EF51E5B
:1003D000CE15DF0559F0D7FE12C0FE0184910E94B0
:1003E0007A0121968111F4CF0FEF1FEFC801DF9141
:1003F000CF911F910F91FF90EF90DF90089588812A
:10040000EECF0F931F93CF93DF931F92CDB7DEB73D
:1004100082E0898342E450E06CEA70E080E80E9468
:10042000DB010E946301DC0112960D911C91011504
:10043000110589F0D801ED91FC910280F381E02D46
:10044000BE016F5F7F4FC801099597FD04C0F80199
:1004500000851185ECCF89810F90DF91CF911F919D
:100460000F910895615030F02091F100FC0120833C
:100470000196F8CF289884E68093A9070895CF9332
:10048000DF931F92CDB7DEB76983DC01ED91FC915C
:100490000280F381E02D41E050E0BE016F5F7F4FAD
:1004A00009950F90DF91CF91089583E08093E90043
:1004B0008091F200882319F08AE38093E800089580
:1004C0000E94520190E00895CF93DF931F92CDB721
:1004D000DEB7FC018485958597FD08C02FEF3FEFBF
:1004E000358724870F90DF91CF910895CE01019633
:1004F0000E942801019719F4898190E0F3CF8FEFD2
:100500009FEFF0CF0F931F93CF93DF931F92CDB741
:10051000DEB78C01FC018485958597FF0BC0CE0169
:1005200001960E942801019771F4898190E0F801F9
:1005300095878487F801848595850F90DF91CF9109
:100540001F910F9108958FEF9FEFF1CFFC018485EC
:10055000958597FD0BC09FB7F89482E08093E900E2
:100560008091F2009FBF90E0019608959FB7F894A4
:1005700082E08093E9008091F2009FBF90E00895AF
:100580003FB7F8948091610190916201A09163015D
:10059000B091640126B5A89B05C02F3F19F00196C4
:1005A000A11DB11D3FBFBA2FA92F982F8827BC01CD
:1005B000CD01620F711D811D911D42E0660F771FF5
:1005C000881F991F4A95D1F708958F929F92AF92F5
:1005D000BF92CF92DF92EF92FF926B017C010E945B
:1005E000C0024B015C01C114D104E104F104B9F073
:1005F0000E94C002681979098A099B09683E734004
:100600008105910580F321E0C21AD108E108F108C3
:1006100088EE880E83E0981EA11CB11CE4CFFF90E9
:10062000EF90DF90CF90BF90AF909F908F90089504
:100630008F929F92AF92BF92CF92DF92EF92FF92F2
:100640000F931F93CF93DF936C017B018A018091FD
:100650000B01882309F45CC08091AA07882309F460
:1006600057C080916B0180FF05C08091E0008260DF
:100670008093E000E801B12C8AEFA82E93E0892E48
:100680002AE3922E209711F4BB20D9F10E94520147
:1006900081110AC0AA94AA20D9F161E070E080E03B
:1006A00090E00E94E502EECF8C171D0611F00CF0D1
:1006B0008C2F9FB7F8948092E9002091E80025FDE7
:1006C00002C09FBFDFCF282F30E0C21BD30BF70142
:1006D000815020F041914093F100FACFE20EF31ED9
:1006E000BB2021F09092E800B12CEBCF8091E80084
:1006F00085FDE7CF9092E800BB24B394209709F3DF
:10070000F3CF5D9884E680936A01101611063CF0E1
:1007100081E090E0F6019383828310E000E0C8015D
:10072000DF91CF911F910F91FF90EF90DF90CF90CD
:10073000BF90AF909F908F9008952FB7F8946091DD
:100740005D0170915E0180915F01909160012FBF0A
:1007500008952F923F924F925F926F927F928F9265
:100760009F92AF92BF92CF92DF92EF92FF920F9340
:100770001F93CF93DF93CDB7DEB7C558D1090FB61E
:10078000F894DEBF0FBECDBFB82E80910A089091BD
:100790000B08A0910C08B0910D08892B8A2B8B2B8C
:1007A000D9F00E94C0020091B3071091B4072091C4
:1007B000B5073091B607601B710B820B930B00914C
:1007C0000A0810910B0820910C0830910D08601751
:1007D000710782079307C8F20E94C0026093B307B3
:1007E0007093B4078093B5079093B607E091120811
:1007F000F0911308309759F040910E0850910F086E
:1008000060911008709111088B2D0995B82EFE018A
:10081000319680E8DF011D928A95E9F7E090B107F3
:10082000F090B2074F016E01B1E8CB0ED11C1F0151
:100830004B2C512C712C612CE114F10409F476C07D
:100840002C143D0409F472C0D701ED91FC9104848D
:10085000F585E02DC7010995F101819391931F0161
:1008600080910808909109088436910518F4D70101
:100870001C961C92D701ED91FC9182819381CC57FB
:10088000DF4F99838883C458D040D6011C921196BB
:100890001C92119712961C92BB2079F187010A5F76
:1008A0001F4FF0E0E0E0D8012D918D01222309F1E6
:1008B0001296AC90AA20E9F030E050E040E02F5FC3
:1008C0003F4F4F4F5F4FC301B2010E949E0F9B01EC
:1008D000AC018A2D90E0B0E0A0E0BC01CD016F5FDB
:1008E0007F4F8F4F9F4F0E949E0FD601AE0FBF1FAD
:1008F0008C933196E330F105B1F6F6010081118158
:100900002281D7011D964D915C911E9712966D9193
:100910007C91C701CC57DF4FE881F981C458D040A2
:100920000995D7011496ED90FC9086CF0091B10700
:100930001091B2070115110599F08C149D0481F0F6
:10094000F401619171914F01D801ED91FC91068400
:10095000F785E02DC8010995F80104811581EACFDA
:100960008091AF079091B0078C010F5F1F4F1093DC
:10097000B0070093AF074997B4F10E949D03C09060
:10098000AB07D090AC07E090AD07F090AE079B01AD
:10099000AC012C193D094E095F0921F421E030E03A
:1009A00040E050E088EE93E0089FB001099F700D91
:1009B000189F700D1124072E000C880B990B0E94B4
:1009C000E20F30930908209308081092B0071092A4
:1009D000AF070E949D036093AB077093AC078093B1
:1009E000AD079093AE07CB57DF4F0FB6F894DEBF3D
:1009F0000FBECDBFDF91CF911F910F91FF90EF9070
:100A0000DF90CF90BF90AF909F908F907F906F902E
:100A10005F904F903F902F9008951F93CF93DF9357
:100A2000EC018D859E85892B21F48B859C85988B87
:100A30008F8790E080E0288139818217930708F042
:100A40003AC02F853889F9015491319644912E5F2F
:100A50003F4FF9012491142F187F30E0F90133E062
:100A6000F595E7953A95E1F73E2F3C71A0E24A9F54
:100A7000F0011124E32B220F220F220FDC01AA0F19
:100A8000BB1FA80FB91FA60FB71F30E0351751F0D5
:100A90001C931196EC93119712962C9312973F5F2B
:100AA0001396F4CF830F911D2F8538892D5F3F4F0B
:100AB000388B2F87C0CFDF91CF911F9108950F936F
:100AC0001F93CF93DF9320915B012F5F322F3770FD
:100AD00030935B0120FF2BC020E831FD206434708F
:100AE00009F02062205FFC01EC01239600E011E098
:100AF0006485662329F070E0C8010E94CE0F6F5F05
:100B00006187822F869F080E80E0811D112481114C
:100B100010C01682662311F0615061873196EC1780
:100B2000FD0731F7DF91CF911F910F91089520E0DC
:100B3000D4CF81508683EECF4F925F927F928F9277
:100B40009F92AF92BF92CF92DF92EF92FF920F935C
:100B50001F93CF93DF932C01EB010E94C002F2019F
:100B600025893689621B730B6A307105B0F3F894DE
:100B70008A819B81181619060CF0CDC1E881F98194
:100B800068B1862E689487F838B13F7738B9DA842F
:100B90008F812D2D281B822F2F834F85042E000C33
:100BA000550BAA81BB817D85FC84EE847F5FF39425
:100BB000E3949E819884B984AB841181C12C6C2DFF
:100BC0000C2D2C2D2181112788942111280F08F438
:100BD0002FEF8195889470FD120F1795889471FD01
:100BE000120F1795889472FD120F1795889473FD54
:100BF000120F1795889474FD120F1795889475FD40
:100C0000120F1795889476FD120F1795889477FD2B
:100C1000120F17958894622F7111612F8D0D162F69
:100C2000002C88B800C000C017FF38B920816627A3
:100C3000889400C0002C38B92111290F00C0002C65
:100C400088B800C000C016FF38B908F42FEF91959E
:100C5000889400C0002C38B9F0FC620F00C0002C52
:100C600088B800C000C015FF38B967958894F1FCBA
:100C7000620F00C0002C38B96795889400C0002C22
:100C800088B800C000C014FF38B9F2FC620F679545
:100C9000889400C0002C38B9F3FC620F00C0002C0F
:100CA00088B800C000C013FF38B967958894F4FC79
:100CB000620F00C0002C38B96795889400C0002CE2
:100CC00088B800C000C012FF38B9F5FC620F679504
:100CD000889400C0002C38B9F6FC620F00C0002CCC
:100CE00088B800C000C011FF38B967958894F7FC38
:100CF000620F00C0002C38B96795889400C0002CA2
:100D000088B800C000C010FF38B9122FF110162F9C
:100D10009B0D00C0002C38B900C000C0002C88B862
:100D200000C000C017FF38B922816627889400C030
:100D3000002C38B92111290D00C0002C88B800C042
:100D400000C016FF38B908F42FEFE40FF51F00C0FC
:100D5000002C38B9E0FC620F00C0002C88B800C03D
:100D600000C015FF38B967958894E1FC620F00C098
:100D7000002C38B96795889400C0002C88B800C052
:100D800000C014FF38B9E2FC620F6795889400C078
:100D9000002C38B9E3FC620F00C0002C88B800C0FA
:100DA00000C013FF38B967958894E4FC620F00C057
:100DB000002C38B96795889400C0002C88B800C012
:100DC00000C012FF38B9E5FC620F6795889400C037
:100DD000002C38B9E6FC620F00C0002C88B800C0B7
:100DE00000C011FF38B967958894E7FC620F00C016
:100DF000002C38B96795889400C0002C88B800C0D2
:100E000000C010FF38B9122FE110162F919400C0C6
:100E1000002C38B99A0C00C000C088B800C000C0CF
:100E200017FF38B921816627889400C0002C38B993
:100E30002111280F00C0002C88B800C000C016FF88
:100E400038B908F42FEF8195889400C0002C38B988
:100E500070FD620F00C0002C88B800C000C015FFF4
:100E600038B96795889471FD620F00C0002C38B9BD
:100E70006795889400C0002C88B800C000C014FF9B
:100E800038B972FD620F6795889400C0002C38B99C
:100E900073FD620F00C0002C88B800C000C013FFB3
:100EA00038B96795889474FD620F00C0002C38B97A
:100EB0006795889400C0002C88B800C000C012FF5D
:100EC00038B975FD620F6795889400C0002C38B959
:100ED00076FD620F00C0002C88B800C000C011FF72
:100EE00038B96795889477FD620F00C0002C38B937
:100EF0006795889400C0002C88B800C000C010FF1F
:100F000038B9122F7111162F8D0D00C0002C38B971
:100F1000119709F086CE4A815B8120EE31E0DA013B
:100F20000E940410DC01CB01F4E0B695A7959795DB
:100F30008795FA95D1F730E020E0B901EAE94E9FB4
:100F4000040E611D5E9F600D711D1124650F711DE2
:100F5000860F971FA11DB11D893E43E09407A1058F
:100F6000B10508F434C0885E9340A109B10942E09C
:100F7000B695A795979587954A95D1F747E0849FB1
:100F8000080E211D949F200D311D1124290F311DA4
:100F900060915A0170E0860F971F820F931F409156
:100FA0005D0150915E0160915F0170916001292F98
:100FB0003327420F531F611D711D40935D015093F4
:100FC0005E0160935F017093600180935A01789491
:100FD0000E94C002F201768B658BDF91CF911F9149
:100FE0000F91FF90EF90DF90CF90BF90AF909F90C8
:100FF0008F907F905F904F90089581E090E00895EA
:101000003F9A08956F927F928F92CF92DF92EF92E4
:10101000FF920F931F93CF93DF93CDB7DEB7629705
:101020000FB6F894DEBF0FBECDBF6C017A01380158
:10103000822EDC011C962C91CA0157FF04C0882720
:101040009927841B950B7A8369839C838B839E836A
:101050008D836D867E868F86213049F5CE0101967F
:101060000E945F0583E0888B1A8A198AF7FE02C006
:101070008DEF888BD601ED91FC910288F389E02DEC
:10108000BE016F5F7F4FC601099562960FB6F89457
:10109000DEBF0FBECDBFDF91CF911F910F91FF90AB
:1010A000EF90DF90CF908F907F906F9008951C8687
:1010B0001B861A86198618861F82D4CFEF92FF925C
:1010C0000F931F93CF93DF93CDB7DEB762970FB621
:1010D000F894DEBF0FBECDBF7C01DC011C968C9165
:1010E0007A8369835C834B835E834D830D871E8780
:1010F0002F878130F9F4CE0101960E945F05188A8E
:101100001A8A198AD701ED91FC910288F389E02DA2
:10111000BE016F5F7F4FC701099562960FB6F894C5
:10112000DEBF0FBECDBFDF91CF911F910F91FF901A
:10113000EF9008951C861B861A86198618861F82D2
:10114000DECF90E080E00895FC0164870895FC0103
:10115000848590E00895FC018585968508950F9318
:101160001F93CF93DF9300D01F92CDB7DEB7AB01B3
:1011700019821A821B82DC01ED91FC910190F081B1
:10118000E02D00E010E020E0BE016F5F7F4F099589
:101190000F900F900F90DF91CF911F910F910895B5
:1011A0000E942B10682F67706093990181E090E096
:1011B0000E94800FE0919901F0E0E257FE4F80819C
:1011C000809307080895AF92BF92CF92DF92EF927B
:1011D000FF921F93CF93DF93282F609198010E9475
:1011E000AE0F90939C01622F90E080E00E94800FF0
:1011F000C0919C0189E0C89FE0011124D395CE01E4
:101200000E94720F182FCE0101960E947A0F6C0176
:10121000CE0103960E947A0F5C01CE0105960E94D2
:101220007A0F7C01CE0107960E947A0F20919601D9
:1012300030919701B0921708A0921608D09220081A
:10124000C0921F08412F50E050931E0840931D0884
:101250003093150820931408F0921908E0921808AA
:1012600090931B0880931A08892BA9F081E0809342
:101270001C08112399F01130E1F01092220810920D
:101280002108DF91CF911F91FF90EF90DF90CF90D9
:10129000BF90AF90089510921C08EBCF86EE90E0BF
:1012A000909326088093250810922808109227080A
:1012B000E4CF8DE095E0F4CF1F920F920FB60F921E
:1012C00011248F939F938091E1009091E100937F8F
:1012D0009093E10083FF0FC01092E90091E090939A
:1012E000EB001092EC0092E39093ED001092AA07AD
:1012F00098E09093F00082FF22C093E09093E90081
:101300009091F200992319F09AE39093E80090915C
:101310006A01992341F090916A01915090936A017A
:10132000911101C05D9A9091A907992341F0909184
:10133000A90791509093A907911101C0289A84FFA1
:1013400018C08091E2008E7E81608093E2008091DF
:10135000E1008F7E8093E10080916B018E7E806141
:1013600080936B019F918F910F900FBE0F901F90F4
:10137000189580FFF7CF8091E2008E7E8061809388
:10138000E2008091E1008E7E8093E10080916B010C
:101390008E7E8160E5CF1F920F920FB60F921124BF
:1013A000CF92DF92EF92FF920F931F932F933F9371
:1013B0004F935F936F937F938F939F93AF93BF935D
:1013C000EF93FF93CF93DF93CDB7DEB76C97DEBF7C
:1013D000CDBF1092E9008091E80083FF25C068E04E
:1013E000CE0145960E94320282EF8093E8008D89FB
:1013F00087FF39C09091E80090FFFCCF982F90763E
:1014000009F034C19E894F89588D2F89F88C91112C
:1014100031C0803861F580916C018093F1001092A9
:10142000F1008EEF8093E8006C960FB6F894DEBF63
:101430000FBECDBFDF91CF91FF91EF91BF91AF91E3
:101440009F918F917F916F915F914F913F912F91DC
:101450001F910F91FF90EF90DF90CF900F900FBEF4
:101460000F901F9018959EEF9093E800C7CF1092B1
:10147000F100D5CF913059F48111D3CF41305105CE
:1014800081F680916C018D7F80936C01CACF93307F
:1014900049F48111C6CF4130510519F680916C0194
:1014A0008260F2CF953041F48091E80080FFFCCF5C
:1014B00020682093E300B5CF963009F0A9C00B8DCA
:1014C0001C8D22E01092E9001092680110926701D1
:1014D000F2122EC010926601109265010E94010264
:1014E0001F8299E09983FA8291E09E8390EA98871F
:1014F0009AEF99872091670130916801275F3F4FEC
:101500003C832B838D831092E90010926801109226
:101510006701109366010093650149E050E0BE0148
:101520006F5F7F4F80E00E94DB010E94010279CF54
:1015300010936601009365010E946301DC0112961D
:101540000D911C910115110509F451C1D801ED91BE
:10155000FC910480F581E02DBE016B5E7F4FC801D8
:101560000995009709F03EC1F80100851185EACF81
:10157000F3E0FF120EC08F89882309F440C0823047
:1015800061F440E86AE080E191E00E94A8018111E5
:1015900048CF81E28093EB0047CF813029F440E8C7
:1015A0006BE084E091E0F1CF833099F70E94630112
:1015B000DC011296ED90FC908E010F5F1F4F6801C9
:1015C000E114F10479F0D701ED91FC910680F781E7
:1015D000E02DB801C7010995080F111DF701E0843E
:1015E000F184EECFD8011C92F60101900020E9F7BA
:1015F0003197BF016C197D0940E0C601C6CF6EEE80
:1016000070E0FB01449150E080E80E94DB0109CFCB
:10161000973009F4BECF983021F481E08093F10037
:1016200000CF993009F0FDCE837009F0B2CFEDE024
:10163000F1E081E031E096E32191222371F0809383
:10164000E9003093EB00DF0111972C912093EC001F
:101650009093ED008F5F873079F78EE78093EA00F3
:101660001092EA008F898093AA07DBCE8B8D9C8D28
:101670001092E90010926801109267019093660140
:1016800080936501898D811192C08E899D89913ADF
:1016900049F4813209F07DCF47E050E064E071E029
:1016A00080E0B3CF913209F074CF833269F48F892F
:1016B000988DB0E0A0E08093000190930101A09389
:1016C0000201B0930301ADCE803269F48091E8004D
:1016D00082FFFCCF67E084E091E00E9432028BEF52
:1016E0008093E8009ECE823209F09BCE8F89809352
:1016F0000B01EEEFFFE7859194918B3F9C4D51F1EB
:10170000E0E0F8E08091040190910501A0910601CC
:10171000B0910701803B9440A105B105F1F480919F
:101720000B0180FD1AC0EE3F8AE0F80789F587E7D4
:1017300097E791838083809160008093690188E1BD
:101740009BE00FB6F894A895809360000FBE90932D
:10175000600067CEEEEFFAE0D5CF808191818737C8
:10176000974709F05ECEA8958091600088618093CC
:1017700060008091690180936000EE3F2AE0F207EB
:1017800089F08091FE0A9091FF0A9183808349CE6F
:10179000808191818737980751F29093FF0A809357
:1017A000FE0AC5CF1092FF0A1092FE0A3ACE0E949E
:1017B0006301DC0112960D911C910115110509F4CC
:1017C000E8CED801ED91FC910190F081E02DBE01B1
:1017D0006B5E7F4FC8010995811123CEF80100850A
:1017E0001185EBCF181619060CF41BCED2CEF1E002
:1017F000FF12BECE62EF70E004CF1F920F920FB6C1
:101800000F9211242F933F938F939F93AF93BF9386
:1018100080915D0190915E01A0915F01B0916001A6
:1018200030915C0123E0230F2D3758F50196A11D5F
:10183000B11D20935C0180935D0190935E01A093A4
:101840005F01B09360018091610190916201A0916C
:101850006301B09164010196A11DB11D80936101E6
:1018600090936201A0936301B0936401BF91AF9123
:101870009F918F913F912F910F900FBE0F901F90CE
:10188000189526E8230F0296A11DB11DD2CF1F92F5
:101890000F920FB60F9211240F931F932F933F9324
:1018A0004F935F936F937F938F939F93AF93BF9368
:1018B000EF93FF938091590181110AC081E08093D9
:1018C000590180919901809358018F5F0E94D2083D
:1018D0000E949D03009154011091550120915601E1
:1018E00030915701601B710B820B930B693E734063
:1018F000810591059CF0809158010E94D208809149
:101900009C018F5F0E94E3080E949D036093540135
:10191000709355018093560190935701FF91EF9179
:10192000BF91AF919F918F917F916F915F914F91F7
:101930003F912F911F910F910F900FBE0F901F900D
:1019400018951F920F920FB60F9211242F933F9369
:101950004F935F936F937F938F939F93AF93BF93B7
:10196000EF93FF931E992DC00E949D036093540135
:10197000709355018093560190935701109259012D
:101980008FE08093C10083E08093C30080E1809367
:10199000D1001092BF001092BE0084E080937200CC
:1019A000FF91EF91BF91AF919F918F917F916F9137
:1019B0005F914F913F912F910F900FBE0F901F900D
:1019C000189510927200ECCFE7EBF7E013821282C9
:1019D00088EE93E0A0E0B0E084839583A683B7838C
:1019E00085E491E0918380838FEF9FEF95878487D3
:1019F000E7E0F8E0808312821182148613868FEF6D
:101A00009FEFDC0187839087A187B28713821482BE
:101A100015821682E4E1F8E013821282148613869E
:101A20001286118611821082158214821782168204
:101A3000108686EE90E0928B818B148A138A16862C
:101A400015860895CF93DF9300D01F92CDB7DEB7F0
:101A5000789484B5826084BD84B5816084BD85B589
:101A6000826085BD85B5816085BD80916E00816095
:101A700080936E001092810080918100826080933B
:101A8000810080918100816080938100809180003D
:101A900081608093800080919100826080939100AA
:101AA000809191008160809391008091900081608D
:101AB000809390008091C10084608093C1008091E8
:101AC000C10082608093C1008091C10081608093D9
:101AD000C1008091C30081608093C3008091C000E9
:101AE00082608093C0008091C20081608093C200B8
:101AF00080917A00846080937A0080917A0082607D
:101B000080937A0080917A00816080937A0080913E
:101B10007A00806880937A001092AA0710926C0174
:101B200010926B018091D70081608093D70080EA8A
:101B30008093D80089B5806189BD89B5826089BDEF
:101B400009B400FEFDCF61E070E080E090E00E940B
:101B5000E5028091D8008F7C80618093D8008091CD
:101B6000E000807F8093E0008091E1008E7E809392
:101B7000E1008DE08093E200559A209A8FEF9FEF6D
:101B80009093C4078093C30790E080E00E94720F97
:101B9000D82E80939C0181E090E00E94720F809388
:101BA000990184E090E00E94720F8093980185E093
:101BB00090E00E947A0F9093970180939601813074
:101BC000924030F080E092E09093970180939601EC
:101BD000EEE8AE2EE1E0BE2EF7E0EF2EF12CC701CD
:101BE0000E94720FD5018D935D01BFEFEB1AFB0AC6
:101BF000EFE0EE16F10499F78D2D0E94E308809135
:101C000099010E94D208209196013091970180910C
:101C10008601811155C010927201109271018FEFEF
:101C2000809375018093760180937701809378018A
:101C30008093790180937A0181E080937B011092F7
:101C40007D0110927C0180E797E190937F01809362
:101C50007E0183E090E09093810180938001109257
:101C6000830110928201109274011092730180918D
:101C7000B1079091B207892B31F48FE691E09093F0
:101C8000B2078093B107E0916D01F0916E0130973A
:101C900021F08FE691E0958384838FE691E0909325
:101CA0006E0180936D0110928501109284018DE286
:101CB00091E09093700180936F0181E080938601A1
:101CC0003F9A8DE991E09093720180937101309376
:101CD0007D0120937C0180910A0890910B08A091CE
:101CE0000C08B0910D08843CF9E09F07A105B105EF
:101CF00020F484EC99E0A0E0B0E080930A0890938F
:101D00000B08A0930C08B0930D088FE691E0909318
:101D10009B0180939A01809107080E94A903E0E645
:101D2000F1E02491E1E4F1E084918823C9F090E0AE
:101D3000880F991FFC01E75DFE4F45915491FC010E
:101D4000E55EFE4FA591B4919FB7F894FA013081FA
:101D5000822F809583238083EC912E2B2C939FBF21
:101D6000D89A80916B00806480936B0080916800AA
:101D700081608093680060E0E62E60E0F62E87EBDD
:101D800097E00E94A602181619060CF051C0D12C3B
:101D90005DE9E52E51E0F52E20C091E09D0DE1E0DA
:101DA000F0E0EC0FFD1FED0DF11D80839330A1F4E9
:101DB0000115B2E01B0778F48B819A81F801EE0FD0
:101DC000FF1FE00FF11FE356FE4F2981208391830F
:101DD00082830F5F1F4F90E0D92E87EB97E00E9420
:101DE000A60218161906CCF787EB97E00E9464024A
:101DF0008F3F99F680919A0190919B01DC01ED91C2
:101E0000FC910084F185E02D09958017910740F43D
:101E1000E0919A01F0919B01F382E2821687058797
:101E2000809107080E94A90390E010E000E0D4CF61
:101E30002091270830912808C901959587958C5ED7
:101E4000974FE0912508F091260820FF08C0DC019B
:101E50002D913C91E20FF31F0190F081E02D6DE98F
:101E600071E00995809107080E94A90380912108DB
:101E700090912208019660911608709117080E94AF
:101E8000BA0F909322088093210820911C08892B77
:101E900069F42223C1F080911A0890911B080097E1
:101EA00029F0019790931B0880931A08222359F078
:101EB00080911A0890911B08892B29F480919C012C
:101EC0008F5F0E94E308609118087091190890E0F4
:101ED00080E00E94E502E114F10409F450CF0E9471
:101EE00000004DCFF999FECF92BD81BDF89A992798
:101EF00080B50895A8E1B0E042E050E00C94900F66
:101F0000262FF999FECF1FBA92BD81BD20BD0FB615
:101F1000F894FA9AF99A0FBE01960895DC01CB0164
:101F2000FC01F999FECF06C0F2BDE1BDF89A3196E9
:101F300000B40D9241505040B8F70895DB018F93E3
:101F40009F930E940B10BF91AF91A29F800D911D96
:101F5000A39F900DB29F900D11240895991B79E0D5
:101F600004C0991F961708F0961B881F7A95C9F729
:101F700080950895AA1BBB1B51E107C0AA1FBB1F78
:101F8000A617B70710F0A61BB70B881F991F5A9505
:101F9000A9F780959095BC01CD01089597FB072E78
:101FA00016F4009407D077FD09D00E94BA0F07FC01
:101FB00005D03EF4909581959F4F08957095619559
:101FC0007F4F0895A1E21A2EAA1BBB1BFD010DC075
:101FD000AA1FBB1FEE1FFF1FA217B307E407F507D9
:101FE00020F0A21BB30BE40BF50B661F771F881FB5
:101FF000991F1A9469F760957095809590959B014B
:10200000AC01BD01CF0108950E941C10B7FF0895D7
:10201000821B930B08950E941C10A59F900DB49FE6
:10202000900DA49F800D911D11240895EE0FFF1FA8
:102030000590F491E02D0994A29FB001B39FC001D7
:10204000A39F700D811D1124911DB29F700D811DE4
:102050001124911D089581E090E0F8940C943010C3
:04206000F894FFCF22
:10206400FFFFFFFF00E100000000000000C18081CD
:1020740000000000000000D008D008D008AF08AB72
:1020840008FD07A708A408A108000000005E0802D4
:10209400080008AF08AB08FD07A708A40877019C4F
:1020A40005000000003F02180360025502A6026406
:0420B40002820200A2
:00000001FF
