:100000000C94C5000C94ED000C94ED000C94ED00E4
:100010000C94ED000C94ED000C94ED000C94ED00AC
:100020000C94ED000C94F2030C9433070C94A50788
:100030000C94ED000C94ED000C94ED000C94ED008C
:100040000C94ED000C94ED000C94ED000C94ED007C
:100050000C94ED000C94ED000C94ED000C94D90A76
:100060000C94ED000C94ED000C94ED000C94ED005C
:100070000C94ED000C94ED000C94ED000C94ED004C
:100080000C94ED000C94ED000C94ED000C94ED003C
:100090000C94ED000C94ED000C94ED000C94ED002C
:1000A0000C94ED000C94B7040C94ED00080B0002C6
:1000B0000202010009040000010202000005240000
:1000C0001001052401010104240206052406000193
:1000D0000705810310004009040100020A00000026
:1000E00007050202400000070583024000000403E8
:1000F0000904426C696E6B696E6C61627300426CDC
:10010000696E6B7954617065001201000200000095
:1001100040501D5E6000010102030112010002EF68
:10012000020140501D5E6000010102030100000059
:1001300000250028002B002E0031000000000024C4
:100140000027002A002D00300004040404040304E6
:100150000502020202040302020202060606060665
:100160000604040202020404040802011040804054
:1001700010204080408008020401804020100201CD
:100180001080102040402000CE0C11241FBECFEF65
:10019000DAE0DEBFCDBF11E0A0E0B1E0EEE6F0E2D4
:1001A00002C005900D92A634B107D9F728E0A6E465
:1001B000B1E001C01D92A831B207E1F710E0C5EC33
:1001C000D0E004C02197FE010E940510C43CD10775
:1001D000C9F70E94050D0C9435100C94000080E9BD
:1001E00091E008953F9A089580E090E00895FC0121
:1001F000858596850895CF93DF9300D000D000D0F9
:10020000CDB7DEB7AB011C821D821E82DC01ED91F1
:10021000FC910190F081E02D19821A821B829E01CF
:100220002F5F3F4FBE016C5F7F4F099526960FB63B
:10023000F894DEBF0FBECDBFDF91CF9108954F92EE
:100240005F926F927F928F92AF92BF92CF92EF9216
:10025000FF920F931F93CF93DF933C01EB010E941A
:10026000E209F30127853089621B730B6A3071053F
:10027000B0F3F894E881F98158B1506888B18F776C
:1002800088B96A859F81262F291B922F2F83BF84CF
:100290004A805B807D85FC84EE847F5FF394E394E9
:1002A0003E814885A984CB841181D20120E0C32FEF
:1002B000022F322F3181112788943111390F08F420
:1002C0003FEF9195889470FD130F1795889471FDF9
:1002D000130F1795889472FD130F1795889473FD6B
:1002E000130F1795889474FD130F1795889475FD57
:1002F000130F1795889476FD130F1795889477FD43
:10030000130F17958894232F7111212F960F122FF9
:10031000002C58B900C000C017FF88B930812227CF
:10032000889400C0002C88B931113C0F00C0002C0B
:1003300058B900C000C016FF88B908F43FEFC19556
:10034000889400C0002C88B9F0FC230F00C0002C5A
:1003500058B900C000C015FF88B927958894F1FCF2
:10036000230F00C0002C88B92795889400C0002C6A
:1003700058B900C000C014FF88B9F2FC230F2795BC
:10038000889400C0002C88B9F3FC230F00C0002C17
:1003900058B900C000C013FF88B927958894F4FCB1
:1003A000230F00C0002C88B92795889400C0002C2A
:1003B00058B900C000C012FF88B9F5FC230F27957B
:1003C000889400C0002C88B9F6FC230F00C0002CD4
:1003D00058B900C000C011FF88B927958894F7FC70
:1003E000230F00C0002C88B92795889400C0002CEA
:1003F00058B900C000C010FF88B9132FF110122F98
:10040000CA0D00C0002C88B900C000C0002C58B92B
:1004100000C000C017FF88B932812227889400C02D
:10042000002C88B93111340F00C0002C58B900C01D
:1004300000C016FF88B908F43FEFEB0DF11D00C0B6
:10044000002C88B9E0FC230F00C0002C58B900C074
:1004500000C015FF88B927958894E1FC230F00C0E0
:10046000002C88B92795889400C0002C58B900C08A
:1004700000C014FF88B9E2FC230F2795889400C0C0
:10048000002C88B9E3FC230F00C0002C58B900C031
:1004900000C013FF88B927958894E4FC230F00C09F
:1004A000002C88B92795889400C0002C58B900C04A
:1004B00000C012FF88B9E5FC230F2795889400C07F
:1004C000002C88B9E6FC230F00C0002C58B900C0EE
:1004D00000C011FF88B927958894E7FC230F00C05E
:1004E000002C88B92795889400C0002C58B900C00A
:1004F00000C010FF88B9132FE110122F419500C0E2
:10050000002C88B94C0D00C000C058B900C000C014
:1005100017FF88B931812227889400C0002C88B940
:100520003111390F00C0002C58B900C000C016FFAF
:1005300088B908F43FEF9195889400C0002C88B9E1
:1005400070FD230F00C0002C58B900C000C015FF7B
:1005500088B92795889471FD230F00C0002C88B9B5
:100560002795889400C0002C58B900C000C014FF23
:1005700088B972FD230F2795889400C0002C88B994
:1005800073FD230F00C0002C58B900C000C013FF3A
:1005900088B92795889474FD230F00C0002C88B972
:1005A0002795889400C0002C58B900C000C012FFE5
:1005B00088B975FD230F2795889400C0002C88B951
:1005C00076FD230F00C0002C58B900C000C011FFF9
:1005D00088B92795889477FD230F00C0002C88B92F
:1005E0002795889400C0002C58B900C000C010FFA7
:1005F00088B9132F7111122F960F00C0002C88B9E3
:10060000119709F086CE20EE31E0D2010E94F30F5F
:10061000DC01CB01F4E0B695A79597958795FA95FF
:10062000D1F720E030E0A9016AE9469E412D569EAF
:10063000400D511D1124840F951FA11DB11D893E30
:1006400043E09407A105B10588F1885E9340A109B4
:10065000B10942E0B695A795979587954A95D1F748
:1006600047E0849F212D949F200D311D112460911E
:10067000510170E0860F971F820F931F4091520126
:10068000509153016091540170915501292F3327E6
:10069000420F531F611D711D40935201509353012E
:1006A00060935401709355018093510178940E9496
:1006B000E209F301708B6787DF91CF911F910F9152
:1006C000FF90EF90CF90BF90AF908F907F906F9002
:1006D0005F904F9008950F931F93CF93DF93CDB703
:1006E000DEB762970FB6F894DEBF0FBECDBF8C01A8
:1006F000F901DC011C968C917A8369835C834B83BE
:100700005E834D8390819D8791819E8792819F8793
:10071000813029F4CE0101960E94270B06C01C8669
:100720001B861A86198618861F82188A1A8A198AC1
:10073000D801ED91FC910484F585E02DBE016F5F39
:100740007F4FC801099562960FB6F894DEBF0FBEC1
:10075000CDBFDF91CF911F910F9108950F931F93FC
:10076000CF93DF93CDB7DEB762970FB6F894DEBFB5
:100770000FBECDBF8C01F901DC011C968C917A83F0
:1007800069835C834B835E834D8390819D879181D8
:100790009E8792819F87813029F4CE0101960E9425
:1007A000270B06C01C861B861A86198618861F8290
:1007B00083E0888B1A8A198AD801ED91FC91048410
:1007C000F585E02DBE016F5F7F4FC80109956296E8
:1007D0000FB6F894DEBF0FBECDBFDF91CF911F9152
:1007E0000F9108951F920F920FB60F9211242F931D
:1007F0003F934F935F936F937F938F939F93AF93A9
:10080000BF93EF93FF9383B186FB992790F981E023
:100810008927809346018823E9F00E94CD0A6093DE
:100820004B0170934C0180934D0190934E011092B7
:1008300050018FE08093C10083E08093C30080E18A
:100840008093D1001092BF001092BE0084E080938C
:10085000720002C010927200FF91EF91BF91AF91B0
:100860009F918F917F916F915F914F913F912F91C8
:100870000F900FBE0F901F901895CF93DF931F928C
:10088000CDB7DEB7682F67706093650183E090E0B5
:1008900069830E94250B6981861721F083E090E02F
:1008A0000E94230BE0916501F0E0E959FE4F808141
:1008B000809374010F90DF91CF910895CF93C82F4B
:1008C000609171010E947E0F9093660182E090E03A
:1008D0000E94250B8C1729F06C2F82E090E00E947B
:1008E000230B8091660127E0829FC0011124855768
:1008F0009049FC012491319665917491FC013396E5
:10090000A591B491FC0135968591949140916F0128
:1009100050917001B0938401A093830170938A0178
:1009200060938901622F70E0709388016093870162
:1009300050938201409381019093860180938501B9
:10094000222329F0213069F480E296E002C08BE78F
:1009500096E09093900180938F01109292011092F3
:10096000910110928C0110928B01CF9108951F92EA
:100970000F920FB60F9211240F931F932F933F9353
:100980004F935F936F937F938F939F93AF93BF9397
:10099000EF93FF938091500181110AC081E0809311
:1009A00050018091650180934F018F5F0E943D044B
:1009B0000E94CD0A00914B0110914C0120914D01F4
:1009C00030914E01DC01CB01801B910BA20BB30BCC
:1009D0008093470190934801A0934901B0934A0145
:1009E000893E9340A105B1059CF080914F010E9482
:1009F0003D04809166018F5F0E945E040E94CD0AD3
:100A000060934B0170934C0180934D0190934E0184
:100A1000FF91EF91BF91AF919F918F917F916F91D6
:100A20005F914F913F912F911F910F910F900FBEAA
:100A30000F901F90189540915F0150916001209197
:100A40005D0130915E0142175307B4F49091E800C4
:100A50009570E1F39091E80092FD19C08093F10048
:100A600080915F019091600101968F739927892B86
:100A700019F48EEF8093E80080915F0190916001FE
:100A800001969093600180935F0181E0089580E07A
:100A90000895CF92DF92EF92FF920F931F93CF931F
:100AA000DF931F92CDB7DEB7182F062FE42E862FC7
:100AB000880F8E5F99830E941B0583E00E941B05AF
:100AC000F12EC12E9981D92E8C2D8F19801798F473
:100AD000F601E7FE02C0849101C080810E941B05DF
:100AE000182F80E00E941B058123FFEFCF1ADF0A39
:100AF0008111EACF01C081E00F90DF91CF911F916A
:100B00000F91FF90EF90DF90CF900895DF92EF92DA
:100B1000FF920F931F93CF93DF93D82E8A017B010F
:100B2000E40EF51EEB01CE15DF0571F0D7FE03C014
:100B3000FE01849101C088810E941B0521968111CC
:100B4000F2CF8FEF9FEF01C0C801DF91CF911F91CE
:100B50000F91FF90EF90DF900895615030F0209159
:100B6000F100FC0120830196F8CF289884E6809359
:100B700072010895CF92DF92EF92FF920F931F932D
:100B8000CF93DF936C017A018B01C0E0D0E0CE15EA
:100B9000DF0589F0D8016D918D01D601ED91FC91B1
:100BA0000190F081E02DC6010995892B11F47E0199
:100BB00002C02196ECCFC701DF91CF911F910F9119
:100BC000FF90EF90DF90CF900895CF93DF931F9227
:100BD000CDB7DEB76983DC01ED91FC910280F38132
:100BE000E02D41E050E0BE016F5F7F4F09950F900F
:100BF000DF91CF91089583E08093E9008091F20026
:100C0000882319F08AE38093E8000895FC01848525
:100C1000958597FD0BC09FB7F89482E08093E9001B
:100C20008091F2009FBF90E0019608959FB7F894DD
:100C300082E08093E9008091F2009FBF90E00895E8
:100C4000EF92FF920F931F93CF93DF93EC018A856E
:100C50009B85892B21F4888599859D878C8780E0E9
:100C600090E0288139818217930708F03DC02C85D8
:100C70003D85F90154913196449131962491142F78
:100C8000187FE22FE07E3E2F369536953695A0E20E
:100C90004A9FF00111240E2F032B220F220F220F47
:100CA000DC01AA0FBB1FA80FB91F1296A60FB71F12
:100CB00030E0351781F07D01E2E0EE1AF108F7012E
:100CC00010837D01F1E0EF1AF108F70100832C9306
:100CD0003F5F1396EECF830F911D2C853D852D5FD1
:100CE0003F4F3D872C87BDCFDF91CF911F910F9153
:100CF000FF90EF900895CF93DF93EC014A855B85D9
:100D000028813981429FC001439F900D529F900DD1
:100D100011249C01220F331F820F931F28853985D0
:100D2000820F931F9D878C87DB01129680E090E0F5
:100D300060E070E02881398162177307D8F42C8550
:100D40003D85FC013296E20FF31F4491FC01319680
:100D5000E20FF31F5491F901E80FF91F2491FD01EF
:100D600032972083319650834C936F5F7F4F039669
:100D70001396E0CFDF91CF9108950E941A100F9340
:100D80001F93CF93DF931F92CDB7DEB782E08983A5
:100D900042E450E06CEA70E080E80E9486050E9420
:100DA000BA0CDC0112960D911C91139701151105D7
:100DB00069F0D801ED91FC910280F381E02DBE0134
:100DC0006F5F7F4FC801099597FF07C089810F901A
:100DD000DF91CF911F910F910895F8010085118542
:100DE000E5CF0F931F93CF93DF931F92CDB7DEB75D
:100DF0008C01FC018485958597FF0EC0CE0101967C
:100E00000E94900C019719F4298130E002C02FEF65
:100E10003FEFF80135872487F801848595850F9089
:100E2000DF91CF911F910F910895CF93DF931F9280
:100E3000CDB7DEB7FC018485958597FD05C02FEF02
:100E40003FEF358724870BC0CE0101960E94900C9E
:100E5000019719F4898190E002C08FEF9FEF0F9006
:100E6000DF91CF9108951F920F920FB60F92112428
:100E70008F939F938091E1009091E100937F9093F5
:100E8000E10083FF0FC01092E90091E09093EB0026
:100E90001092EC0092E39093ED001092730198E0B1
:100EA0009093F00082FF20C093E09093E90090912E
:100EB000F200992319F09AE39093E8009091610170
:100EC000992339F090916101915090936101992398
:100ED00089F190917201992339F0909172019150AA
:100EE00090937201992341F184FF10C08091E20038
:100EF0008E7E81608093E2008091E1008F7E8093FE
:100F0000E100809163018E7E806111C080FF16C078
:100F10008091E2008E7E80618093E2008091E1000A
:100F20008E7E8093E100809163018E7E816080934C
:100F3000630104C05D9ACDCF289AD6CF9F918F913F
:100F40000F900FBE0F901F9018951F920F920FB623
:100F50000F921124CF92DF92EF92FF920F931F9383
:100F60002F933F934F935F936F937F938F939F93B1
:100F7000AF93BF93EF93FF93CF93DF93CDB7DEB7DC
:100F80006C97DEBFCDBF1092E9008091E80083FF2F
:100F9000FAC168E0CE0145960E94AD0582EF8093CC
:100FA000E8008D8987FF05C09091E80090FFFCCF95
:100FB00003C09EEF9093E800982F907609F0C6C08A
:100FC0009E892F89188D91110CC0803829F4809149
:100FD00064018093F10002C01092F1001092F100C0
:100FE00047C1422F50E0512B913051F4811140C143
:100FF0004130510509F03CC1809164018D7F0BC0E7
:10100000933061F4811134C14130510509F030C190
:10101000809164018260809364012AC1953041F41B
:101020008091E80080FFFCCF20682093E30020C17E
:10103000963009F05FC0EB8CFC8C1092E9001092A6
:10104000600110925F01123091F510925E011092D2
:101050005D010E94BF0699E0BE016F5F7F4FDB011B
:10106000E92F1D92EA95E9F799831A8391E09E830F
:1010700090EA98879AEF998720915F0130916001FB
:10108000275F3F4F3C832B838D831092E9001092A2
:10109000600110925F01F0925E01E0925D0149E013
:1010A00050E080E00E9486050E94BF06E1C0F092F9
:1010B0005E01E0925D010E94BA0CDC011296ED9097
:1010C000FC901397E114F10409F4C0C0D701ED912D
:1010D000FC910480F581E02DBE016B5E7F4FC7015E
:1010E0000995009719F00CF0C3C0C6C0F701E08461
:1010F000F184E8CF973009F4BFC0983021F481E043
:101100008093F100B5C0993009F0B2C0837009F046
:10111000B3C0EDE0F1E081E021E036E39081992376
:1011200061F08093E9002093EB0091919093EC00A3
:101130003093ED008F5F873089F78EE78093EA0068
:101140001092EA008F898093730192C08B8D9C8DE1
:101150001092E9001092600110925F0190935E017D
:1011600080935D01898D811156C08E899D89913A48
:1011700059F4813209F080C047E050E064E071E04A
:1011800080E00E94860574C0913209F075C08332F8
:1011900089F4888D90E0982F88272F89822BA0E0F2
:1011A000B0E08093000190930101A0930201B093FD
:1011B00003015EC0803269F48091E80082FFFCCFB9
:1011C00067E084E091E00E94AD058BEF8093E8003A
:1011D00006C0823209F04CC08F8980930B01809148
:1011E0006201882319F0EEEFFAE002C0E0E0F8E0D7
:1011F0008091040190910501A0910601B091070131
:10120000803B9440A105B10509F088C080910B0195
:1012100080FFA0C083C00E94BA0CDC0112960D9121
:101220001C9113970115110539F1D801ED91FC912D
:101230000190F081E02DBE016B5E7F4FC8010995E2
:10124000811116C0F80100851185ECCF1130C1F075
:10125000133091F48F89882309F455C08230E9F462
:1012600040E86AE08EEF90E00E944905882321F073
:101270008EEF8093E80087C081E28093EB0083C00B
:101280008B8D9C8D089711F410935C0180915C010B
:10129000811136C069E071E038C0813029F440E83E
:1012A0006BE082EF90E0E0CF833031F70E94BA0C20
:1012B000DC011296ED90FC9013978E010F5F1F4F8B
:1012C0006801E114F10479F0D701ED91FC910680F9
:1012D000F781E02DB801C7010995080F111DF7012D
:1012E000E084F184EECFD8011C92F6010190002039
:1012F000E9F73197BF016C197D0940E0C601B4CF11
:101300006BE171E002C06EEE70E06115710509F4E9
:10131000B3CFFB01449150E080E833CF0FB6F8948F
:10132000A8958091600088618093600010926000B1
:101330000FBEA895EE3F2AE0F20739F08091FE0A31
:101340009091FF0A9183808393CF1092FF0A1092AD
:10135000FE0A8ECFEE3F8AE0F80731F0808191815E
:101360009093FF0A8093FE0A87E797E79183808333
:101370009BE088E10FB6F894A895809360000FBEBB
:101380009093600075CF6C960FB6F894DEBF0FBED9
:10139000CDBFDF91CF91FF91EF91BF91AF919F9121
:1013A0008F917F916F915F914F913F912F911F91FD
:1013B0000F91FF90EF90DF90CF900F900FBE0F90A6
:1013C0001F9018953FB7F89480915801909159015A
:1013D000A0915A01B0915B0126B5A89B05C02F3F93
:1013E00019F00196A11DB11D3FBFBA2FA92F982F4B
:1013F0008827820F911DA11DB11DBC01CD0142E0C6
:10140000660F771F881F991F4A95D1F708958F920D
:101410009F92AF92BF92CF92DF92EF92FF926B01B9
:101420007C010E94E2094B015C01C114D104E1047A
:10143000F104F1F00E94E209DC01CB01881999095D
:10144000AA09BB09883E9340A105B10570F321E0CC
:10145000C21AD108E108F10888EE880E83E0981ED0
:10146000A11CB11CC114D104E104F10419F7DDCFB2
:10147000FF90EF90DF90CF90BF90AF909F908F90B4
:1014800008958F929F92AF92BF92CF92DF92EF9288
:10149000FF920F931F93CF93DF935C016B018A013F
:1014A00080910B01882309F45EC080917301882329
:1014B00009F459C08091630180FF05C08091E0006C
:1014C00082608093E000E8018AEFF82E93E0E92E35
:1014D0002FE3822E3AE3932E209709F43DC08FB775
:1014E000F894E092E9009091E80095FF06C0909191
:1014F000F200282D291B922F01C090E08FBF91117F
:101500000AC0FA94FF2079F161E070E080E090E099
:101510000E94070AE1CF292F30E0C217D3070CF44D
:101520009C2F8FB7F894E092E9002091E80025FF06
:1015300011C0292F30E0C21BD30BF601915020F0CF
:1015400041914093F100FACFC20ED31E9091E80072
:1015500095FF13C08FBFC0CF5D9884E68093610173
:101560001016110644F081E090E0F5019383828328
:1015700080E090E005C0C80103C09092E800EACF87
:10158000DF91CF911F910F91FF90EF90DF90CF905F
:10159000BF90AF909F908F9008952FB7F89460916F
:1015A00052017091530180915401909155012FBFC8
:1015B00008951F920F920FB60F9211242F933F930D
:1015C0008F939F93AF93BF9380915201909153015A
:1015D000A0915401B09155013091570123E0230FA0
:1015E0002D3720F40196A11DB11D05C026E8230F5B
:1015F0000296A11DB11D2093570180935201909333
:101600005301A0935401B0935501809158019091DA
:101610005901A0915A01B0915B010196A11DB11D24
:101620008093580190935901A0935A01B0935B01A4
:10163000BF91AF919F918F913F912F910F900FBECE
:101640000F901F9018950C9427100C941F10EF9278
:10165000FF920F931F93CF93DF93EC01909156016C
:101660009F5F292F27702093560190FF02C090E8BA
:1016700001C090E021FD9064247009F0906220E1A7
:10168000290FFE013C967E018FE0E80EF11C00E080
:1016900011E06191662331F070E0C8010E949E0F55
:1016A0006F5F01C060E0DF0114976C93322F369FAB
:1016B000030E30E0311D1124CF010797311103C013
:1016C000EC01188203C03150EC013883662311F01D
:1016D00061506C93EE15FF05E1F6DF91CF911F91FC
:1016E0000F91FF90EF9008953F924F925F926F920B
:1016F0007F928F929F92AF92BF92CF92DF92EF92A2
:10170000FF920F931F93CF93DF9300D01F92CDB71B
:10171000DEB7F82E8091770190917801A091790140
:10172000B0917A01892B8A2B8B2BE9F00E94E20978
:101730000091C4071091C5072091C6073091C707D3
:10174000DC01CB01801B910BA20BB30B0091770145
:10175000109178012091790130917A0180179107D9
:10176000A207B307B8F20E94E2096093C40770931E
:10177000C5078093C6079093C707E0917F01F0915A
:101780008001309759F040917B0150917C0160912C
:101790007D0170917E018F2D0995F82E0091C20771
:1017A0001091C3074F2C512C612C712C0115110580
:1017B00009F461C0D8011C96EC901C9780917501CA
:1017C000909176018436910510F41C961C92D801F4
:1017D000ED91FC91A280B38019821A821B82F110D4
:1017E00014C0F80145855685628173819E012F5F83
:1017F0003F4FC801F5010995D8011C96EC921C9742
:1018000014960D911C911597D1CFF8013996CE0100
:1018100001966C0148019CE0890E911CDF01139731
:101820003C902191332001F12223F1F0822F90E0AE
:10183000A0E0B0E09C01AD012F5F3F4F4F4F5F4FE5
:10184000C301B2010E946E0F9B01AC01832D90E099
:10185000A0E0B0E0BC01CD016F5F7F4F8F4F9F4F85
:101860000E946E0FD6018C93BFEFCB1ADB0AE815EE
:10187000F905A1F6B6CF8091C0079091C1078C0100
:101880000F5F1F4F1093C1070093C00749979CF14A
:101890000E94CD0A4B015C0188EE93E0089FB001E5
:1018A000099F700D189F700D1124072E000C880BD6
:1018B000990BC090BC07D090BD07E090BE07F09098
:1018C000BF07A50194012C193D094E095F090E942B
:1018D000B20F30937601209375011092C1071092D8
:1018E000C0070E94CD0A6093BC077093BD07809328
:1018F000BE079093BF070F900F900F90DF91CF918D
:101900001F910F91FF90EF90DF90CF90BF90AF901D
:101910009F908F907F906F905F904F903F90089531
:10192000FC0180917301811103C08FEF9FEF089537
:101930009FB7F89482E08093E9002091F20030E0B4
:101940001216130614F421E030E02115310559F088
:10195000289884E6809372018091F10080838091C1
:10196000F200882319F09FBFC90108958BE6809388
:10197000E800F9CF8091B40781110DC082E0809317
:10198000B00784E08093B1071092B3071092B207BA
:1019900081E08093B40780EB97E00895E8ECF7E0EE
:1019A0001382128288EE93E0A0E0B0E084839583F6
:1019B000A683B78389E391E0918380838FEF9FEFC4
:1019C00095878487E4E7F1E0808312821182148690
:1019D00013868FEF9FEFDC0187839087A187B28703
:1019E000E1E8F1E0138212821186108617821682D6
:1019F00011821082158214828BE796E09787868782
:101A0000118A108A138612860895CF93DF9300D02F
:101A10001F92CDB7DEB7789484B5826084BD84B55B
:101A2000816084BD85B5826085BD85B5816085BDD9
:101A300080916E00816080936E0010928100809191
:101A40008100826080938100809181008160809319
:101A5000810080918000816080938000809191005E
:101A600082608093910080919100816080939100C9
:101A7000809190008160809390008091C10084608B
:101A80008093C1008091C10082608093C1008091E9
:101A9000C10081608093C1008091C3008160809308
:101AA000C3008091C00082608093C0008091C2001A
:101AB00081608093C20080917A00846080937A0074
:101AC00080917A00826080937A0080917A008160B0
:101AD00080937A0080917A00806880937A001092D7
:101AE000730110926401109263018091D7008160AC
:101AF0008093D70080EA8093D80089B5806189BD42
:101B000089B5826089BD09B400FEFDCF61E070E057
:101B100080E090E00E94070A8091D8008F7C80616D
:101B20008093D8008091E000807F8093E0008091D6
:101B3000E1008E7E8093E1008DE08093E200559A73
:101B4000209AEEEFFFE7859194918B3F9C4D19F41D
:101B500081E0809362018FEF9FEF9093D507809390
:101B6000D407E2E7F1E02491E3E5F1E084918823F2
:101B7000C9F090E0880F991FFC01E55CFE4F45918C
:101B80005491FC01E35DFE4FA591B4919FB7F89489
:101B9000FA013081822F809583238083EC912E2B54
:101BA0002C939FBFD89A80916B00806480936B00C8
:101BB00080916800816080936800E0E8FFE6E4912E
:101BC000E0937101E1E8FFE68591949190937001B3
:101BD00080936F01A7E6B1E0E3E8FFE684918D937F
:101BE0003196EB382FE6F207C9F780916F0190919B
:101BF00070018130924030F080E092E0909370016B
:101C000080936F0180E090E00E94250B823109F003
:101C100050C181E090E00E94250B843309F049C156
:101C200082E090E00E94250BF82E8093660183E00D
:101C300090E00E94250B809365018F2D0E945E0429
:101C4000809165010E943D04E0906F01F090700169
:101C50008091A601811145C01092980110929701C0
:101C60008FEF80939B0180939C0180939D018093D3
:101C70009E0180939F018093A00181E08093A10148
:101C80001092A3011092A20110929A011092990150
:101C90008091C2079091C307892B31F485E991E0C7
:101CA0009093C3078093C207E0919301F091940150
:101CB000309721F085E991E09583848385E991E06F
:101CC00090939401809393011092A5011092A40126
:101CD00087E291E0909396018093950181E0809353
:101CE000A601E0919501F09196010480F581E02D27
:101CF00085E991E0099580EB91E0909398018093BC
:101D00009701F092A301E092A201E0919501F09178
:101D100096010284F385E02D85E991E0099500970D
:101D200011F19C0140E050E060E472E48FE090E04B
:101D30000E94D40FC0907701D0907801E090790193
:101D4000F0907A01C901DA018C159D05AE05BF0539
:101D500010F4D701C6018093770190937801A09386
:101D60007901B0937A0185E991E09093AF01809376
:101D7000AE01809174010E94740B60E0E62E60E079
:101D8000F62E88EC97E00E940606181619060CF04D
:101D900052C0D12C50EBE52E51E0F52E88EC97E0A7
:101DA0000E94060618161906CCF788EC97E00E94E8
:101DB00015078F3FF9F48091AE019091AF01DC01DE
:101DC000ED91FC910084F185E02D09958017910734
:101DD00040F4E091AE01F091AF01F382E282168708
:101DE0000587809174010E94740B90E000E010E080
:101DF000D92ED4CF91E09D0DE1E0F0E0EC0FFD1F76
:101E0000ED0DF11D8083933099F70115B2E01B07AA
:101E100010F090E0EDCF8B819A81F801EE0FFF1F5B
:101E2000E00FF11FE055FE4F2981208391838283CB
:101E30000F5F1F4FEECF2091910130919201E09101
:101E40008F01F0919001C9019595879520FF0AC0F7
:101E5000DC01AF57BE4F2D913C91E20FF31F019073
:101E6000F081E02D60EB71E08F579E4F09958091D6
:101E700074010E94740B80918B0190918C010196EA
:101E800060918301709184010E948A0F90938C016C
:101E900080938B01609185017091860180E090E0D4
:101EA0000E94070AE114F10409F46BCF0E940000BC
:101EB00068CF62E180E090E00E94230B64E381E060
:101EC00090E00E94230B60E082E090E00E94230BF0
:101ED00060E083E090E00E94230BA2CEDB018F93B1
:101EE0009F930E94FA0FBF91AF91A29F800D911D09
:101EF000A39F900DB29F900D11240895991B79E036
:101F000004C0991F961708F0961B881F7A95C9F789
:101F100080950895AA1BBB1B51E107C0AA1FBB1FD8
:101F2000A617B70710F0A61BB70B881F991F5A9565
:101F3000A9F780959095BC01CD01089597FB072ED8
:101F400016F4009407D077FD09D00E948A0F07FC91
:101F500005D03EF4909581959F4F089570956195B9
:101F60007F4F0895A1E21A2EAA1BBB1BFD010DC0D5
:101F7000AA1FBB1FEE1FFF1FA217B307E407F50739
:101F800020F0A21BB30BE40BF50B661F771F881F15
:101F9000991F1A9469F760957095809590959B01AB
:101FA000AC01BD01CF010895052E97FB1EF40094EE
:101FB0000E94EB0F57FD07D00E94B20F07FC03D021
:101FC0004EF40C94EB0F50954095309521953F4F72
:101FD0004F4F5F4F089590958095709561957F4F15
:101FE0008F4F9F4F08950E940B10B7FF0895821BDB
:101FF000930B08950E940B10A59F900DB49F900D18
:10200000A49F800D911D11240895EE0FFF1F0590D0
:10201000F491E02D0994A29FB001B39FC001A39F4A
:10202000700D811D1124911DB29F700D811D112411
:10203000911D089581E090E0F8940C943510F99981
:10204000FECF92BD81BDF89A992780B50895262FBD
:10205000F999FECF1FBA92BD81BD20BD0FB6F8948D
:0E206000FA9AF99A0FBE01960895F894FFCFF0
:10206E00FFFFFFFF00E100000000000000C18081C3
:10207E0000000000000000BD06BD06BD06FB00F717
:10208E0000F400000000006B03AE03F200FB00F74B
:10209E0000EF001F0100000000E505410A060615CD
:0620AE0007F106FB05002E
:00000001FF
