:100000000C94D4000C94FC000C94FC000C94FC00A8
:100010000C94FC000C94FC000C94FC000C94FC0070
:100020000C94FC000C9414050C9477060C94E906CF
:100030000C94FC000C94FC000C94FC000C94FC0050
:100040000C94FC000C94FC000C94FC000C94FC0040
:100050000C94FC000C94FC000C94FC000C94610DBE
:100060000C94FC000C94FC000C94FC000C94FC0020
:100070000C94FC000C94FC000C94FC000C94FC0010
:100080000C94FC000C94FC000C94FC000C94FC0000
:100090000C94FC000C94FC000C94FC000C94FC00F0
:1000A0000C94FC000C94BE050C94FC0005A84CCDEF
:1000B000B2D44EB93836A9020C50B9918688083CA2
:1000C000A6AAAA2ABE000000803F080B0002020276
:1000D00001000904000001020200000524001001D3
:1000E0000524010101042402060524060001070578
:1000F000810310004009040100020A000000070506
:1001000002024000000705830240000004030904C6
:10011000426C696E6B696E6C61627300426C696EF1
:100120006B795461706500120100020000004050BC
:100130001D5E6000010102030112010002EF0201D5
:1001400040501D5E60000101020301000000002517
:100150000028002B002E00310000000000240027A2
:10016000002A002D003000040404040403040502E6
:100170000202020403020202020606060606060442
:10018000040202020404040802011040804010200E
:10019000408040800802040180402010020110804D
:1001A000102040402000181211241FBECFEFDAE0CB
:1001B000DEBFCDBF29E0A2E7B1E001C01D92AD3C9A
:1001C000B207E1F711E0A0E0B1E0EEE4FDE202C029
:1001D00005900D92A237B107D9F710E0C4EDD0E039
:1001E00004C02197FE010E94FC12C33DD107C9F74C
:1001F0000E948E0F0C94A5160C94000080E991E0EB
:1002000008953F9A089580E090E00895FC01858567
:1002100096850895CF93DF9300D000D000D0CDB75E
:10022000DEB7AB011C821D821E82DC01ED91FC91C8
:100230000190F081E02D19821A821B829E012F5FAE
:100240003F4FBE016C5F7F4F099526960FB6F8941D
:10025000DEBF0FBECDBFDF91CF910895CF93DF9367
:10026000DC01FB0132966E537F4F12968C911297F0
:10027000EF012297888313968C9113972196888398
:1002800014968C91149780833396E617F70769F7D5
:10029000DF91CF9108950895FC0117861686118A83
:1002A000108A138A128A08954F925F926F927F92FA
:1002B0008F92AF92BF92CF92EF92FF920F931F93C4
:1002C000CF93DF933C01EB010E94BE0AF301278527
:1002D0003089621B730B6A307105B0F3F894E881C2
:1002E000F98158B1506888B18F7788B96A859F8144
:1002F000262F291B922F2F83BF844A805B807D8508
:10030000FC84EE847F5FF394E3943E814885A98466
:10031000CB841181D20120E0C32F022F322F3181F3
:10032000112788943111390F08F43FEF9195889483
:1003300070FD130F1795889471FD130F179588940E
:1003400072FD130F1795889473FD130F17958894FA
:1003500074FD130F1795889475FD130F17958894E6
:1003600076FD130F1795889477FD130F17958894D2
:10037000232F7111212F960F122F002C58B900C076
:1003800000C017FF88B930812227889400C0002C54
:1003900088B931113C0F00C0002C58B900C000C012
:1003A00016FF88B908F43FEFC195889400C0002C6F
:1003B00088B9F0FC230F00C0002C58B900C000C061
:1003C00015FF88B927958894F1FC230F00C0002CF5
:1003D00088B92795889400C0002C58B900C000C087
:1003E00014FF88B9F2FC230F2795889400C0002CD5
:1003F00088B9F3FC230F00C0002C58B900C000C01E
:1004000013FF88B927958894F4FC230F00C0002CB3
:1004100088B92795889400C0002C58B900C000C046
:1004200012FF88B9F5FC230F2795889400C0002C93
:1004300088B9F6FC230F00C0002C58B900C000C0DA
:1004400011FF88B927958894F7FC230F00C0002C72
:1004500088B92795889400C0002C58B900C000C006
:1004600010FF88B9132FF110122FCA0D00C0002CF5
:1004700088B900C000C0002C58B900C000C017FFE8
:1004800088B932812227889400C0002C88B93111A4
:10049000340F00C0002C58B900C000C016FF88B946
:1004A00008F43FEFEB0DF11D00C0002C88B9E0FC13
:1004B000230F00C0002C58B900C000C015FF88B938
:1004C00027958894E1FC230F00C0002C88B927955C
:1004D000889400C0002C58B900C000C014FF88B92F
:1004E000E2FC230F2795889400C0002C88B9E3FC18
:1004F000230F00C0002C58B900C000C013FF88B9FA
:1005000027958894E4FC230F00C0002C88B9279518
:10051000889400C0002C58B900C000C012FF88B9F0
:10052000E5FC230F2795889400C0002C88B9E6FCD1
:10053000230F00C0002C58B900C000C011FF88B9BB
:1005400027958894E7FC230F00C0002C88B92795D5
:10055000889400C0002C58B900C000C010FF88B9B2
:10056000132FE110122F419500C0002C88B94C0DBB
:1005700000C000C058B900C000C017FF88B9318161
:100580002227889400C0002C88B93111390F00C08F
:10059000002C58B900C000C016FF88B908F43FEF1E
:1005A0009195889400C0002C88B970FD230F00C07D
:1005B000002C58B900C000C015FF88B92795889451
:1005C00071FD230F00C0002C88B92795889400C0C6
:1005D000002C58B900C000C014FF88B972FD230F69
:1005E0002795889400C0002C88B973FD230F00C0A4
:1005F000002C58B900C000C013FF88B92795889413
:1006000074FD230F00C0002C88B92795889400C082
:10061000002C58B900C000C012FF88B975FD230F27
:100620002795889400C0002C88B976FD230F00C060
:10063000002C58B900C000C011FF88B927958894D4
:1006400077FD230F00C0002C88B92795889400C03F
:10065000002C58B900C000C010FF88B9132F7111C9
:10066000122F960F00C0002C88B9119709F086CE82
:1006700020EE31E0D2010E94E112DC01CB01F4E076
:10068000B695A79597958795FA95D1F720E030E034
:10069000A9016AE9469E412D569E400D511D112427
:1006A000840F951FA11DB11D893E43E09407A1054C
:1006B000B10588F1885E9340A109B10942E0B69581
:1006C000A795979587954A95D1F747E0849F212D67
:1006D000949F200D311D112460917E0170E0860FE2
:1006E000971F820F931F4091C3075091C4076091D9
:1006F000C5077091C607292F3327420F531F611D6D
:10070000711D4093C3075093C4076093C50770934E
:10071000C60780937E0178940E94BE0AF301708B15
:100720006787DF91CF911F910F91FF90EF90CF904E
:10073000BF90AF908F907F906F905F904F90089593
:100740000F931F93CF93DF93CDB7DEB762970FB6AA
:10075000F894DEBF0FBECDBF8C01F901DC011C9601
:100760008C917A8369835C834B835E834D83908114
:100770009D8791819E8792819F87813029F4CE0148
:1007800001960E94BF0D06C01C861B861A8619861C
:1007900018861F8283E0888B1A8A198AD801ED9106
:1007A000FC910484F585E02DBE016F5F7F4FC80189
:1007B000099562960FB6F894DEBF0FBECDBFDF91EC
:1007C000CF911F910F9108950F931F93CF93DF93B4
:1007D000CDB7DEB762970FB6F894DEBF0FBECDBFC0
:1007E0008C01F901DC011C968C917A8369835C830E
:1007F0004B835E834D8390819D8791819E879281FB
:100800009F87813029F4CE0101960E94BF0D06C05A
:100810001C861B861A86198618861F82188A1A8AD1
:10082000198AD801ED91FC910484F585E02DBE0173
:100830006F5F7F4FC801099562960FB6F894DEBFCF
:100840000FBECDBFDF91CF911F910F9108954F92B1
:100850005F926F927F928F929F92AF92BF92EF9230
:10086000FF920F931F93CF93DF93EC018B010E5FE9
:100870001F4FE12CF12CB70180E090E00E941C1486
:100880002B013C0120E030E040E05FE30E94CE1409
:100890004B015C016E857F85072E000C880B990B40
:1008A0000E941E1420E030E040E85EE30E94CE1477
:1008B0009B01AC01C501B4010E9403130E943B15CA
:1008C000580122E0A21AB10820E030E040E85FE3DE
:1008D0000E94031320E030E040E852E40E94CE146E
:1008E0002A813B814C815D810E94CE140E94ED13D0
:1008F000F501608368897989072E000C880B990BB4
:100900000E941E1420E030E040E151E40E94741384
:100910009B01AC01C301B2010E94031326E636E637
:1009200046E050E40E9403130E943B155801F1E099
:10093000AF1AB10820E030E040E85FE30E94031303
:1009400020E030E040E852E40E94CE142E813F8146
:10095000488559850E94CE140E94ED13F5016083ED
:1009600020E030E040E450E4C301B2010E9474137F
:100970004B015C018A899B89BC01990F880B990BFB
:100980000E941E1420E030E040E651E40E947413FF
:100990009B01AC01C501B4010E94031326E636E6B3
:1009A00046E850E40E9403130E943B1520E030E02B
:1009B00040E85FE30E94031320E030E040E852E4A7
:1009C0000E94CE142A853B854C855D850E94CE14FD
:1009D0000E94ED13F8016083FFEFEF1AFF0A0D5F2D
:1009E0001F4F20E4E216F10409F045CF8E859F8564
:1009F00001969F878E87888999890196998B888B24
:100A00008A899B8902969B8B8A8BDF91CF911F915C
:100A10000F91FF90EF90BF90AF909F908F907F903D
:100A20006F905F904F9008951F920F920FB60F92A4
:100A300011242F933F934F935F936F937F938F93E3
:100A40009F93AF93BF93EF93FF9383B186FB992757
:100A500090F981E08927809373018823E9F00E944F
:100A6000550D609378017093790180937A0190938A
:100A70007B0110927D018FE08093C10083E0809321
:100A8000C30080E18093D1001092BF001092BE009D
:100A900084E08093720002C010927200FF91EF9187
:100AA000BF91AF919F918F917F916F915F914F9186
:100AB0003F912F910F900FBE0F901F901895CF93DD
:100AC000DF931F92CDB7DEB7682F67706093A201E6
:100AD00083E090E069830E942C166981861721F0DB
:100AE00083E090E00E94BD0DE091A201F0E0EF5B99
:100AF000FE4F8081809321080F90DF91CF91089560
:100B0000CF93DF931F92CDB7DEB7609172010E9441
:100B1000C112692F9093A10182E090E069830E9445
:100B20002C166981861721F082E090E00E94BD0DAD
:100B3000E091A101F0E0EE0FFF1FE357FE4F80812F
:100B40009181DC01ED91FC910280F381E02D09950A
:100B50000E94550D609385017093860180938701F3
:100B6000909388011092890110928A0110928B0152
:100B700010928C010F90DF91CF9108951F920F92E8
:100B80000FB60F9211240F931F932F933F934F9300
:100B90005F936F937F938F939F93AF93BF93EF93E5
:100BA000FF9380917D0181110AC081E080937D01D6
:100BB0008091A20180937C018F5F0E945F050E945B
:100BC000550D009178011091790120917A013091B1
:100BD0007B01DC01CB01801B910BA20BB30B80933B
:100BE000740190937501A0937601B0937701893ECB
:100BF0009340A105B1059CF080917C010E945F05A6
:100C00008091A1018F5F0E9480050E94550D609325
:100C100078017093790180937A0190937B01FF9121
:100C2000EF91BF91AF919F918F917F916F915F9164
:100C30004F913F912F911F910F910F900FBE0F90E9
:100C40001F9018959C01909172019A3058F4E92FE9
:100C5000F0E0EE0FFF1FE357FE4F318320839F5FCD
:100C6000909372010895FC01DB0184E191E091838E
:100C700080838C91828311968C9111978383129635
:100C80008C91848308950E94CB150F931F93CF936B
:100C9000DF931F92CDB7DEB782E0898342E450E054
:100CA0006AEC70E080E80E948A0A0E947A0FDC01F8
:100CB00012960D911C9113970115110569F0D80139
:100CC000ED91FC910280F381E02DBE016F5F7F4FBB
:100CD000C801099597FF07C089810F90DF91CF91D7
:100CE0001F910F910895F80100851185E5CF1F929E
:100CF0000F920FB60F9211248F939F938091E10072
:100D00009091E100937F9093E10083FF0FC01092D8
:100D1000E90091E09093EB001092EC0092E3909345
:100D2000ED001092CE0798E09093F00082FF20C073
:100D300093E09093E9009091F200992319F09AE3DF
:100D40009093E80090918301992339F09091830169
:100D5000915090938301992389F19091CD07992324
:100D600039F09091CD0791509093CD07992341F19F
:100D700084FF10C08091E2008E7E81608093E2004B
:100D80008091E1008F7E8093E100809184018E7ECE
:100D9000806111C080FF16C08091E2008E7E80616C
:100DA0008093E2008091E1008E7E8093E10080914B
:100DB00084018E7E81608093840104C05D9ACDCFD2
:100DC000289AD6CF9F918F910F900FBE0F901F90B2
:100DD00018951F920F920FB60F921124CF92DF92A7
:100DE000EF92FF920F931F932F933F934F935F9335
:100DF0006F937F938F939F93AF93BF93EF93FF93E3
:100E0000CF93DF93CDB7DEB76C97DEBFCDBF109227
:100E1000E9008091E80083FFFAC168E0CE014596C1
:100E20000E94B10A82EF8093E8008D8987FF05C098
:100E30009091E80090FFFCCF03C09EEF9093E800F4
:100E4000982F907609F0C6C09E892F89188D911130
:100E50000CC0803829F48091A5018093F10002C074
:100E60001092F1001092F10047C1422F50E0512B37
:100E7000913051F4811140C14130510509F03CC11C
:100E80008091A5018D7F0BC0933061F4811134C135
:100E90004130510509F030C18091A50182608093F5
:100EA000A5012AC1953041F48091E80080FFFCCF74
:100EB00020682093E30020C1963009F05FC0EB8CDE
:100EC000FC8C1092E9001092820110928101123084
:100ED00091F51092800110927F010E94450699E0E1
:100EE000BE016F5F7F4FDB01E92F1D92EA95E9F7A5
:100EF00099831A8391E09E8390EA98879AEF998765
:100F00002091810130918201275F3F4F3C832B83E9
:100F10008D831092E9001092820110928101F0926B
:100F20008001E0927F0149E050E080E00E948A0A5F
:100F30000E944506E1C0F0928001E0927F010E948C
:100F40007A0FDC011296ED90FC901397E114F104F6
:100F500009F4C0C0D701ED91FC910480F581E02D2A
:100F6000BE016B5E7F4FC7010995009719F00CF029
:100F7000C3C0C6C0F701E084F184E8CF973009F41C
:100F8000BFC0983021F481E08093F100B5C0993062
:100F900009F0B2C0837009F0B3C0E9E1F1E081E08B
:100FA00021E036E39081992361F08093E90020935A
:100FB000EB0091919093EC003093ED008F5F8730C0
:100FC00089F78EE78093EA001092EA008F89809378
:100FD000CE0792C08B8D9C8D1092E90010928201F9
:100FE000109281019093800180937F01898D8111FE
:100FF00056C08E899D89913A59F4813209F080C09A
:1010000047E050E064E071E080E00E948A0A74C02A
:10101000913209F075C0833289F4888D90E0982F61
:1010200088272F89822BA0E0B0E080930001909365
:101030000101A0930201B09303015EC0803269F404
:101040008091E80082FFFCCF67E084E091E00E949D
:10105000B10A8BEF8093E80006C0823209F04CC0E1
:101060008F8980930B018091A401882319F0EEEF02
:10107000FAE002C0E0E0F8E08091040190910501FF
:10108000A0910601B0910701803B9440A105B105F4
:1010900009F088C080910B0180FFA0C083C00E942E
:1010A0007A0FDC0112960D911C9113970115110511
:1010B00039F1D801ED91FC910190F081E02DBE0154
:1010C0006B5E7F4FC8010995811116C0F80100853C
:1010D0001185ECCF1130C1F0133091F48F89882342
:1010E00009F455C08230E9F440E86AE08CE191E00F
:1010F0000E944D0A882321F08EEF8093E80087C07C
:1011000081E28093EB0083C08B8D9C8D089711F456
:101110001093A3018091A301811136C067E271E0B1
:1011200038C0813029F440E86BE080E191E0E0CF05
:10113000833031F70E947A0FDC011296ED90FC901B
:1011400013978E010F5F1F4F6801E114F10479F0CE
:10115000D701ED91FC910680F781E02DB801C70120
:101160000995080F111DF701E084F184EECFD80135
:101170001C92F60101900020E9F73197BF016C192C
:101180007D0940E0C601B4CF69E371E002C06CE0C4
:1011900071E06115710509F4B3CFFB01449150E092
:1011A00080E833CF0FB6F894A895809160008861ED
:1011B00080936000109260000FBEA895EE3F2AE079
:1011C000F20739F08091FE0A9091FF0A91838083A3
:1011D00093CF1092FF0A1092FE0A8ECFEE3F8AE064
:1011E000F80731F0808191819093FF0A8093FE0A85
:1011F00087E797E7918380839BE088E10FB6F894B7
:10120000A895809360000FBE9093600075CF6C9698
:101210000FB6F894DEBF0FBECDBFDF91CF91FF9127
:10122000EF91BF91AF919F918F917F916F915F915E
:101230004F913F912F911F910F91FF90EF90DF9071
:10124000CF900F900FBE0F901F9018954091810185
:101250005091820120917F01309180014217530704
:10126000B4F49091E8009570E1F39091E80092FD5C
:1012700019C08093F10080918101909182010196C3
:101280008F739927892B19F48EEF8093E800809152
:101290008101909182010196909382018093810156
:1012A00081E0089580E00895CF92DF92EF92FF925F
:1012B0000F931F93CF93DF936C017A018B01C0E0F2
:1012C000D0E0CE15DF0589F0D8016D918D01D601F2
:1012D000ED91FC910190F081E02DC6010995892BDB
:1012E00011F47E0102C02196ECCFC701DF91CF91AE
:1012F0001F910F91FF90EF90DF90CF900895CF93C3
:10130000DF931F92CDB7DEB76983DC01ED91FC91CD
:101310000280F381E02D41E050E0BE016F5F7F4F1E
:1013200009950F90DF91CF91089583E08093E900B4
:101330008091F200882319F08AE38093E8000895F1
:10134000FC018485958597FD0BC09FB7F89482E0DA
:101350008093E9008091F2009FBF90E0019608958C
:101360009FB7F89482E08093E9008091F2009FBFDC
:1013700090E0089522E030E0FC013087278321E0EF
:10138000218708950F931F93CF93DF931F92CDB7BB
:10139000DEB78C01FC018485958597FF0EC0CE01D8
:1013A00001960E94500F019719F4298130E002C084
:1013B0002FEF3FEFF80135872487F8018485958565
:1013C0000F90DF91CF911F910F910895CF93DF93ED
:1013D0001F92CDB7DEB7FC018485958597FD05C0CA
:1013E0002FEF3FEF358724870BC0CE0101960E9477
:1013F000500F019719F4898190E002C08FEF9FEFA1
:101400000F90DF91CF9108954F925F926F927F92EC
:101410008F929F92AF92BF92CF92DF92FF920F93E3
:101420001F93CF93DF93EC0123968C010D5B1E4F2E
:10143000412C512C32014A949FE3892E912CA12CEE
:10144000B12CFF24F3941A8219820E941E166E0199
:1014500021E0C21AD108A30192010E944216F601AE
:1014600060830E941E16A50194010E9442166B83A0
:10147000F8822596C017D10731F7DF91CF911F91E0
:101480000F91FF90DF90CF90BF90AF909F908F9083
:101490007F906F905F904F900895CF92DF92EF9280
:1014A000FF920F931F93CF93DF931F92CDB7DEB7B9
:1014B000182F062FE42E862F880F8E5F99830E94A7
:1014C000260983E00E942609F12EC12E9981D92E8A
:1014D0008C2D8F19801798F4F601E7FE02C08491D5
:1014E00001C080810E942609182F80E00E942609F1
:1014F0008123FFEFCF1ADF0A8111EACF01C081E01B
:101500000F90DF91CF911F910F91FF90EF90DF909F
:10151000CF900895DF92EF92FF920F931F93CF9396
:10152000DF93D82E8A017B01E40EF51EEB01CE1568
:10153000DF0571F0D7FE03C0FE01849101C08881F0
:101540000E94260921968111F2CF8FEF9FEF01C0F3
:10155000C801DF91CF911F910F91FF90EF90DF9025
:101560000895615030F02091F100FC012083019634
:10157000F8CF289884E68093CD0708953FB7F89474
:101580008091C9079091CA07A091CB07B091CC0771
:1015900026B5A89B05C02F3F19F00196A11DB11DCE
:1015A0003FBFBA2FA92F982F8827820F911DA11D09
:1015B000B11DBC01CD0142E0660F771F881F991F46
:1015C0004A95D1F708958F929F92AF92BF92CF9292
:1015D000DF92EF92FF926B017C010E94BE0A4B01E9
:1015E0005C01C114D104E104F104F1F00E94BE0ACF
:1015F000DC01CB0188199909AA09BB09883E9340EF
:10160000A105B10570F321E0C21AD108E108F10883
:1016100088EE880E83E0981EA11CB11CC114D10471
:10162000E104F10419F7DDCFFF90EF90DF90CF9048
:10163000BF90AF909F908F9008958F929F92AF929E
:10164000BF92CF92DF92EF92FF920F931F93CF93AF
:10165000DF935C016B018A0180910B01882309F4FF
:101660005EC08091CE07882309F459C0809184011F
:1016700080FF05C08091E00082608093E000E80177
:101680008AEFF82E93E0E92E2FE3822E3AE3932E91
:10169000209709F43DC08FB7F894E092E90090914B
:1016A000E80095FF06C09091F200282D291B922F8B
:1016B00001C090E08FBF91110AC0FA94FF2079F128
:1016C00061E070E080E090E00E94E30AE1CF292F22
:1016D00030E0C217D3070CF49C2F8FB7F894E09238
:1016E000E9002091E80025FF11C0292F30E0C21B3E
:1016F000D30BF601915020F041914093F100FACFC5
:10170000C20ED31E9091E80095FF13C08FBFC0CFCB
:101710005D9884E6809383011016110644F081E001
:1017200090E0F5019383828380E090E005C0C801DA
:1017300003C09092E800EACFDF91CF911F910F9103
:10174000FF90EF90DF90CF90BF90AF909F908F90E1
:1017500008952F923F924F925F926F927F928F9255
:101760009F92AF92BF92CF92DF92EF92FF920F9330
:101770001F93CF93DF93CDB7DEB728970FB6F894BA
:10178000DEBF0FBECDBF9C012D5F3F4F38872F833B
:101790007B0132E0E30EF11C6C01E6E0CE0ED11CC1
:1017A0001C01FDEB2F1AFEEF3F0A5FE3452E512C83
:1017B000612C712C9C012E5B3E4F3A832983FC01E6
:1017C000EA5BFE4FFC83EB83285F3F4F3E832D8314
:1017D000EF81F885808101811281813009F051C04B
:1017E0003197608170E0C80117FD03969595879544
:1017F00095958795861797070CF03FC0072E000C2C
:10180000880B990B0E941E1420E030E04FE753E450
:101810000E9474134B015C0129E939E949E95DE350
:101820000E94CE14A50194010E94CE14A50194013A
:101830000E94CE14A50194010E94CE1420E030E055
:101840004FE753E40E94CE1420E030E040EA50E439
:101850000E9403130E94E613660F771F660F771F1F
:10186000600F711F6115F4E07F0714F06C5F734027
:10187000EF81F8857283618339C0EF81F88510822A
:1018800035C00430110564F004511109EF81F88569
:1018900017FD03C01283018329C01282118226C062
:1018A000F601808181111EC0EF81F88512821182BC
:1018B0000E941E160F811885015011092FEF30E08C
:1018C00040E050E00E944216F80160830E941E161C
:1018D000A30192010E944216F601608321E0EF818C
:1018E000F8852083F6018081815080838701025032
:1018F0001109EF81F8856181728177FF02C06D5F08
:101900007F4F759567957595679570E080E090E0DD
:101910000E941E14E981FA81208131814281538124
:101920000E94CE140E94ED13F801608387010150DC
:101930001109EF81F8856181728177FF02C06D5FC7
:101940007F4F759567957595679570E080E090E09D
:101950000E941E14EB81FC812081318142815381E0
:101960000E94CE140E94ED13F8016083EF81F88588
:101970006181728177FF02C06D5F7F4F75956795BA
:101980007595679570E080E090E00E941E14ED81EF
:10199000FE8120813181428153810E94CE140E94B8
:1019A000ED13F70160832F8138852B5F3F4F388718
:1019B0002F8333E0E30EF11C85E0C80ED11CEF81CC
:1019C000F885E215F30509F003CF6EE170E080E0E1
:1019D00090E028960FB6F894DEBF0FBECDBFDF9122
:1019E000CF911F910F91FF90EF90DF90CF90BF901C
:1019F000AF909F908F907F906F905F904F903F90AF
:101A00002F900C94E30A0F931F93CF93DF93FC0165
:101A1000DB01129680E090E0478150858D010150F6
:101A200011098417950780F022813381240F351F17
:101A30008217930748F42481EB0128832581E8016C
:101A4000288326812C9305C0EB011882E8011882B7
:101A50001C9201966D5F7F4F139680349105E1F6DD
:101A6000218587819085211102C0019601C00197CF
:101A700090878783278130854281538180E490E07D
:101A8000841B950B8217930718F481E0818703C0AC
:101A9000232B09F411866EE170E080E090E0DF9185
:101AA000CF911F910F910C94E30A2FB7F894609196
:101AB000C3077091C4078091C5079091C6072FBFD7
:101AC00008951F920F920FB60F9211242F933F93F8
:101AD0008F939F93AF93BF938091C3079091C40757
:101AE000A091C507B091C6073091C80723E0230F26
:101AF0002D3720F40196A11DB11D05C026E8230F46
:101B00000296A11DB11D2093C8078093C30790932F
:101B1000C407A093C507B093C6078091C9079091E9
:101B2000CA07A091CB07B091CC070196A11DB11DAA
:101B30008093C9079093CA07A093CB07B093CC07B3
:101B4000BF91AF919F918F913F912F910F900FBEB9
:101B50000F901F901895FC01DA018DE491E09183BC
:101B60008083738362838C91848311968C91119707
:101B7000858312968C91868308950C943416EF9287
:101B8000FF920F931F93CF93DF93EC019091C707C0
:101B90009F5F292F27702093C70790FF02C090E80E
:101BA00001C090E021FD9064247009F0906220E172
:101BB000290FFE013C967E018FE0E80EF11C00E04B
:101BC00011E06191662331F070E0C8010E94CD12EE
:101BD0006F5F01C060E0DF0114976C93322F369F76
:101BE000030E30E0311D1124CF010797311103C0DE
:101BF000EC01188203C03150EC013883662311F0E8
:101C000061506C93EE15FF05E1F6DF91CF911F91C6
:101C10000F91FF90EF9008953F924F925F926F92D5
:101C20007F928F929F92AF92BF92CF92DF92EF926C
:101C3000FF920F931F93CF93DF9300D01F92CDB7E6
:101C4000DEB7F82E8091240890912508A0912608EF
:101C5000B0912708892B8A2B8B2BE9F00E94BE0AB2
:101C60000091C9091091CA092091CB093091CC0982
:101C7000DC01CB01801B910BA20BB30B009124085C
:101C80001091250820912608309127088017910788
:101C9000A207B307B8F20E94BE0A6093C909709305
:101CA000CA098093CB099093CC09E0912C08F0915C
:101CB0002D08309759F040912808509129086091DB
:101CC0002A0870912B088F2D0995F82E0091CF07C7
:101CD0001091D0074F2C512C612C712C011511053E
:101CE00009F461C0D8011C96EC901C9780912208E1
:101CF000909123088436910510F41C961C92D8010B
:101D0000ED91FC91A280B38019821A821B82F1109E
:101D100014C0F80145855685628173819E012F5F4D
:101D20003F4FC801F5010995D8011C96EC921C970C
:101D300014960D911C911597D1CFF8013996CE01CB
:101D400001966C0148019CE0890E911CDF011397FC
:101D50003C902191332001F12223F1F0822F90E079
:101D6000A0E0B0E09C01AD012F5F3F4F4F4F5F4FB0
:101D7000C301B2010E94B1129B01AC01832D90E01E
:101D8000A0E0B0E0BC01CD016F5F7F4F8F4F9F4F50
:101D90000E94B112D6018C93BFEFCB1ADB0AE81573
:101DA000F905A1F6B6CF8091C7099091C8098C01B9
:101DB0000F5F1F4F1093C8090093C70949979CF103
:101DC0000E94550D4B015C0188EE93E0089FB00125
:101DD000099F700D189F700D1124072E000C880BA1
:101DE000990BC090C309D090C409E090C509F09048
:101DF000C609A50194012C193D094E095F090E94ED
:101E0000741630932308209322081092C809109268
:101E1000C7090E94550D6093C3097093C40980934C
:101E2000C5099093C6090F900F900F90DF91CF9145
:101E30001F910F91FF90EF90DF90CF90BF90AF90E8
:101E40009F908F907F906F905F904F903F900895FC
:101E5000CF93DF9390E0FC01EA57FE4F2491FC0101
:101E6000E959FE4F84918823C1F090E0880F991FB3
:101E7000FC01E75AFE4FC591D491FC01E55BFE4F92
:101E8000A591B4919FB7F8943881822F80958323D0
:101E90008883EC91E22BEC939FBFDF91CF91089563
:101EA000FC018091CE07811103C08FEF9FEF089551
:101EB0009FB7F89482E08093E9002091F20030E02F
:101EC0001216130614F421E030E02115310559F003
:101ED000289884E68093CD078091F10080838091DB
:101EE000F200882319F09FBFC90108958BE6809303
:101EF000E800F9CF8091BB0981110DC082E0809389
:101F0000B70984E08093B8091092BA091092B90910
:101F100081E08093BB0987EB99E00895CF93DF932D
:101F200000D01F92CDB7DEB7789484B5826084BDAF
:101F300084B5816084BD85B5826085BD85B58160CD
:101F400085BD80916E00816080936E00109281004B
:101F50008091810082608093810080918100816006
:101F600080938100809180008160809380008091C7
:101F700091008260809391008091910081608093B4
:101F80009100809190008160809390008091C100C9
:101F900084608093C1008091C10082608093C10001
:101FA0008091C10081608093C1008091C3008160F5
:101FB0008093C3008091C00082608093C0008091B4
:101FC000C20081608093C20080917A008460809317
:101FD0007A0080917A00826080937A0080917A0002
:101FE000816080937A0080917A00806880937A0083
:101FF0001092CE071092A501109284018091D70013
:1020000081608093D70080EA8093D80089B5806191
:1020100089BD89B5826089BD09B400FEFDCF61E04C
:1020200070E080E090E00E94E30A8091D8008F7C0D
:1020300080618093D8008091E000807F8093E000F1
:102040008091E1008E7E8093E1008DE08093E2003C
:10205000559A209AEEEFFFE7859194918B3F9C4D26
:1020600019F481E08093A4018FEF9FEF9093DE0736
:102070008093DD078AE00E94280F8BE10E94280FE1
:1020800087E00E94280F8BE00E94280FD89A809149
:102090006B00806480936B00809168008160809306
:1020A000680081EA99E00E9422068BE899E00E948C
:1020B000220681E899E00E9422068EE298E00E94C2
:1020C00022068CE799E00E94220680E090E00E94C0
:1020D0002C16823109F05BC181E090E00E942C1641
:1020E000843309F054C182E090E00E942C16F82E4F
:1020F0008093A10183E090E00E942C168093A201BE
:102100008F2D0E9480058091A2010E945F05809121
:10211000B901811145C01092AB011092AA018FEF55
:102120008093AE018093AF018093B0018093B101A1
:102130008093B2018093B30181E08093B401109247
:10214000B6011092B5011092AD011092AC018091D0
:10215000CF079091D007892B31F488EA91E09093D2
:10216000D0078093CF07E091A601F091A7013097A7
:1021700021F088EA91E09583848388EA91E0909346
:10218000A7018093A6011092B8011092B70183E3D2
:1021900091E09093A9018093A80181E08093B90117
:1021A000E091A801F091A9010480F581E02D88EA71
:1021B00091E0099583EC91E09093AB018093AA01A3
:1021C00080E490E09093B6018093B501E091A8017E
:1021D000F091A9010284F385E02D88EA91E0099548
:1021E000009711F19C0140E050E060E472E48FE060
:1021F00090E00E9442168090240890902508A090BC
:102200002608B0902708C901DA0188159905AA05A2
:10221000BB0510F4D501C4018093240890932508D0
:10222000A0932608B093270888EA91E09093C20112
:102230008093C101809121080E940C0E40E0E42EA1
:1022400040E0F42E81ED97E00E94A00918161906CF
:102250000CF05AC0E091A201F0E0EF5BFE4F8081EC
:1022600080932108B12C33ECE32E31E0F32E81ED85
:1022700097E00E94A00918161906CCF781ED97E0A7
:102280000E94E6098F3FF9F48091C1019091C2014B
:10229000DC01ED91FC910084F185E02D099580171A
:1022A000910740F4E091C101F091C201F382E28212
:1022B00016870587809121080E940C0E90E000E0AF
:1022C00010E0B92ED4CF91E09B0DE1E0F0E0EC0FEF
:1022D000FD1FEB0DF11D8083933099F70115B2E0DE
:1022E0001B0710F090E0EDCF8B819A81F801EE0F83
:1022F000FF1FE00FF11FED53FE4F298120839183D3
:1023000082830F5F1F4FEECFE091A101F0E0EE0F4F
:10231000FF1FE357FE4F80819181DC01ED91FC911D
:102320000190F081E02D63EC71E0099580908901C6
:1023300090908A01A0908B01B0908C0120E030E059
:1023400048E452E4C501B4010E946F1387FF14C032
:102350000E94550D40908501509086016090870144
:1023600070908801DC01CB0184199509A609B70991
:102370004097A105B10500F5809121080E940C0E3F
:10238000E114F10409F45ECF0E9400005BCF62E12A
:1023900080E090E00E94BD0D64E381E090E00E9447
:1023A000BD0D60E082E090E00E94BD0D60E083E042
:1023B00090E00E94BD0D97CE0E94550D609385015F
:1023C00070938601809387019093880120E030E02C
:1023D00040E85FE3C501B4010E9403134B015C01B7
:1023E0006093890170938A0180938B0190938C0193
:1023F000E091A201F0E0EF5BFE4F608170E080E0D1
:1024000090E00E941E142B013C0120E030E048E4E3
:1024100052E4C501B4010E9474139B01AC01C301D5
:10242000B2010E94CE140E94ED1360932108A4CF44
:10243000CF92DF92EF92FF921F93CF93DF9300D062
:102440001F92CDB7DEB7E1EDF7E01382128288EE7E
:1024500093E0A0E0B0E084839583A683B78385E50D
:1024600091E0918380838FEF9FEF95878487E1E2EE
:10247000F8E01FEF108312821182148613868FEF0B
:102480009FEFDC0187839087A187B287E1EAF9E0BB
:102490008DE691E091838083C12CD12C20E8E22E3F
:1024A0002FE3F22EC282D382E482F582C682D782E3
:1024B000E086F186C286D386E486F586EBE8F9E00D
:1024C000918380838DEC9CECACE4BEE382839383A8
:1024D000A483B583C682D782E086F186C286D3867E
:1024E000E486F58619831A821B82AE014F5F5F4F27
:1024F00064E070E081E899E00E94AB0D19831A83D3
:102500001B83BE016F5F7F4F8CE799E00E9433060B
:1025100085E691E090932F0880932E08C092700971
:10252000D0927109E0927209F0927309C092740915
:10253000D0927509E0927609F0927709C0927809F5
:10254000D0927909E0927A09F0927B090F900F906E
:102550000F90DF91CF911F91FF90EF90DF90CF9080
:102560000895DB018F939F930E946116BF91AF91F5
:10257000A29F800D911DA39F900DB29F900D1124DD
:102580000895991B79E004C0991F961708F0961BCF
:10259000881F7A95C9F78095089597FB072E16F442
:1025A000009407D077FD09D00E94E81207FC05D0FF
:1025B0003EF4909581959F4F0895709561957F4F5A
:1025C00008950E949616B7FF0895821B930B0895F5
:1025D000AA1BBB1B51E107C0AA1FBB1FA617B70749
:1025E00010F0A61BB70B881F991F5A95A9F7809565
:1025F0009095BC01CD010895EE0FFF1F0590F49159
:10260000E02D09945058BB27AA270E941A130C9456
:1026100094140E94861438F00E948D1420F039F42E
:102620009F3F19F426F40C9483140EF4E095E7FB15
:102630000C947D14E92F0E94A51458F3BA17620771
:1026400073078407950720F079F4A6F50C94C71456
:102650000EF4E0950B2EBA2FA02D0B01B9019001BD
:102660000C01CA01A0011124FF27591B99F0593F01
:1026700050F4503E68F11A16F040A22F232F342F49
:102680004427585FF3CF469537952795A795F04097
:102690005395C9F77EF41F16BA0B620B730B840BAC
:1026A000BAF09150A1F0FF0FBB1F661F771F881F64
:1026B000C2F70EC0BA0F621F731F841F48F48795BC
:1026C00077956795B795F7959E3F08F0B0CF9395AE
:1026D000880F08F09927EE0F9795879508950E9427
:1026E000591408F481E008950E9488130C949414FE
:1026F0000E948D1458F00E94861440F029F45F3F28
:1027000029F00C947D1451110C94C8140C9483146A
:102710000E94A51468F39923B1F3552391F3951BF7
:10272000550BBB27AA2762177307840738F09F5FF2
:102730005F4F220F331F441FAA1FA9F335D00E2E5F
:102740003AF0E0E832D091505040E695001CCAF7CC
:102750002BD0FE2F29D0660F771F881FBB1F26178F
:1027600037074807AB07B0E809F0BB0B802DBF0166
:10277000FF2793585F4F3AF09E3F510578F00C9435
:102780007D140C94C8145F3FE4F3983ED4F386950F
:1027900077956795B795F7959F5FC9F7880F911D56
:1027A0009695879597F90895E1E0660F771F881F42
:1027B000BB1F621773078407BA0720F0621B730BF5
:1027C000840BBA0BEE1F88F7E09508950E94ED1375
:1027D0006894B1110C94C81408950E94AD1488F047
:1027E0009F5798F0B92F9927B751B0F0E1F0660FD5
:1027F000771F881F991F1AF0BA95C9F714C0B13016
:1028000091F00E94C714B1E008950C94C714672F8B
:10281000782F8827B85F39F0B93FCCF38695779544
:102820006795B395D9F73EF490958095709561952D
:102830007F4F8F4F9F4F0895E89409C097FB3EF458
:1028400090958095709561957F4F8F4F9F4F9923FD
:10285000A9F0F92F96E9BB279395F695879577957B
:102860006795B795F111F8CFFAF4BB0F11F460FF3B
:102870001BC06F5F7F4F8F4F9F4F16C0882311F093
:1028800096E911C0772321F09EE8872F762F05C0A7
:10289000662371F096E8862F70E060E02AF09A9542
:1028A000660F771F881FDAF7880F9695879597F937
:1028B0000895990F0008550FAA0BE0E8FEEF1616D1
:1028C0001706E807F907C0F012161306E407F50724
:1028D00098F0621B730B840B950B39F40A2661F098
:1028E000232B242B252B21F408950A2609F4A1403B
:1028F000A6958FEF811D811D089597F99F6780E848
:1029000070E060E008959FEF80EC089500240A9441
:102910001616170618060906089500240A941216BA
:102920001306140605060895092E0394000C11F4ED
:10293000882352F0BB0F40F4BF2B11F460FF04C09A
:102940006F5F7F4F8F4F9F4F089557FD9058440FF3
:10295000551F59F05F3F71F04795880F97FB991FFE
:1029600061F09F3F79F087950895121613061406BB
:10297000551FF2CF4695F1DF08C016161706180648
:10298000991FF1CF86957105610508940895E89423
:10299000BB2766277727CB0197F908950E94E1149A
:1029A0000C9494140E94861438F00E948D1420F028
:1029B000952311F00C947D140C94831411240C9421
:1029C000C8140E94A51470F3959FC1F3950F50E0B1
:1029D000551F629FF001729FBB27F00DB11D639FD1
:1029E000AA27F00DB11DAA1F649F6627B00DA11D77
:1029F000661F829F2227B00DA11D621F739FB00D1D
:102A0000A11D621F839FA00D611D221F749F33278C
:102A1000A00D611D231F849F600D211D822F762F25
:102A20006A2F11249F5750409AF0F1F088234AF002
:102A3000EE0FFF1FBB1F661F771F881F915050406E
:102A4000A9F79E3F510580F00C947D140C94C81496
:102A50005F3FE4F3983ED4F3869577956795B795F5
:102A6000F795E7959F5FC1F7FE2B880F911D96950F
:102A7000879597F908959F930E9445150F9007FC3D
:102A8000EE5F0C946E150C9483140E94AD14D8F371
:102A9000E894E0E0BB279F57F0F02AED3FE049ECD7
:102AA00006C0EE0FBB0F661F771F881F28F0B23AD3
:102AB00062077307840728F0B25A620B730B840B0A
:102AC000E3959A9572F7803830F49A95BB0F661F9C
:102AD000771F881FD2F790480C948415EF93E0FF7E
:102AE00007C0A2EA2AED3FE049EC5FEB0E941A130F
:102AF0000E9494140F90039401FC9058ECEAF0E0CB
:102B00000C9490159F3F31F0915020F48795779564
:102B10006795B795880F911D9695879597F90895B4
:102B20009F938F937F936F93FF93EF939B01AC01E0
:102B30000E94CE14EF91FF910E94A4152F913F9116
:102B40004F915F910C94CE14DF93CF931F930F930B
:102B5000FF92EF92DF927B018C01689406C0DA2E1F
:102B6000EF010E94E114FE01E894A59125913591B1
:102B700045915591A6F3EF010E941A13FE019701AA
:102B8000A801DA9469F7DF90EF90FF900F911F9101
:102B9000CF91DF91089581E090E0F8940C94A51610
:102BA0008F929F92AF92BF92CF92DF92EF92FF925D
:102BB000CF93DF93EC01688179818A819B816115D4
:102BC00071058105910521F464E279ED8BE597E0CB
:102BD0002DE133EF41E050E00E94421649015A01D5
:102BE0009B01AC01A7EAB1E40E9461166B017C0174
:102BF000ACEEB4EFA50194010E946F16DC01CB018D
:102C00008C0D9D1DAE1DBF1DB7FF03C00197A1090F
:102C1000B04888839983AA83BB83BC01CD019F7789
:102C2000DF91CF91FF90EF90DF90CF90BF90AF906A
:102C30009F908F9008950E94D01508958CE091E0A8
:102C40000E94D015089560930C0170930D0180933C
:102C50000E0190930F010895F999FECF92BD81BDA9
:102C6000F89A992780B50895262FF999FECF1FBAB3
:102C700092BD81BD20BD0FB6F894FA9AF99A0FBEA5
:102C800001960895052E97FB1EF400940E94591694
:102C900057FD07D00E94741607FC03D04EF40C9425
:102CA000591650954095309521953F4F4F4F5F4FA6
:102CB000089590958095709561957F4F8F4F9F4FA8
:102CC00008950E949616A59F900DB49F900DA49F05
:102CD000800D911D11240895B7FF0C9461160E9478
:102CE0006116821B930B0895A1E21A2EAA1BBB1B2F
:102CF000FD010DC0AA1FBB1FEE1FFF1FA217B307C8
:102D0000E407F50720F0A21BB30BE40BF50B661FDD
:102D1000771F881F991F1A9469F7609570958095A1
:102D200090959B01AC01BD01CF010895A29FB00118
:102D3000B39FC001A39F700D811D1124911DB29FEF
:0E2D4000700D811D1124911D0895F894FFCF90
:102D4E00FFFFFFFF00E10000000000000100000097
:102D5E00000000002E014B0100C180810000000028
:102D6E000000004306430643060A01060103010064
:102D7E00000000E403A00301010A010601FE005455
:102D8E00015D46280F050F284600000000030DBA0E
:102D9E0009000000007F091D0BA009E609C2099574
:102DAE000900000000A90B040A0000000027044CD3
:022DBE00010012
:00000001FF
