:100000000C94CB000C94F3000C94F3000C94F300CC
:100010000C94F3000C94F3000C94F3000C94F30094
:100020000C94F3000C941F0E0C94DA0A0C94490BF8
:100030000C94F3000C94F3000C94F3000C94F30074
:100040000C94F3000C94F3000C94F3000C94F30064
:100050000C94F3000C94F3000C94F3000C947B0DBF
:100060000C94F3000C94F3000C94F3000C94F30044
:100070000C94F3000C94F3000C94F3000C94F30034
:100080000C94F3000C94F3000C94F3000C94F30024
:100090000C94F3000C94F3000C94F3000C94F30014
:1000A0000C94F3000C94C50D0C94F30005A84CCDF2
:1000B000B2D44EB93836A9020C50B9918688083CA2
:1000C000A6AAAA2ABE000000803F080B0002020276
:1000D00000000904000001020200000524001001D4
:1000E0000524010101042402060524060001070578
:1000F000810310004009040100020A000000070506
:1001000002024000000705830240000004030904C6
:1001100012010002EF020140501D5E600001010269
:100120000301426C696E6B696E6C61627300426CB4
:10013000696E6B795461706500000000002500282D
:10014000002B002E00310000000000240027002AB0
:10015000002D00300004040404040304050202021C
:100160000204030202020206060606060604040250
:100170000202040404080201104080401020408064
:1001800040800802040180402010020110801020ED
:1001900040402000620E11241FBECFEFDAE0DEBF28
:1001A000CDBF11E0A0E0B1E0EEEFFAE202C00590B1
:1001B0000D92A437B107D9F729E0A4E7B1E001C057
:1001C0001D92A93CB207E1F710E0CBECD0E004C0EF
:1001D0002197FE010E947215CA3CD107C9F70E94FF
:1001E000E40E0C947D150C940000CF93DF9390E007
:1001F000FC01EC58FE4F24918B5A9E4FFC018491D8
:100200008823C1F090E0880F991FFC01E95BFE4F45
:10021000C591D491FC01E75CFE4FA591B4919FB7C5
:10022000F8943881822F809583238883EC91E22B88
:10023000EC939FBFDF91CF910895FC018091D60789
:10024000882311F13FB7F89482E08093E900209170
:10025000F200822F90E01816190614F481E090E065
:10026000882339F0289844E64093D5074091F1005F
:100270004083222339F02091F200211103C02BE6A4
:100280002093E8003FBF08958FEF9FEF08952FB7A9
:10029000F89483E08093E9009091E800892F8072C0
:1002A00095FF04C09091F20080E4891B2FBF089550
:1002B0008091CD0781110DC082E08093C90784E051
:1002C0008093CA071092CC071092CB0781E08093ED
:1002D000CD0789EC97E0089580E991E00895409179
:1002E0008801509189012091860130918701421740
:1002F0005307B4F49091E8009570E1F39091E80011
:1003000092FD19C08093F10080918801909189013C
:1003100001968F739927892B19F48EEF8093E8004B
:100320008091880190918901019690938901809331
:10033000880181E0089580E00895EF92FF920F9385
:100340001F93CF93DF93F82E192FE62E042F81E011
:10035000860F880F0E946F0183E00E946F01CF2DEE
:10036000D12FEC0EFD2EF11CCE15DF05B9F007FFE5
:1003700013C0FE0184910E946F01182F80E00E943B
:100380006F01812321968111EFCFDF91CF911F91D2
:100390000F91FF90EF9008958881EDCF81E0F5CF28
:1003A000DF92EF92FF920F931F93CF93DF93D82E9C
:1003B0008A01EB017B01E40EF51ECE15DF0559F035
:1003C000D7FE12C0FE0184910E946F012196811117
:1003D000F4CF0FEF1FEFC801DF91CF911F910F9165
:1003E000FF90EF90DF9008958881EECF0F931F93D9
:1003F000CF93DF931F92CDB7DEB782E0898342E4CB
:1004000050E06AEC70E080E80E94D0010E94580140
:10041000DC0112960D911C910115110589F0D8018E
:10042000ED91FC910280F381E02DBE016F5F7F4F63
:10043000C801099597FD04C0F80100851185ECCF2E
:1004400089810F90DF91CF911F910F910895615095
:1004500030F02091F100FC0120830196F8CF28981C
:1004600084E68093D5070895CF93DF931F92CDB78D
:10047000DEB76983DC01ED91FC910280F381E02D10
:1004800041E050E0BE016F5F7F4F09950F90DF9113
:10049000CF91089583E08093E9008091F200882352
:1004A00019F08AE38093E80008950E94470190E0E4
:1004B0000895CF93DF931F92CDB7DEB7FC018485FB
:1004C000958597FD08C02FEF3FEF358724870F9064
:1004D000DF91CF910895CE0101960E941D010197F1
:1004E00019F4898190E0F3CF8FEF9FEFF0CF0F9356
:1004F0001F93CF93DF931F92CDB7DEB78C01FC0122
:100500008485958597FF0BC0CE0101960E941D0141
:10051000019771F4898190E0F80195878487F8014B
:10052000848595850F90DF91CF911F910F9108954C
:100530008FEF9FEFF1CFFC018485958597FD0BC070
:100540009FB7F89482E08093E9008091F2009FBF0A
:1005500090E0019608959FB7F89482E08093E900B7
:100560008091F2009FBF90E008953FB7F89480918A
:10057000820190918301A0918401B091850126B5FB
:10058000A89B05C02F3F19F00196A11DB11D3FBFCB
:10059000BA2FA92F982F8827BC01CD01620F711D9A
:1005A000811D911D42E0660F771F881F991F4A9594
:1005B000D1F708958F929F92AF92BF92CF92DF9220
:1005C000EF92FF924B015C010E94B5026B017C012E
:1005D0000E94B5026C197D098E099F09683E73401F
:1005E00081059105A8F321E0821A9108A108B108BC
:1005F00088EEC80E83E0D81EE11CF11C8114910422
:10060000A104B10429F7FF90EF90DF90CF90BF9045
:10061000AF909F908F9008958F929F92AF92BF92CC
:10062000CF92DF92EF92FF920F931F93CF93DF93BE
:100630006C017B018A0180910B01882309F45CC065
:100640008091D607882309F457C080918C0180FFE0
:1006500005C08091E00082608093E000E801B12C49
:100660008AEFA82E93E0892E2AE3922E209711F488
:10067000BB20D9F10E94470181110AC0AA94AA2087
:10068000D9F161E070E080E090E00E94DA02EECF04
:100690008C171D0611F00CF08C2F9FB7F8948092E8
:1006A000E9002091E80025FD02C09FBFDFCF282F81
:1006B00030E0C21BD30BF701815020F041914093F1
:1006C000F100FACFE20EF31EBB2021F09092E80079
:1006D000B12CEBCF8091E80085FDE7CF9092E80048
:1006E000BB24B394209709F3F3CF5D9884E68093FD
:1006F0008B01101611063CF081E090E0F601938327
:10070000828310E000E0C801DF91CF911F910F912B
:10071000FF90EF90DF90CF90BF90AF909F908F9021
:1007200008952FB7F89460917E0170917F018091B8
:100730008001909181012FBF08954F925F926F9237
:100740007F929F92AF92BF92CF92DF92EF92FF92F1
:100750000F931F93CF93DF9300D01F92CDB7DEB7D7
:10076000D82E8091360890913708A0913808B09122
:100770003908892B8A2B8B2BD9F00E94B502009166
:10078000DF071091E0072091E1073091E207601B3D
:10079000710B820B930B0091360810913708209152
:1007A0003808309139086017710782079307C8F23B
:1007B0000E94B5026093DF077093E0078093E10722
:1007C0009093E207E0913E08F0913F08309759F08E
:1007D00040913A0850913B0860913C0870913D0867
:1007E0008D2D0995D82EE090DD07F090DE074D2C79
:1007F000512C712C612CE114F10409F459C0D7017A
:100800001C96CC901C9780913408909135088436C2
:10081000910510F41C961C92D701ED91FC91A280D9
:10082000B38019821A821B82DD2079F1F701369696
:1008300010E000E02191222319F19280992001F12A
:1008400030E050E040E02F5F3F4F4F4F5F4FC3011C
:10085000B2010E9427159B01AC01892D90E0B0E008
:10086000A0E0BC01CD016F5F7F4F8F4F9F4F0E9473
:100870002715A1E0B0E0AC0FBD1FA00FB11F8C93F6
:100880000F5F1F4F03301105A9F609811A812B81D3
:10089000F7014585568562817381C701F501099588
:1008A000D7011C96CC921C971496ED90FC90A3CF88
:1008B0008091DB079091DC078C010F5F1F4F109335
:1008C000DC070093DB074997B4F10E949103C090C5
:1008D000D707D090D807E090D907F090DA079B01AE
:1008E000AC012C193D094E095F0921F421E030E0EB
:1008F00040E050E088EE93E0089FB001099F700D42
:10090000189F700D1124072E000C880B990B0E9464
:100910002D1230933508209334081092DC07109282
:10092000DB070E9491036093D7077093D8078093E9
:10093000D9079093DA070F900F900F90DF91CF9126
:100940001F910F91FF90EF90DF90CF90BF90AF90ED
:100950009F907F906F905F904F900895FC01DB0116
:1009600090E080E0278130858217930770F1428103
:100970005381240F351F8217930738F52481358161
:1009800046812D933D934C93129701961396803494
:10099000910541F787819085218521111EC001961F
:1009A00090878783278130854281538180E490E05E
:1009B000841B950B8217930790F481E081876EE189
:1009C00070E080E090E00C94DA021C9211961C9288
:1009D000119712961C921297D8CF0197E1CF232B33
:1009E00071F71186ECCF22E030E0FC0130872783DD
:1009F00021E0218708950F931F93CF93DF932091D8
:100A00007C012F5F322F377030937C0120FF2BC089
:100A100020E831FD2064347009F02062205FFC0181
:100A2000EC01239600E011E06485662329F070E074
:100A3000C8010E9443156F5F6187322F369F030EF6
:100A400030E0311D1124311110C01682662311F0DF
:100A5000615061873196EC17FD0731F7DF91CF9137
:100A60001F910F91089520E0D4CF31503683EECFFF
:100A70004F925F926F927F928F92AF92BF92CF927E
:100A8000DF92EF920F931F93CF93DF933C01EB0123
:100A90000E94B502F30127853089621B730B6A300F
:100AA0007105B0F3F894E881F98178B1706868B1A4
:100AB0006F7768B9CA848F812C2D281B822F2F83D2
:100AC000BF844A805B801D850C85DE841F5F0F5FBD
:100AD000D3949E813885A984EB844181D20120E0A2
:100AE000C32F522F322F3181442788943111380F70
:100AF00008F43FEF8195889410FD430F4795889443
:100B000011FD430F4795889412FD430F4795889434
:100B100013FD430F4795889414FD430F4795889420
:100B200015FD430F4795889416FD430F479588940C
:100B300017FD430F47958894232F1111242F8C0DF7
:100B4000422F002C78B900C000C047FF68B930813F
:100B50002227889400C0002C68B93111390F00C0D9
:100B6000002C78B900C000C046FF68B908F43FEF18
:100B70009195889400C0002C68B900FD230F00C037
:100B8000002C78B900C000C045FF68B9279588944B
:100B900001FD230F00C0002C68B92795889400C080
:100BA000002C78B900C000C044FF68B902FD230FD3
:100BB0002795889400C0002C68B903FD230F00C05E
:100BC000002C78B900C000C043FF68B9279588940D
:100BD00004FD230F00C0002C68B92795889400C03D
:100BE000002C78B900C000C042FF68B905FD230F92
:100BF0002795889400C0002C68B906FD230F00C01B
:100C0000002C78B900C000C041FF68B927958894CE
:100C100007FD230F00C0002C68B92795889400C0F9
:100C2000002C78B900C000C040FF68B9432F011103
:100C3000422F9A0D00C0002C68B900C000C0002CE3
:100C400078B900C000C047FF68B932812227889474
:100C500000C0002C68B931113C0F00C0002C78B9DD
:100C600000C000C046FF68B908F43FEFEB0DF11D6E
:100C700000C0002C68B9D0FC230F00C0002C78B94C
:100C800000C000C045FF68B927958894D1FC230FA8
:100C900000C0002C68B92795889400C0002C78B952
:100CA00000C000C044FF68B9D2FC230F2795889488
:100CB00000C0002C68B9D3FC230F00C0002C78B909
:100CC00000C000C043FF68B927958894D4FC230F67
:100CD00000C0002C68B92795889400C0002C78B912
:100CE00000C000C042FF68B9D5FC230F2795889447
:100CF00000C0002C68B9D6FC230F00C0002C78B9C6
:100D000000C000C041FF68B927958894D7FC230F25
:100D100000C0002C68B92795889400C0002C78B9D1
:100D200000C000C040FF68B9432FD110422FC195C9
:100D300000C0002C68B9CE0D00C000C078B900C05A
:100D400000C047FF68B931812227889400C0002C79
:100D500068B93111380F00C0002C78B900C000C04C
:100D600046FF68B908F43FEF8195889400C0002CD5
:100D700068B910FD230F00C0002C78B900C000C076
:100D800045FF68B92795889411FD230F00C0002CFA
:100D900068B92795889400C0002C78B900C000C0BD
:100DA00044FF68B912FD230F2795889400C0002CDA
:100DB00068B913FD230F00C0002C78B900C000C033
:100DC00043FF68B92795889414FD230F00C0002CB9
:100DD00068B92795889400C0002C78B900C000C07D
:100DE00042FF68B915FD230F2795889400C0002C99
:100DF00068B916FD230F00C0002C78B900C000C0F0
:100E000041FF68B92795889417FD230F00C0002C77
:100E100068B92795889400C0002C78B900C000C03C
:100E200040FF68B9432F1111422F8C0D00C0002CD8
:100E300068B9119709F086CE20EE31E0D2010E9408
:100E40005715DC01CB01F4E0B695A79597958795EA
:100E5000FA95D1F730E020E0B901EAE94E9E040CA2
:100E6000611D5E9E600D711D1124650D711D860F43
:100E7000971FA11DB11D893E43E09407A105B1054F
:100E800008F434C0885E9340A109B10942E0B695E8
:100E9000A795979587954A95D1F747E0849F080EC7
:100EA000211D949F200D311D1124290F311D6091AA
:100EB0007B0170E0860F971F820F931F40917E0188
:100EC00050917F016091800170918101292F33271A
:100ED000420F531F611D711D40937E0150937F018E
:100EE000609380017093810180937B0178940E94CC
:100EF000B502F301708B6787DF91CF911F910F913E
:100F0000EF90DF90CF90BF90AF908F907F906F90D9
:100F10005F904F9008953F9A0895EF92FF920F933C
:100F20001F93CF93DF93CDB7DEB762970FB6F894D8
:100F3000DEBF0FBECDBF7C01DC011C968C917A8395
:100F400069835C834B835E834D830D871E872F8768
:100F5000813001F5CE0101960E94FB0483E0888B6D
:100F60001A8A198AD701ED91FC910484F585E02D48
:100F7000BE016F5F7F4FC701099562960FB6F89467
:100F8000DEBF0FBECDBFDF91CF911F910F91FF90BC
:100F9000EF9008951C861B861A86198618861F8274
:100FA000DDCFEF92FF920F931F93CF93DF93CDB7D7
:100FB000DEB762970FB6F894DEBF0FBECDBF7C01DF
:100FC000DC011C968C917A8369835C834B835E83FE
:100FD0004D830D871E872F878130F9F4CE0101964E
:100FE0000E94FB04188A1A8A198AD701ED91FC9194
:100FF0000484F585E02DBE016F5F7F4FC701099521
:1010000062960FB6F894DEBF0FBECDBFDF91CF91D1
:101010001F910F91FF90EF9008951C861B861A86F2
:10102000198618861F82DECF9C01909174019A3038
:1010300058F4E92FF0E0EE0FFF1FED54FE4F31831F
:1010400020839F5F90937401089590E080E008955D
:10105000FC018585968508950F931F93CF93DF93A9
:1010600000D01F92CDB7DEB7AB0119821A821B8266
:10107000DC01ED91FC910190F081E02D00E010E0A9
:1010800020E0BE016F5F7F4F09950F900F900F908A
:10109000DF91CF911F910F910895CF92DF92EF9240
:1010A0009B0120543F4FFC01C280D380E480FB01B0
:1010B000C192D192E192BF01E217F307A1F7EF903D
:1010C000DF90CF9008950895FC0117861686118A47
:1010D000108A138A128A08950E947815CF93DF939D
:1010E000EC011B821A820E948D112FEF30E040E04C
:1010F00050E00E94FB1168830E948D112FE330E0C5
:1011000040E050E00E94FB116C8381E08983DF9115
:10111000CF9108952F923F924F925F926F927F925C
:101120008F929F92AF92BF92CF92DF92EF92FF92F7
:101130000F931F93CF93DF93EC017B011C0180EC95
:10114000281A8EEF380A6E01EEEBCE1AEEEFDE0AA9
:101150005E01FAEBAF1AFEEFBF0A4E0186EB881A6A
:101160008EEF980A0C811D818B81813009F0BBC004
:101170006A8170E0C80117FD03969595879595954E
:101180008795861797070CF0ACC0072E000C880BCC
:10119000990B0E947A1320E030E04FE753E40E945D
:1011A000D0122B013C0129E939E949E95DE30E94AC
:1011B0002A14A30192010E942A14A30192010E9401
:1011C0002A14A30192010E942A1420E030E04FE784
:1011D00053E40E942A1420E030E040EA50E40E94E8
:1011E0005F120E944213660F771F660F771F600F12
:1011F000711F6115E4E07E070CF070C07D836C8385
:101200006C817D8177FF02C06D5F7F4F759567951B
:101210007595679570E090E080E00E947A13F60182
:1012200020813181428153810E942A140E944913F6
:10123000F70160836C817D8177FF02C06D5F7F4F16
:10124000759567957595679570E090E080E00E94D0
:101250007A13F50120813181428153810E942A1441
:101260000E944913F70161836C817D8177FF02C081
:101270006D5F7F4F759567957595679570E090E008
:1012800080E00E947A13F4012081318142815381F0
:101290000E942A140E944913F70162832596F3E005
:1012A000EF0EF11C2C163D0609F05CCF6EE170E0EC
:1012B00080E090E0DF91CF911F910F91FF90EF9030
:1012C000DF90CF90BF90AF909F908F907F906F9066
:1012D0005F904F903F902F900C94DA026C5F7340B8
:1012E0008DCF1B828DCF0430110554F004511109AC
:1012F00017FD03C01D830C8383CF1D821C8280CF0A
:101300008E81811104C0CE0102960E946E088E81EA
:1013100081508E8375CF0F931F93CF93DF938C01F2
:101320000E5F1F4FEC01CE5BDE4FC8010E946E08BE
:101330000B5F1F4F0C171D07C1F7DF91CF911F9156
:101340000F9108950C94ED110C94E511CF93C82FD3
:10135000C770C093C80783E090E00E94A409C81733
:1013600029F06C2F83E090E00E94A209E091C80769
:10137000F0E0E75CFE4F808180933308CF910895C1
:10138000CF93609174010E943715C92F9093C701C4
:1013900082E090E00E94A409C81729F06C2F82E037
:1013A00090E00E94A209E091C701F0E0EE0FFF1F5C
:1013B000ED54FE4F80819181DC01ED91FC91028022
:1013C000F381E02D09950E9491036093AB01709326
:1013D000AC018093AD019093AE011092AF011092D9
:1013E000B0011092B1011092B201CF9108954F92C5
:1013F0005F926F927F928F929F92AF92BF92EF9285
:10140000FF920F931F93CF93DF93EC018B01F12C8D
:10141000E12CB70190E080E00E9478134B015C0161
:101420006E857F85072E000C880B990B0E947A131E
:1014300020E030E040E85EE30E942A142B013C01EA
:1014400020E030E040E05FE3C501B4010E942A14CF
:101450009B01AC01C301B2010E945F120E9497146C
:1014600020E030E040E85FE30E945F1220E030E0DF
:1014700040E852E40E942A142A813B814C815D811C
:101480000E942A140E944913F801608368897989AF
:10149000072E000C880B990B0E947A1320E030E095
:1014A00040E151E40E94D012A50194010E945F1214
:1014B00026E636E646E050E40E945F120E9497144A
:1014C00020E030E040E85FE30E945F1220E030E07F
:1014D00040E852E40E942A142E813F8148855985B4
:1014E0000E942A140E944913F80161836A897B894A
:1014F000072E000C880B990B0E947A1320E030E035
:1015000040E651E40E94D0122B013C0120E030E083
:1015100040E450E4C501B4010E94D0129B01AC012B
:10152000C301B2010E945F1226E636E646E850E4A7
:101530000E945F120E94971420E030E040E85FE3D1
:101540000E945F1220E030E040E852E40E942A143A
:101550002A853B854C855D850E942A140E9449138B
:10156000F8016283FFEFEF1AFF0A0D5F1F4F80E45F
:10157000E816F10409F04DCF8E859F8501969F876F
:101580008E87888999890196998B888B8A899B890E
:1015900002969B8B8A8BDF91CF911F910F91FF90C9
:1015A000EF90BF90AF909F908F907F906F905F90E3
:1015B0004F9008951F920F920FB60F9211248F93A0
:1015C0009F938091E1009091E100937F9093E100DF
:1015D00083FF0FC01092E90091E09093EB0010920E
:1015E000EC0092E39093ED001092D60798E0909370
:1015F000F00082FF22C093E09093E9009091F20006
:10160000992319F09AE39093E80090918B01992324
:1016100041F090918B01915090938B01911101C0F9
:101620005D9A9091D507992341F09091D5079150FB
:101630009093D507911101C0289A84FF18C080911A
:10164000E2008E7E81608093E2008091E1008F7ED7
:101650008093E10080918C018E7E806180938C016B
:101660009F918F910F900FBE0F901F90189580FF44
:10167000F7CF8091E2008E7E80618093E2008091BE
:10168000E1008E7E8093E10080918C018E7E8160EE
:10169000E5CF1F920F920FB60F921124CF92DF92D7
:1016A000EF92FF920F931F932F933F934F935F936C
:1016B0006F937F938F939F93AF93BF93EF93FF931A
:1016C000CF93DF93CDB7DEB76C97DEBFCDBF10925F
:1016D000E9008091E80083FF25C068E0CE014596CF
:1016E0000E94270282EF8093E8008D8987FF39C02E
:1016F0009091E80090FFFCCF982F907609F034C1CC
:101700009E894F89588D2F89F88C911131C080386E
:1017100061F580918D018093F1001092F1008EEFC0
:101720008093E8006C960FB6F894DEBF0FBECDBF75
:10173000DF91CF91FF91EF91BF91AF919F918F91E9
:101740007F916F915F914F913F912F911F910F91D9
:10175000FF90EF90DF90CF900F900FBE0F901F90F3
:1017600018959EEF9093E800C7CF1092F100D5CF67
:10177000913059F48111D3CF4130510581F68091D8
:101780008D018D7F80938D01CACF933049F48111F3
:10179000C6CF4130510519F680918D018260F2CF9C
:1017A000953041F48091E80080FFFCCF20682093C1
:1017B000E300B5CF963009F0A9C00B8D1C8D22E057
:1017C0001092E9001092890110928801F2122EC045
:1017D00010928701109286010E94F6011F8299E003
:1017E0009983FA8291E09E8390EA98879AEF99878D
:1017F0002091880130918901275F3F4F3C832B83E3
:101800008D831092E9001092890110928801109343
:1018100087010093860149E050E0BE016F5F7F4F72
:1018200080E00E94D0010E94F60179CF10938701D9
:10183000009386010E945801DC0112960D911C91C3
:101840000115110509F451C1D801ED91FC910480F5
:10185000F581E02DBE016B5E7F4FC80109950097B1
:1018600009F03EC1F80100851185EACFF3E0FF12CF
:101870000EC08F89882309F440C0823061F440E8AB
:101880006AE08EE291E00E949D01811148CF81E2E1
:101890008093EB0047CF813029F440E86BE082E28F
:1018A00091E0F1CF833099F70E945801DC01129644
:1018B000ED90FC908E010F5F1F4F6801E114F10461
:1018C00079F0D701ED91FC910680F781E02DB80108
:1018D000C7010995080F111DF701E084F184EECFCF
:1018E000D8011C92F60101900020E9F73197BF0161
:1018F0006C197D0940E0C601C6CF6CE071E0FB01C8
:10190000449150E080E80E94D00109CF973009F45B
:10191000BECF983021F481E08093F10000CF993060
:1019200009F0FDCE837009F0B2CFE1E1F1E081E092
:1019300031E096E32191222371F08093E900309306
:10194000EB00DF0111972C912093EC009093ED00B8
:101950008F5F873079F78EE78093EA001092EA0074
:101960008F898093D607DBCE8B8D9C8D1092E900FA
:1019700010928901109288019093870180938601CB
:10198000898D811192C08E899D89913A49F4813265
:1019900009F07DCF47E050E064E071E080E0B3CF34
:1019A000913209F074CF833269F48F89988DB0E059
:1019B000A0E08093000190930101A0930201B093F5
:1019C0000301ADCE803269F48091E80082FFFCCF44
:1019D00067E084E091E00E9427028BEF8093E800AB
:1019E0009ECE823209F09BCE8F8980930B01EEEF61
:1019F000FFE7859194918B3F9C4D51F1E0E0F8E039
:101A00008091040190910501A0910601B091070118
:101A1000803B9440A105B105F1F480910B0180FD5C
:101A20001AC0EE3F8AE0F80789F587E797E79183C8
:101A300080838091600080938A0188E19BE00FB6EB
:101A4000F894A895809360000FBE9093600067CED5
:101A5000EEEFFAE0D5CF808191818737974709F083
:101A60005ECEA8958091600088618093600080912F
:101A70008A0180936000EE3F2AE0F20789F08091AE
:101A8000FE0A9091FF0A9183808349CE80819181E3
:101A90008737980751F29093FF0A8093FE0AC5CFCB
:101AA0001092FF0A1092FE0A3ACE0E945801DC0101
:101AB00012960D911C910115110509F4E8CED8017B
:101AC000ED91FC910190F081E02DBE016B5E7F4FA6
:101AD000C8010995811123CEF80100851185EBCF4E
:101AE000181619060CF41BCED2CEF1E0FF12BECEB2
:101AF00060E171E004CF1F920F920FB60F92112494
:101B00002F933F938F939F93AF93BF9380917E01C9
:101B100090917F01A0918001B091810130917D0170
:101B200023E0230F2D3758F50196A11DB11D2093F9
:101B30007D0180937E0190937F01A0938001B093FB
:101B400081018091820190918301A0918401B091E3
:101B500085010196A11DB11D80938201909383019F
:101B6000A0938401B0938501BF91AF919F918F9114
:101B70003F912F910F900FBE0F901F90189526E860
:101B8000230F0296A11DB11DD2CF1F920F920FB647
:101B90000F9211240F931F932F933F934F935F93B3
:101BA0006F937F938F939F93AF93BF93EF93FF9325
:101BB00080917A0181110AC081E080937A0180913D
:101BC000C807809379018F5F0E94A6090E94910344
:101BD0000091750110917601209177013091780183
:101BE000601B710B820B930B693E7340810591055D
:101BF0009CF0809179010E94A6098091C7018F5FB6
:101C00000E94C0090E949103609375017093760150
:101C10008093770190937801FF91EF91BF91AF91FD
:101C20009F918F917F916F915F914F913F912F91F4
:101C30001F910F910F900FBE0F901F9018951F923C
:101C40000F920FB60F9211242F933F934F935F93F0
:101C50006F937F938F939F93AF93BF93EF93FF9374
:101C60001E992DC00E9491036093750170937601B7
:101C7000809377019093780110927A018FE080939E
:101C8000C10083E08093C30080E18093D100109273
:101C9000BF001092BE0084E080937200FF91EF912C
:101CA000BF91AF919F918F917F916F915F914F9174
:101CB0003F912F910F900FBE0F901F90189510928B
:101CC0007200ECCFE3EEF7E01382128288EE93E02D
:101CD000A0E0B0E084839583A683B78385E491E098
:101CE000918380838FEF9FEF95878487E3E3F8E00C
:101CF0002FEF208312821182148613868FEF9FEFBD
:101D0000DC0187839087A187B287E3EBF9E04FE698
:101D100051E05183408380E090E0A0E8BFE38283FC
:101D20009383A483B58386839783A087B1878287B3
:101D30009387A487B587EDE9F9E0518340834DECA3
:101D40005CEC6CE47EE34283538364837583868317
:101D50009783A087B18782879387A487B587E3E9B4
:101D6000F9E047E651E05183408344E050E053837B
:101D70004283248315821682EEE8F9E04FE551E0B4
:101D80005183408322832383248327E531E03093EA
:101D90004108209340088093820990938309A0937F
:101DA0008409B09385098093860990938709A0934D
:101DB0008809B093890980938A0990938B09A0932D
:101DC0008C09B0938D090895CF93DF9300D01F92B3
:101DD000CDB7DEB7789484B5826084BD84B5816068
:101DE00084BD85B5826085BD85B5816085BD8091E6
:101DF0006E00816080936E0010928100809181005E
:101E00008260809381008091810081608093810055
:101E10008091800081608093800080919100826039
:101E200080939100809191008160809391008091D6
:101E300090008160809390008091C10084608093C5
:101E4000C1008091C10082608093C1008091C10077
:101E500081608093C1008091C30081608093C30042
:101E60008091C00082608093C0008091C200816038
:101E70008093C20080917A00846080937A00809180
:101E80007A00826080937A0080917A0081608093EA
:101E90007A0080917A00806880937A001092D60749
:101EA00010928D0110928C018091D70081608093F7
:101EB000D70080EA8093D80089B5806189BD89B553
:101EC000826089BD09B400FEFDCF61E070E080E072
:101ED00090E00E94DA028091D8008F7C806180932C
:101EE000D8008091E000807F8093E0008091E10045
:101EF0008E7E8093E1008DE08093E200559A209AD7
:101F00008FEF9FEF9093F0078093EF078AE00E9496
:101F1000F5008BE10E94F50087E00E94F5008BE060
:101F20000E94F500D89A80916B00806480936B00CA
:101F30008091680081608093680083EB99E00E9443
:101F400014088DE999E00E94140883E999E00E9441
:101F5000140880E498E00E9414088EE899E00E943A
:101F6000140890E080E00E94A409823131F481E0FD
:101F700090E00E94A4098433A1F062E190E080E047
:101F80000E94A20964E381E090E00E94A20960E05F
:101F900082E090E00E94A20960E083E090E00E946D
:101FA000A20982E090E00E94A409F82E8093C70164
:101FB00083E090E00E94A4098093C8078F2D0E94BF
:101FC000C0098091C8070E94A6098091A1018111D2
:101FD00045C010929301109292018FEF8093960169
:101FE00080939701809398018093990180939A013F
:101FF00080939B0181E080939C0110929E0110923E
:102000009D0110929501109294018091DD079091AD
:10201000DE07892B31F480E991E09093DE0780930D
:10202000DD07E0918E01F0918F01309721F080E97A
:1020300091E09583848380E991E090938F01809370
:102040008E011092A00110929F018BE291E090937B
:1020500091018093900181E08093A1013F9A88ECE7
:1020600091E0909393018093920180E490E09093AB
:102070009E0180939D018091360890913708A09130
:102080003808B0913908843C29E09207A105B105D0
:1020900020F484EC99E0A0E0B0E0809336089093BF
:1020A0003708A0933808B093390880E991E09093FD
:1020B000AA018093A901809133080E949D0340E00A
:1020C000E42E40E0F42E83EE97E00E949B02181667
:1020D00019060CF059C0E091C807F0E0E75CFE4F2C
:1020E000808180933308D12C38ECE32E31E0F32E3D
:1020F00083EE97E00E949B0218161906CCF783EE38
:1021000097E00E9459028F3FF1F48091A9019091CC
:10211000AA01DC01ED91FC910084F185E02D099587
:102120008017910740F4E091A901F091AA01F38290
:10213000E28216870587809133080E949D0390E014
:1021400010E000E01FC091E09D0DE1E0F0E0EC0F39
:10215000FD1FED0DF11D80839330A1F40115B2E058
:102160001B0778F48B819A81F801EE0FFF1FE00FB7
:10217000F11FE853FE4F29812083918382830F5FF3
:102180001F4F90E0D92EB4CFE091C701F0E0EE0FE1
:10219000FF1FED54FE4F80819181DC01ED91FC9198
:1021A0000190F081E02D68EC71E009958090AF011D
:1021B0009090B001A090B101B090B20120E030E069
:1021C00048E452E4C501B4010E94CB1287FF4EC01F
:1021D0000E9491034090AB015090AC016090AD0122
:1021E0007090AE016419750986099709603171050F
:1021F00081059105D8F10E9491036093AB01709322
:10220000AC018093AD019093AE0120E030E040E856
:102210005FE3C501B4010E945F124B015C01809233
:10222000AF019092B001A092B101B092B201E091E1
:10223000C807F0E0E75CFE4F608170E090E080E06E
:102240000E947A132B013C0120E030E048E452E484
:10225000C501B4010E94D0129B01AC01C301B201BF
:102260000E942A140E944913609333088091330816
:102270000E949D03E114F10409F425CF0E9400009F
:1022800022CF8F929F92AF92BF92CF92DF92EF9226
:10229000FF92CF93DF93EC01688179818A819B81E2
:1022A000611571058105910521F464E279ED8BE5F5
:1022B00097E02DE133EF41E050E00E94FB1149012E
:1022C0005A019B01AC01A7EAB1E40E941A126B010A
:1022D0007C01ACEEB4EFA50194010E942812C60E59
:1022E000D71EE81EF91EF7FE06C081E0C81AD10805
:1022F000E10880E8F80AC882D982EA82FB82C70135
:10230000B6019F77DF91CF91FF90EF90DF90CF9054
:10231000BF90AF909F908F9008958F929F92AF92B1
:10232000BF92CF92DF92EF92FF9260910C01709179
:102330000D0180910E0190910F01611571058105CC
:10234000910521F464E279ED8BE597E02DE133EF1F
:1023500041E050E00E94FB1149015A019B01AC0190
:10236000A7EAB1E40E941A126B017C01ACEEB4EF53
:10237000A50194010E942812C60ED71EE81EF91E60
:10238000F7FE06C081E0C81AD108E10880E8F80A23
:10239000C0920C01D0920D01E0920E01F0920F015B
:1023A000C701B6019F77FF90EF90DF90CF90BF906D
:1023B000AF909F908F90089560930C0170930D01E2
:1023C00080930E0190930F010895F999FECF92BD6D
:1023D00081BDF89A992780B50895262FF999FECFE7
:1023E0001FBA92BD81BD20BD0FB6F894FA9AF99A32
:1023F0000FBE01960895052E97FB1EF400940E94CF
:10240000121257FD07D00E942D1207FC03D04EF484
:102410000C94121250954095309521953F4F4F4F97
:102420005F4F089590958095709561957F4F8F4F80
:102430009F4F08950E944F12A59F900DB49F900D3D
:10244000A49F800D911D11240895B7FF0C941A12BA
:102450000E941A12821B930B0895A1E21A2EAA1B46
:10246000BB1BFD010DC0AA1FBB1FEE1FFF1FA21744
:10247000B307E407F50720F0A21BB30BE40BF50B41
:10248000661F771F881F991F1A9469F760957095CA
:10249000809590959B01AC01BD01CF010895A29F4D
:1024A000B001B39FC001A39F700D811D1124911D28
:1024B000B29F700D811D1124911D08955058BB27A6
:1024C000AA270E9476120C94F0130E94E21338F0AF
:1024D0000E94E91320F039F49F3F19F426F40C947C
:1024E000DF130EF4E095E7FB0C94D913E92F0E945B
:1024F000011458F3BA17620773078407950720F091
:1025000079F4A6F50C9423140EF4E0950B2EBA2F53
:10251000A02D0B01B90190010C01CA01A0011124E9
:10252000FF27591B99F0593F50F4503E68F11A1695
:10253000F040A22F232F342F4427585FF3CF469526
:1025400037952795A795F0405395C9F77EF41F1648
:10255000BA0B620B730B840BBAF09150A1F0FF0F12
:10256000BB1F661F771F881FC2F70EC0BA0F621FFE
:10257000731F841F48F4879577956795B795F795EE
:102580009E3F08F0B0CF9395880F08F09927EE0F83
:102590009795879508950E94B51308F481E00895F2
:1025A0000E94E4120C94F0130E94E91358F00E9468
:1025B000E21340F029F45F3F29F00C94D913511134
:1025C0000C9424140C94DF130E94011468F39923D3
:1025D000B1F3552391F3951B550BBB27AA2762171F
:1025E0007307840738F09F5F5F4F220F331F441F2C
:1025F000AA1FA9F335D00E2E3AF0E0E832D0915060
:102600005040E695001CCAF72BD0FE2F29D0660F4C
:10261000771F881FBB1F261737074807AB07B0E88F
:1026200009F0BB0B802DBF01FF2793585F4F3AF095
:102630009E3F510578F00C94D9130C9424145F3FFD
:10264000E4F3983ED4F3869577956795B795F7951B
:102650009F5FC9F7880F911D9695879597F9089503
:10266000E1E0660F771F881FBB1F6217730784079F
:10267000BA0720F0621B730B840BBA0BEE1F88F7AE
:10268000E09508950E9449136894B1110C942414A4
:1026900008950E94091488F09F5798F0B92F992740
:1026A000B751B0F0E1F0660F771F881F991F1AF03D
:1026B000BA95C9F714C0B13091F00E942314B1E06B
:1026C00008950C942314672F782F8827B85F39F06A
:1026D000B93FCCF3869577956795B395D9F73EF4D6
:1026E00090958095709561957F4F8F4F9F4F08957E
:1026F000E89409C097FB3EF490958095709561959C
:102700007F4F8F4F9F4F9923A9F0F92F96E9BB2751
:102710009395F695879577956795B795F111F8CFCD
:10272000FAF4BB0F11F460FF1BC06F5F7F4F8F4F38
:102730009F4F16C0882311F096E911C0772321F02E
:102740009EE8872F762F05C0662371F096E8862FC6
:1027500070E060E02AF09A95660F771F881FDAF71D
:10276000880F9695879597F90895990F0008550F4A
:10277000AA0BE0E8FEEF16161706E807F907C0F007
:1027800012161306E407F50798F0621B730B840B0F
:10279000950B39F40A2661F0232B242B252B21F4E9
:1027A00008950A2609F4A140A6958FEF811D811D89
:1027B000089597F99F6780E870E060E008959FEFC3
:1027C00080EC089500240A941616170618060906C8
:1027D000089500240A941216130614060506089597
:1027E000092E0394000C11F4882352F0BB0F40F41F
:1027F000BF2B11F460FF04C06F5F7F4F8F4F9F4F5F
:10280000089557FD9058440F551F59F05F3F71F0E0
:102810004795880F97FB991F61F09F3F79F0879547
:102820000895121613061406551FF2CF4695F1DFD0
:1028300008C0161617061806991FF1CF8695710560
:10284000610508940895E894BB2766277727CB0194
:1028500097F908950E943D140C94F0130E94E2131E
:1028600038F00E94E91320F0952311F00C94D9134D
:102870000C94DF1311240C9424140E94011470F39F
:10288000959FC1F3950F50E0551F629FF001729F15
:10289000BB27F00DB11D639FAA27F00DB11DAA1F24
:1028A000649F6627B00DA11D661F829F2227B00D71
:1028B000A11D621F739FB00DA11D621F839FA00DFC
:1028C000611D221F749F3327A00D611D231F849F4C
:1028D000600D211D822F762F6A2F11249F575040A3
:1028E0009AF0F1F088234AF0EE0FFF1FBB1F661F1E
:1028F000771F881F91505040A9F79E3F510580F0E7
:102900000C94D9130C9424145F3FE4F3983ED4F351
:10291000869577956795B795F795E7959F5FC1F78A
:10292000FE2B880F911D9695879597F908959F9393
:102930000E94A1140F9007FCEE5F0C94CA140C9433
:10294000DF130E940914D8F3E894E0E0BB279F57F7
:10295000F0F02AED3FE049EC06C0EE0FBB0F661F1A
:10296000771F881F28F0B23A62077307840728F0A0
:10297000B25A620B730B840BE3959A9572F7803809
:1029800030F49A95BB0F661F771F881FD2F79048C7
:102990000C94E014EF93E0FF07C0A2EA2AED3FE0B9
:1029A00049EC5FEB0E9476120E94F0130F900394A3
:1029B00001FC9058ECEAF0E00C94EC149F3F31F0ED
:1029C000915020F4879577956795B795880F911D5D
:1029D0009695879597F908959F938F937F936F931B
:1029E000FF93EF939B01AC010E942A14EF91FF919A
:1029F0000E9400152F913F914F915F910C942A14E2
:102A0000DF93CF931F930F93FF92EF92DF927B019F
:102A10008C01689406C0DA2EEF010E943D14FE017D
:102A2000E894A5912591359145915591A6F3EF0133
:102A30000E947612FE019701A801DA9469F7DF90EF
:102A4000EF90FF900F911F91CF91DF910895DB01DF
:102A50008F939F930E941A12BF91AF91A29F800DF6
:102A6000911DA39F900DB29F900D11240895991B65
:102A700079E004C0991F961708F0961B881F7A9575
:102A8000C9F78095089597FB072E16F4009407D098
:102A900077FD09D00E945E1507FC05D03EF49095A5
:102AA00081959F4F0895709561957F4F08950E947D
:102AB0004F12B7FF0895821B930B0895AA1BBB1BEF
:102AC00051E107C0AA1FBB1FA617B70710F0A61B2E
:102AD000B70B881F991F5A95A9F780959095BC014F
:102AE000CD010895EE0FFF1F0590F491E02D09949C
:0E2AF00081E090E0F8940C947D15F894FFCFEF
:102AFE00FFFFFFFF00E100000000000001000000EA
:102B0E0000C18081000000000000006C086C086CA1
:102B1E00082C082808250800000000D1078D078B17
:102B2E00072C0828086C0138055D46280F070F286A
:102B3E00460000000034020C0355024A029B025963
:102B4E00027702000000008A088B09000000004D89
:102B5E0008630800000000AE04F30400000000F754
:042B6E0009640800EE
:00000001FF
