:100000000C94CB000C94F3000C94F3000C94F300CC
:100010000C94F3000C94F3000C94F3000C94F30094
:100020000C94F3000C94A20E0C945D0B0C94CC0B6E
:100030000C94F3000C94F3000C94F3000C94F30074
:100040000C94F3000C94F3000C94F3000C94F30064
:100050000C94F3000C94F3000C94F3000C94FE0D3C
:100060000C94F3000C94F3000C94F3000C94F30044
:100070000C94F3000C94F3000C94F3000C94F30034
:100080000C94F3000C94F3000C94F3000C94F30024
:100090000C94F3000C94F3000C94F3000C94F30014
:1000A0000C94F3000C94480E0C94F30005A84CCD6E
:1000B000B2D44EB93836A9020C50B9918688083CA2
:1000C000A6AAAA2ABE000000803F080B0002020276
:1000D00000000904000001020200000524001001D4
:1000E0000524010101042402060524060001070578
:1000F000810310004009040100020A000000070506
:1001000002024000000705830240000004030904C6
:1001100012010002EF020140501D5E600001010269
:100120000301426C696E6B696E6C61627300426CB4
:10013000696E6B795461706500000000002500282D
:10014000002B002E00310000000000240027002AB0
:10015000002D00300004040404040304050202021C
:100160000204030202020206060606060604040250
:100170000202040404080201104080401020408064
:1001800040800802040180402010020110801020ED
:1001900040402000E50E11241FBECFEFDAE0DEBFA5
:1001A000CDBF11E0A0E0B1E0ECE2FCE202C00590BE
:1001B0000D92A038B107D9F729E0A0E8B1E001C05D
:1001C0001D92AB3DB207E1F710E0CBECD0E004C0EC
:1001D0002197FE010E940916CA3CD107C9F70E9467
:1001E0006B0F0C9414160C940000CF93DF9390E0E7
:1001F000FC01EC58FE4F24918B5A9E4FFC018491D8
:100200008823C1F090E0880F991FFC01E95BFE4F45
:10021000C591D491FC01E75CFE4FA591B4919FB7C5
:10022000F8943881822F809583238883EC91E22B88
:10023000EC939FBFDF91CF910895FC018091E80777
:10024000882311F13FB7F89482E08093E900209170
:10025000F200822F90E01816190614F481E090E065
:10026000882339F0289844E64093E7074091F1004D
:100270004083222339F02091F200211103C02BE6A4
:100280002093E8003FBF08958FEF9FEF08952FB7A9
:10029000F89483E08093E9009091E800892F8072C0
:1002A00095FF04C09091F20080E4891B2FBF089550
:1002B0008091DF0781110DC082E08093DB0784E02D
:1002C0008093DC071092DE071092DD0781E08093B7
:1002D000DF078BED97E0089580E991E00895409164
:1002E0009401509195012091920130919301421710
:1002F0005307B4F49091E8009570E1F39091E80011
:1003000092FD19C08093F100809194019091950124
:1003100001968F739927892B19F48EEF8093E8004B
:10032000809194019091950101969093950180930D
:10033000940181E0089580E00895EF92FF920F9379
:100340001F93CF93DF93F82E192FE62E042F81E011
:10035000860F880F0E946F0183E00E946F01CF2DEE
:10036000D12FEC0EFD2EF11CCE15DF05B9F007FFE5
:1003700013C0FE0184910E946F01182F80E00E943B
:100380006F01812321968111EFCFDF91CF911F91D2
:100390000F91FF90EF9008958881EDCF81E0F5CF28
:1003A000DF92EF92FF920F931F93CF93DF93D82E9C
:1003B0008A01EB017B01E40EF51ECE15DF0559F035
:1003C000D7FE12C0FE0184910E946F012196811117
:1003D000F4CF0FEF1FEFC801DF91CF911F910F9165
:1003E000FF90EF90DF9008958881EECF0F931F93D9
:1003F000CF93DF931F92CDB7DEB782E0898342E4CB
:1004000050E06AEC70E080E80E94D0010E94580140
:10041000DC0112960D911C910115110589F0D8018E
:10042000ED91FC910280F381E02DBE016F5F7F4F63
:10043000C801099597FD04C0F80100851185ECCF2E
:1004400089810F90DF91CF911F910F910895615095
:1004500030F02091F100FC0120830196F8CF28981C
:1004600084E68093E7070895CF93DF931F92CDB77B
:10047000DEB76983DC01ED91FC910280F381E02D10
:1004800041E050E0BE016F5F7F4F09950F90DF9113
:10049000CF91089583E08093E9008091F200882352
:1004A00019F08AE38093E80008950E94470190E0E4
:1004B0000895CF93DF931F92CDB7DEB7FC018485FB
:1004C000958597FD08C02FEF3FEF358724870F9064
:1004D000DF91CF910895CE0101960E941D010197F1
:1004E00019F4898190E0F3CF8FEF9FEFF0CF0F9356
:1004F0001F93CF93DF931F92CDB7DEB78C01FC0122
:100500008485958597FF0BC0CE0101960E941D0141
:10051000019771F4898190E0F80195878487F8014B
:10052000848595850F90DF91CF911F910F9108954C
:100530008FEF9FEFF1CFFC018485958597FD0BC070
:100540009FB7F89482E08093E9008091F2009FBF0A
:1005500090E0019608959FB7F89482E08093E900B7
:100560008091F2009FBF90E008953FB7F89480918A
:100570008E0190918F01A0919001B091910126B5CB
:10058000A89B05C02F3F19F00196A11DB11D3FBFCB
:10059000BA2FA92F982F8827BC01CD01620F711D9A
:1005A000811D911D42E0660F771F881F991F4A9594
:1005B000D1F708958F929F92AF92BF92CF92DF9220
:1005C000EF92FF924B015C010E94B5026B017C012E
:1005D0000E94B5026C197D098E099F09683E73401F
:1005E00081059105A8F321E0821A9108A108B108BC
:1005F00088EEC80E83E0D81EE11CF11C8114910422
:10060000A104B10429F7FF90EF90DF90CF90BF9045
:10061000AF909F908F9008958F929F92AF92BF92CC
:10062000CF92DF92EF92FF920F931F93CF93DF93BE
:100630006C017B018A0180910B01882309F45CC065
:100640008091E807882309F457C08091980180FFC2
:1006500005C08091E00082608093E000E801B12C49
:100660008AEFA82E93E0892E2AE3922E209711F488
:10067000BB20D9F10E94470181110AC0AA94AA2087
:10068000D9F161E070E080E090E00E94DA02EECF04
:100690008C171D0611F00CF08C2F9FB7F8948092E8
:1006A000E9002091E80025FD02C09FBFDFCF282F81
:1006B00030E0C21BD30BF701815020F041914093F1
:1006C000F100FACFE20EF31EBB2021F09092E80079
:1006D000B12CEBCF8091E80085FDE7CF9092E80048
:1006E000BB24B394209709F3F3CF5D9884E68093FD
:1006F0009701101611063CF081E090E0F60193831B
:10070000828310E000E0C801DF91CF911F910F912B
:10071000FF90EF90DF90CF90BF90AF909F908F9021
:1007200008952FB7F89460918A0170918B018091A0
:100730008C0190918D012FBF08952F923F924F927F
:100740005F926F927F928F929F92AF92BF92CF9261
:10075000DF92EF92FF920F931F93CF93DF93CDB76A
:10076000DEB7C558D1090FB6F894DEBF0FBECDBFB6
:10077000B82E8091480890914908A0914A08B091FC
:100780004B08892B8A2B8B2BD9F00E94B502009144
:10079000F1071091F2072091F3073091F407601BE5
:1007A000710B820B930B009148081091490820911E
:1007B0004A0830914B086017710782079307C8F207
:1007C0000E94B5026093F1077093F2078093F307DC
:1007D0009093F407E0915008F0915108309759F048
:1007E00040914C0850914D0860914E0870914F080F
:1007F0008B2D0995B82EFE01319680E8DF011D9200
:100800008A95E9F7E090EF07F090F0074F016E014D
:10081000B1E8CB0ED11C1F014B2C512C712C612C3B
:10082000E114F10409F476C02C143D0409F472C0FB
:10083000D701ED91FC910484F585E02DC701099560
:10084000F101819391931F0180914608909147088F
:100850008436910518F4D7011C961C92D701ED91AE
:10086000FC9182819381CC57DF4F99838883C45850
:10087000D040D6011C9211961C92119712961C9290
:10088000BB2079F187010A5F1F4FF0E0E0E0D8015B
:100890002D918D01222309F11296AC90AA20E9F046
:1008A00030E050E040E02F5F3F4F4F4F5F4FC301BC
:1008B000B2010E94BE159B01AC018A2D90E0B0E010
:1008C000A0E0BC01CD016F5F7F4F8F4F9F4F0E9413
:1008D000BE15D601AE0FBF1F8C933196E330F105E4
:1008E000B1F6F601008111812281D7011D964D914B
:1008F0005C911E9712966D917C91C701CC57DF4F8A
:10090000E881F981C458D0400995D7011496ED903B
:10091000FC9086CF0091EF071091F00701151105AB
:1009200099F08C149D0481F0F401619171914F0153
:10093000D801ED91FC910684F785E02DC801099559
:10094000F80104811581EACF8091ED079091EE07BF
:100950008C010F5F1F4F1093EE070093ED0749972F
:10096000B4F10E949103C090E907D090EA07E090AB
:10097000EB07F090EC079B01AC012C193D094E09E7
:100980005F0921F421E030E040E050E088EE93E0A0
:10099000089FB001099F700D189F700D1124072E3C
:1009A000000C880B990B0E94C412309347082093C7
:1009B00046081092EE071092ED070E949103609393
:1009C000E9077093EA078093EB079093EC07CB5706
:1009D000DF4F0FB6F894DEBF0FBECDBFDF91CF91D2
:1009E0001F910F91FF90EF90DF90CF90BF90AF904D
:1009F0009F908F907F906F905F904F903F902F903F
:100A00000895FC01DB0190E080E0278130858217AA
:100A1000930770F142815381240F351F821793078A
:100A200038F52481358146812D933D934C9312975F
:100A3000019613968034910541F787819085218531
:100A400021111EC0019690878783278130854281BE
:100A5000538180E490E0841B950B8217930790F4F8
:100A600081E081876EE170E080E090E00C94DA0232
:100A70001C9211961C92119712961C921297D8CF25
:100A80000197E1CF232B71F71186ECCF22E030E004
:100A9000FC013087278321E0218708950F931F935E
:100AA000CF93DF93209188012F5F322F37703093DF
:100AB000880120FF2BC020E831FD2064347009F04C
:100AC0002062205FFC01EC01239600E011E06485C8
:100AD000662329F070E0C8010E94DA156F5F618714
:100AE000822F869F080E80E0811D1124811110C085
:100AF0001682662311F0615061873196EC17FD076D
:100B000031F7DF91CF911F910F91089520E0D4CF5D
:100B100081508683EECF4F925F927F928F929F9209
:100B2000AF92BF92CF92DF92EF92FF920F931F93FB
:100B3000CF93DF932C01EB010E94B502F2012589CE
:100B40003689621B730B6A307105B0F3F8948A81A1
:100B50009B81181619060CF0CDC1E881F98168B1A6
:100B6000862E689487F838B13F7738B9DA848F8158
:100B70002D2D281B822F2F834F85042E000C550B03
:100B8000AA81BB817D85FC84EE847F5FF394E3942E
:100B90009E819884B984AB841181C12C6C2D0C2D5D
:100BA0002C2D2181112788942111280F08F42FEF73
:100BB0008195889470FD120F1795889471FD120F1E
:100BC0001795889472FD120F1795889473FD120F74
:100BD0001795889474FD120F1795889475FD120F60
:100BE0001795889476FD120F1795889477FD120F4C
:100BF00017958894622F7111612F8D0D162F002C7F
:100C000088B800C000C017FF38B9208166278894D3
:100C100000C0002C38B92111290F00C0002C88B861
:100C200000C000C016FF38B908F42FEF91958894E2
:100C300000C0002C38B9F0FC620F00C0002C88B84E
:100C400000C000C015FF38B967958894F1FC620FA9
:100C500000C0002C38B96795889400C0002C88B873
:100C600000C000C014FF38B9F2FC620F6795889489
:100C700000C0002C38B9F3FC620F00C0002C88B80B
:100C800000C000C013FF38B967958894F4FC620F68
:100C900000C0002C38B96795889400C0002C88B833
:100CA00000C000C012FF38B9F5FC620F6795889448
:100CB00000C0002C38B9F6FC620F00C0002C88B8C8
:100CC00000C000C011FF38B967958894F7FC620F27
:100CD00000C0002C38B96795889400C0002C88B8F3
:100CE00000C000C010FF38B9122FF110162F9B0D55
:100CF00000C0002C38B900C000C0002C88B800C06B
:100D000000C017FF38B922816627889400C0002CE4
:100D100038B92111290D00C0002C88B800C000C0CE
:100D200016FF38B908F42FEFE40FF51F00C0002CB0
:100D300038B9E0FC620F00C0002C88B800C000C0C9
:100D400015FF38B967958894E1FC620F00C0002C4C
:100D500038B96795889400C0002C88B800C000C0DE
:100D600014FF38B9E2FC620F6795889400C0002C2C
:100D700038B9E3FC620F00C0002C88B800C000C086
:100D800013FF38B967958894E4FC620F00C0002C0B
:100D900038B96795889400C0002C88B800C000C09E
:100DA00012FF38B9E5FC620F6795889400C0002CEB
:100DB00038B9E6FC620F00C0002C88B800C000C043
:100DC00011FF38B967958894E7FC620F00C0002CCA
:100DD00038B96795889400C0002C88B800C000C05E
:100DE00010FF38B9122FE110162F919400C0002C7B
:100DF00038B99A0C00C000C088B800C000C017FF06
:100E000038B921816627889400C0002C38B9211197
:100E1000280F00C0002C88B800C000C016FF38B9E9
:100E200008F42FEF8195889400C0002C38B970FD2C
:100E3000620F00C0002C88B800C000C015FF38B990
:100E40006795889471FD620F00C0002C38B96795D2
:100E5000889400C0002C88B800C000C014FF38B9C6
:100E600072FD620F6795889400C0002C38B973FD3D
:100E7000620F00C0002C88B800C000C013FF38B952
:100E80006795889474FD620F00C0002C38B967958F
:100E9000889400C0002C88B800C000C012FF38B988
:100EA00075FD620F6795889400C0002C38B976FDF7
:100EB000620F00C0002C88B800C000C011FF38B914
:100EC0006795889477FD620F00C0002C38B967954C
:100ED000889400C0002C88B800C000C010FF38B94A
:100EE000122F7111162F8D0D00C0002C38B91197DB
:100EF00009F086CE4A815B8120EE31E0DA010E9462
:100F0000EE15DC01CB01F4E0B695A7959795879592
:100F1000FA95D1F730E020E0B901EAE94E9F040EDE
:100F2000611D5E9F600D711D1124650F711D860F7F
:100F3000971FA11DB11D893E43E09407A105B1058E
:100F400008F434C0885E9340A109B10942E0B69527
:100F5000A795979587954A95D1F747E0849F080E06
:100F6000211D949F200D311D1124290F311D6091E9
:100F7000870170E0860F971F820F931F40918A01AF
:100F800050918B0160918C0170918D01292F332735
:100F9000420F531F611D711D40938A0150938B01B5
:100FA00060938C0170938D018093870178940E94E7
:100FB000B502F201768B658BDF91CF911F910F9176
:100FC000FF90EF90DF90CF90BF90AF909F908F9069
:100FD0007F905F904F90089581E090E008953F9A50
:100FE00008956F927F928F92CF92DF92EF92FF924D
:100FF0000F931F93CF93DF93CDB7DEB762970FB6F2
:10100000F894DEBF0FBECDBF6C017A013801822E8D
:10101000DC011C962C91CA0157FF04C08827992730
:10102000841B950B7A8369839C838B839E838D833A
:101030006D867E868F86213049F5CE0101960E940D
:101040004E0583E0888B1A8A198AF7FE02C08DEF5D
:10105000888BD601ED91FC910288F389E02DBE01C9
:101060006F5F7F4FC601099562960FB6F894DEBF99
:101070000FBECDBFDF91CF911F910F91FF90EF90E9
:10108000DF90CF908F907F906F9008951C861B8685
:101090001A86198618861F82D4CFEF92FF920F937B
:1010A0001F93CF93DF93CDB7DEB762970FB6F89457
:1010B000DEBF0FBECDBF7C01DC011C968C917A8314
:1010C00069835C834B835E834D830D871E872F87E7
:1010D0008130F9F4CE0101960E944E05188A1A8AD1
:1010E000198AD701ED91FC910288F389E02DBE01A8
:1010F0006F5F7F4FC701099562960FB6F894DEBF08
:101100000FBECDBFDF91CF911F910F91FF90EF9058
:1011100008951C861B861A86198618861F82DECFC4
:101120009C01909180019A3058F4E92FF0E0EE0F85
:10113000FF1FEB53FE4F318320839F5F909380010D
:10114000089590E080E00895FC0164870895FC0113
:10115000848590E00895FC018585968508950F9318
:101160001F93CF93DF9300D01F92CDB7DEB7AB01B3
:1011700019821A821B82DC01ED91FC910190F081B1
:10118000E02D00E010E020E0BE016F5F7F4F099589
:101190000F900F900F90DF91CF911F910F910895B5
:1011A000CF92DF92EF929B0120543F4FFC01C2800F
:1011B000D380E480FB01C192D192E192BF01E2179A
:1011C000F307A1F7EF90DF90CF9008950895FC0109
:1011D00017861686118A108A138A128A08950E9429
:1011E0000F16CF93DF93EC011B821A820E94241208
:1011F0002FEF30E040E050E00E94921268830E949E
:1012000024122FE330E040E050E00E9492126C8301
:1012100081E08983DF91CF9108952F923F924F9281
:101220005F926F927F928F929F92AF92BF92CF9276
:10123000DF92EF92FF920F931F93CF93DF93EC0116
:101240007B011C0180EC281A8EEF380A6E01EEEB50
:10125000CE1AEEEFDE0A5E01FAEBAF1AFEEFBF0A1E
:101260004E0186EB881A8EEF980A0C811D818B81C6
:10127000813009F0BBC06A8170E0C80117FD039698
:101280009595879595958795861797070CF0ACC02F
:10129000072E000C880B990B0E94111420E030E0FF
:1012A0004FE753E40E9467132B013C0129E939E918
:1012B00049E95DE30E94C114A30192010E94C11497
:1012C000A30192010E94C114A30192010E94C114C2
:1012D00020E030E04FE753E40E94C11420E030E00A
:1012E00040EA50E40E94F6120E94D913660F771F5D
:1012F000660F771F600F711F6115E4E07E070CF029
:1013000070C07D836C836C817D8177FF02C06D5FCF
:101310007F4F759567957595679570E090E080E0D3
:101320000E941114F60120813181428153810E9473
:10133000C1140E94E013F70160836C817D8177FF07
:1013400002C06D5F7F4F759567957595679570E0E5
:1013500090E080E00E941114F501208131814281EA
:1013600053810E94C1140E94E013F70161836C81D4
:101370007D8177FF02C06D5F7F4F7595679575958D
:10138000679570E090E080E00E941114F4012081E4
:101390003181428153810E94C1140E94E013F70100
:1013A00062832596F3E0EF0EF11C2C163D0609F042
:1013B0005CCF6EE170E080E090E0DF91CF911F9113
:1013C0000F91FF90EF90DF90CF90BF90AF909F90E4
:1013D0008F907F906F905F904F903F902F900C94E4
:1013E000DA026C5F73408DCF1B828DCF0430110504
:1013F00054F00451110917FD03C01D830C8383CFE2
:101400001D821C8280CF8E81811104C0CE01029684
:101410000E94F1088E8181508E8375CF0F931F93A8
:10142000CF93DF938C010E5F1F4FEC01CE5BDE4F3D
:10143000C8010E94F1080B5F1F4F0C171D07C1F771
:10144000DF91CF911F910F9108950C9484120C9409
:101450007C12CF93C82FC770C093DA0783E090E067
:101460000E94270AC81729F06C2F83E090E00E94A1
:10147000250AE091DA07F0E0EB5BFE4F8081809374
:101480004508CF910895CF93609180010E94CE15B9
:10149000C92F9093D90182E090E00E94270AC817D3
:1014A00029F06C2F82E090E00E94250AE091D9019A
:1014B000F0E0EE0FFF1FEB53FE4F80819181DC01C6
:1014C000ED91FC910280F381E02D09950E9491033A
:1014D0006093BD017093BE018093BF019093C001E2
:1014E0001092C1011092C2011092C3011092C40166
:1014F000CF9108954F925F926F927F928F929F92B9
:10150000AF92BF92EF92FF920F931F93CF93DF930F
:10151000EC018B01F12CE12CB70190E080E00E94FE
:101520000F144B015C016E857F85072E000C880B24
:10153000990B0E94111420E030E040E85EE30E9425
:10154000C1142B013C0120E030E040E05FE3C50125
:10155000B4010E94C1149B01AC01C301B2010E94FD
:10156000F6120E942E1520E030E040E85FE30E9472
:10157000F61220E030E040E852E40E94C1142A81D3
:101580003B814C815D810E94C1140E94E013F801EF
:10159000608368897989072E000C880B990B0E945B
:1015A000111420E030E040E151E40E946713A501EE
:1015B00094010E94F61226E636E646E050E40E94C8
:1015C000F6120E942E1520E030E040E85FE30E9412
:1015D000F61220E030E040E852E40E94C1142E816F
:1015E0003F81488559850E94C1140E94E013F8018B
:1015F00061836A897B89072E000C880B990B0E94F6
:10160000111420E030E040E651E40E9467132B0102
:101610003C0120E030E040E450E4C501B4010E9408
:1016200067139B01AC01C301B2010E94F61226E6CA
:1016300036E646E850E40E94F6120E942E1520E09D
:1016400030E040E85FE30E94F61220E030E040E83E
:1016500052E40E94C1142A853B854C855D850E9419
:10166000C1140E94E013F8016283FFEFEF1AFF0A32
:101670000D5F1F4F80E4E816F10409F04DCF8E8511
:101680009F8501969F878E87888999890196998B76
:10169000888B8A899B8902969B8B8A8BDF91CF915D
:1016A0001F910F91FF90EF90BF90AF909F908F9000
:1016B0007F906F905F904F9008951F920F920FB69A
:1016C0000F9211248F939F938091E1009091E100FC
:1016D000937F9093E10083FF0FC01092E90091E0A7
:1016E0009093EB001092EC0092E39093ED00109237
:1016F000E80798E09093F00082FF22C093E0909377
:10170000E9009091F200992319F09AE39093E80090
:1017100090919701992341F0909197019150909366
:101720009701911101C05D9A9091E707992341F0CB
:101730009091E70791509093E707911101C0289A83
:1017400084FF18C08091E2008E7E81608093E20069
:101750008091E1008F7E8093E100809198018E7EE0
:101760008061809398019F918F910F900FBE0F9091
:101770001F90189580FFF7CF8091E2008E7E8061E8
:101780008093E2008091E1008E7E8093E100809161
:1017900098018E7E8160E5CF1F920F920FB60F9257
:1017A0001124CF92DF92EF92FF920F931F932F930A
:1017B0003F934F935F936F937F938F939F93AF93D9
:1017C000BF93EF93FF93CF93DF93CDB7DEB76C97C3
:1017D000DEBFCDBF1092E9008091E80083FF25C0F5
:1017E00068E0CE0145960E94270282EF8093E800D0
:1017F0008D8987FF39C09091E80090FFFCCF982F2A
:10180000907609F034C19E894F89588D2F89F88CC4
:10181000911131C0803861F5809199018093F10078
:101820001092F1008EEF8093E8006C960FB6F8945A
:10183000DEBF0FBECDBFDF91CF91FF91EF91BF9182
:10184000AF919F918F917F916F915F914F913F9158
:101850002F911F910F91FF90EF90DF90CF900F90FD
:101860000FBE0F901F9018959EEF9093E800C7CF82
:101870001092F100D5CF913059F48111D3CF41307E
:10188000510581F6809199018D7F80939901CACF8E
:10189000933049F48111C6CF4130510519F680913A
:1018A00099018260F2CF953041F48091E80080FF89
:1018B000FCCF20682093E300B5CF963009F0A9C093
:1018C0000B8D1C8D22E01092E90010929501109270
:1018D0009401F2122EC010929301109292010E9474
:1018E000F6011F8299E09983FA8291E09E8390EA43
:1018F00098879AEF99872091940130919501275FFD
:101900003F4F3C832B838D831092E9001092950109
:1019100010929401109393010093920149E050E0DA
:10192000BE016F5F7F4F80E00E94D0010E94F601F0
:1019300079CF10939301009392010E945801DC012A
:1019400012960D911C910115110509F451C1D80190
:10195000ED91FC910480F581E02DBE016B5E7F4F1F
:10196000C8010995009709F03EC1F801008511856D
:10197000EACFF3E0FF120EC08F89882309F440C03C
:10198000823061F440E86AE08EE291E00E949D01BD
:10199000811148CF81E28093EB0047CF813029F459
:1019A00040E86BE082E291E0F1CF833099F70E944A
:1019B0005801DC011296ED90FC908E010F5F1F4FD5
:1019C0006801E114F10479F0D701ED91FC910680F2
:1019D000F781E02DB801C7010995080F111DF70126
:1019E000E084F184EECFD8011C92F6010190002032
:1019F000E9F73197BF016C197D0940E0C601C6CFF8
:101A00006CE071E0FB01449150E080E80E94D0015D
:101A100009CF973009F4BECF983021F481E080934C
:101A2000F10000CF993009F0FDCE837009F0B2CFFC
:101A3000E1E1F1E081E031E096E32191222371F0D0
:101A40008093E9003093EB00DF0111972C912093F4
:101A5000EC009093ED008F5F873079F78EE78093ED
:101A6000EA001092EA008F898093E807DBCE8B8D25
:101A70009C8D1092E9001092950110929401909320
:101A8000930180939201898D811192C08E899D89E5
:101A9000913A49F4813209F07DCF47E050E064E0AB
:101AA00071E080E0B3CF913209F074CF833269F4F2
:101AB0008F89988DB0E0A0E08093000190930101A0
:101AC000A0930201B0930301ADCE803269F48091FE
:101AD000E80082FFFCCF67E084E091E00E942702EB
:101AE0008BEF8093E8009ECE823209F09BCE8F89E7
:101AF00080930B01EEEFFFE7859194918B3F9C4D16
:101B000051F1E0E0F8E08091040190910501A0918D
:101B10000601B0910701803B9440A105B105F1F4A5
:101B200080910B0180FD1AC0EE3F8AE0F80789F52D
:101B300087E797E791838083809160008093960187
:101B400088E19BE00FB6F894A895809360000FBEE3
:101B50009093600067CEEEEFFAE0D5CF808191815F
:101B60008737974709F05ECEA8958091600088611D
:101B7000809360008091960180936000EE3F2AE0A0
:101B8000F20789F08091FE0A9091FF0A9183808389
:101B900049CE808191818737980751F29093FF0A4F
:101BA0008093FE0AC5CF1092FF0A1092FE0A3ACE29
:101BB0000E945801DC0112960D911C91011511052E
:101BC00009F4E8CED801ED91FC910190F081E02D6F
:101BD000BE016B5E7F4FC8010995811123CEF801CC
:101BE00000851185EBCF181619060CF41BCED2CE4A
:101BF000F1E0FF12BECE60E171E004CF1F920F92C0
:101C00000FB60F9211242F933F938F939F93AF930F
:101C1000BF9380918A0190918B01A0918C01B0912A
:101C20008D013091890123E0230F2D3758F501965E
:101C3000A11DB11D2093890180938A0190938B018E
:101C4000A0938C01B0938D0180918E0190918F01B2
:101C5000A0919001B09191010196A11DB11D8093B9
:101C60008E0190938F01A0939001B0939101BF9149
:101C7000AF919F918F913F912F910F900FBE0F9039
:101C80001F90189526E8230F0296A11DB11DD2CFF3
:101C90001F920F920FB60F9211240F931F932F9341
:101CA0003F934F935F936F937F938F939F93AF93E4
:101CB000BF93EF93FF938091860181110AC081E069
:101CC000809386018091DA07809385018F5F0E945F
:101CD000290A0E94910300918101109182012091B3
:101CE000830130918401601B710B820B930B693E61
:101CF0007340810591059CF0809185010E94290A1D
:101D00008091D9018F5F0E94430A0E9491036093E2
:101D10008101709382018093830190938401FF91EC
:101D2000EF91BF91AF919F918F917F916F915F9153
:101D30004F913F912F911F910F910F900FBE0F90D8
:101D40001F9018951F920F920FB60F9211242F9388
:101D50003F934F935F936F937F938F939F93AF9333
:101D6000BF93EF93FF931E992DC00E949103609340
:101D7000810170938201809383019093840110927A
:101D800086018FE08093C10083E08093C30080E1EF
:101D90008093D1001092BF001092BE0084E0809327
:101DA0007200FF91EF91BF91AF919F918F917F91C1
:101DB0006F915F914F913F912F910F900FBE0F90B8
:101DC0001F90189510927200ECCFE5EFF7E01382A8
:101DD000128288EE93E0A0E0B0E084839583A6832E
:101DE000B78381E591E0918380838FEF9FEF9587A3
:101DF0008487E5E4F8E02FEF2083128211821486B5
:101E000013868FEF9FEFDC0187839087A187B287CE
:101E10001382148215821682E5ECF9E04BE751E05B
:101E20005183408380E090E0A0E8BFE38283938306
:101E3000A483B58386839783A087B187828793879E
:101E4000A487B587EFEAF9E0518340834DEC5CEC61
:101E50006CE47EE342835383648375838683978334
:101E6000A087B18782879387A487B587E5EAF9E0E1
:101E700043E751E05183408344E050E05383428381
:101E8000248315821682E0EAF9E04BE651E05183A3
:101E9000408322832383248323E631E03093530855
:101EA000209352088093940990939509A0939609E2
:101EB000B09397098093980990939909A0939A09F0
:101EC000B0939B0980939C0990939D09A0939E09D0
:101ED000B0939F090895CF93DF9300D01F92CDB7A1
:101EE000DEB7789484B5826084BD84B5816084BD9A
:101EF00085B5826085BD85B5816085BD80916E00A8
:101F0000816080936E0010928100809181008260D8
:101F10008093810080918100816080938100809115
:101F20008000816080938000809191008260809326
:101F30009100809191008160809391008091900048
:101F40008160809390008091C10084608093C10083
:101F50008091C10082608093C1008091C100816046
:101F60008093C1008091C30081608093C300809101
:101F7000C00082608093C0008091C2008160809325
:101F8000C20080917A00846080937A0080917A0008
:101F9000826080937A0080917A00816080937A00D9
:101FA00080917A00806880937A001092E8071092FE
:101FB0009901109298018091D70081608093D70099
:101FC00080EA8093D80089B5806189BD89B5826037
:101FD00089BD09B400FEFDCF61E070E080E090E0D3
:101FE0000E94DA028091D8008F7C80618093D800B3
:101FF0008091E000807F8093E0008091E1008E7E00
:102000008093E1008DE08093E200559A209A8FEF53
:102010009FEF90930208809301088AE00E94F500E8
:102020008BE10E94F50087E00E94F5008BE00E94A2
:10203000F500D89A80916B00806480936B0080914A
:10204000680081608093680085EC99E00E949008A8
:102050008FEA99E00E94900885EA99E00E94900832
:1020600082E598E00E94900880EA99E00E9490083A
:1020700090E080E00E94270A823131F481E090E014
:102080000E94270A8433A1F062E190E080E00E9480
:10209000250A64E381E090E00E94250A60E082E086
:1020A00090E00E94250A60E083E090E00E94250A0B
:1020B00082E090E00E94270AF82E8093D90183E005
:1020C00090E00E94270A8093DA078F2D0E94430A2E
:1020D0008091DA070E94290A8091B301811155C0CD
:1020E00010929F0110929E018FEF8093A201809326
:1020F000A3018093A4018093A5018093A6018093FE
:10210000A70181E08093A8011092AA011092A90171
:1021100080E797E19093AC018093AB0183E090E07E
:102120009093AE018093AD011092B0011092AF0177
:102130001092A1011092A0018091EF079091F007F9
:10214000892B31F48CE991E09093F0078093EF07AD
:10215000E0919A01F0919B01309721F08CE991E098
:10216000958384838CE991E090939B0180939A01FD
:102170001092B2011092B10181E391E090939D0120
:1021800080939C0181E08093B3013F9A8AED91E0B6
:1021900090939F0180939E0180E490E09093AA0128
:1021A0008093A9018091480890914908A0914A081C
:1021B000B0914B08843C29E09207A105B10520F4B9
:1021C00084EC99E0A0E0B0E080934808909349083F
:1021D000A0934A08B0934B088CE991E09093BC011E
:1021E0008093BB01809145080E949D0340E0E42E4E
:1021F00040E0F42E85EF97E00E949B021816190626
:102200000CF059C0E091DA07F0E0EB5BFE4F808103
:1022100080934508D12C3AEDE32E31E0F32E85EF83
:1022200097E00E949B0218161906CCF785EF97E0FD
:102230000E9459028F3FF1F48091BB019091BC0143
:10224000DC01ED91FC910084F185E02D099580176A
:10225000910740F4E091BB01F091BC01F382E2826E
:1022600016870587809145080E949D0390E010E045
:1022700000E01FC091E09D0DE1E0F0E0EC0FFD1FDC
:10228000ED0DF11D80839330A1F40115B2E01B0721
:1022900078F48B819A81F801EE0FFF1FE00FF11F98
:1022A000E652FE4F29812083918382830F5F1F4F67
:1022B00090E0D92EB4CFE091D901F0E0EE0FFF1FEE
:1022C000EB53FE4F80819181DC01ED91FC910190F7
:1022D000F081E02D6AED71E009958090C101909048
:1022E000C201A090C301B090C40120E030E048E4F6
:1022F00052E4C501B4010E94621387FF4EC00E94E0
:1023000091034090BD015090BE016090BF0170905C
:10231000C001641975098609970960317105810545
:102320009105D8F10E9491036093BD017093BE01A5
:102330008093BF019093C00120E030E040E85FE36C
:10234000C501B4010E94F6124B015C018092C101EB
:102350009092C201A092C301B092C401E091DA0749
:10236000F0E0EB5BFE4F608170E090E080E00E9467
:1023700011142B013C0120E030E048E452E4C50197
:10238000B4010E9467139B01AC01C301B2010E941A
:10239000C1140E94E01360934508809145080E9493
:1023A0009D03E114F10409F425CF0E94000022CF1F
:1023B0008F929F92AF92BF92CF92DF92EF92FF9255
:1023C000CF93DF93EC01688179818A819B816115CC
:1023D00071058105910521F464E279ED8BE597E0C3
:1023E0002DE133EF41E050E00E94921249015A0181
:1023F0009B01AC01A7EAB1E40E94B1126B017C0120
:10240000ACEEB4EFA50194010E94BF12C60ED71E18
:10241000E81EF91EF7FE06C081E0C81AD108E108DF
:1024200080E8F80AC882D982EA82FB82C701B60135
:102430009F77DF91CF91FF90EF90DF90CF90BF908B
:10244000AF909F908F9008958F929F92AF92BF927E
:10245000CF92DF92EF92FF9260910C0170910D018B
:1024600080910E0190910F01611571058105910513
:1024700021F464E279ED8BE597E02DE133EF41E063
:1024800050E00E94921249015A019B01AC01A7EA57
:10249000B1E40E94B1126B017C01ACEEB4EFA50176
:1024A00094010E94BF12C60ED71EE81EF91EF7FE49
:1024B00006C081E0C81AD108E10880E8F80AC09295
:1024C0000C01D0920D01E0920E01F0920F01C701B4
:1024D000B6019F77FF90EF90DF90CF90BF90AF90C5
:1024E0009F908F90089560930C0170930D018093DD
:1024F0000E0190930F010895F999FECF92BD81BD11
:10250000F89A992780B50895262FF999FECF1FBA1A
:1025100092BD81BD20BD0FB6F894FA9AF99A0FBE0C
:1025200001960895052E97FB1EF400940E94A912AF
:1025300057FD07D00E94C41207FC03D04EF40C9440
:10254000A91250954095309521953F4F4F4F5F4FC1
:10255000089590958095709561957F4F8F4F9F4F0F
:1025600008950E94E612A59F900DB49F900DA49F20
:10257000800D911D11240895B7FF0C94B1120E9493
:10258000B112821B930B0895A1E21A2EAA1BBB1B4A
:10259000FD010DC0AA1FBB1FEE1FFF1FA217B3072F
:1025A000E407F50720F0A21BB30BE40BF50B661F45
:1025B000771F881F991F1A9469F760957095809509
:1025C00090959B01AC01BD01CF010895A29FB00180
:1025D000B39FC001A39F700D811D1124911DB29F57
:1025E000700D811D1124911D08955058BB27AA27F5
:1025F0000E940D130C9487140E94791438F00E94E5
:10260000801420F039F49F3F19F426F40C947614CA
:102610000EF4E095E7FB0C947014E92F0E949814D7
:1026200058F3BA17620773078407950720F079F407
:10263000A6F50C94BA140EF4E0950B2EBA2FA02D2B
:102640000B01B90190010C01CA01A0011124FF275F
:10265000591B99F0593F50F4503E68F11A16F0405A
:10266000A22F232F342F4427585FF3CF4695379559
:102670002795A795F0405395C9F77EF41F16BA0B1E
:10268000620B730B840BBAF09150A1F0FF0FBB1FCC
:10269000661F771F881FC2F70EC0BA0F621F731F15
:1026A000841F48F4879577956795B795F7959E3F72
:1026B00008F0B0CF9395880F08F09927EE0F979503
:1026C000879508950E944C1408F481E008950E94B3
:1026D0007B130C9487140E94801458F00E94791484
:1026E00040F029F45F3F29F00C94701451110C94C0
:1026F000BB140C9476140E94981468F39923B1F3D8
:10270000552391F3951B550BBB27AA276217730717
:10271000840738F09F5F5F4F220F331F441FAA1FAB
:10272000A9F335D00E2E3AF0E0E832D09150504067
:10273000E695001CCAF72BD0FE2F29D0660F771F15
:10274000881FBB1F261737074807AB07B0E809F0FB
:10275000BB0B802DBF01FF2793585F4F3AF09E3F80
:10276000510578F00C9470140C94BB145F3FE4F3A3
:10277000983ED4F3869577956795B795F7959F5FC3
:10278000C9F7880F911D9695879597F90895E1E00F
:10279000660F771F881FBB1F621773078407BA076E
:1027A00020F0621B730B840BBA0BEE1F88F7E095C9
:1027B00008950E94E0136894B1110C94BB1408951D
:1027C0000E94A01488F09F5798F0B92F9927B7510D
:1027D000B0F0E1F0660F771F881F991F1AF0BA95C5
:1027E000C9F714C0B13091F00E94BA14B1E0089555
:1027F0000C94BA14672F782F8827B85F39F0B93F47
:10280000CCF3869577956795B395D9F73EF4909577
:102810008095709561957F4F8F4F9F4F0895E894F5
:1028200009C097FB3EF490958095709561957F4F18
:102830008F4F9F4F9923A9F0F92F96E9BB279395C6
:10284000F695879577956795B795F111F8CFFAF4D6
:10285000BB0F11F460FF1BC06F5F7F4F8F4F9F4F07
:1028600016C0882311F096E911C0772321F09EE865
:10287000872F762F05C0662371F096E8862F70E0CB
:1028800060E02AF09A95660F771F881FDAF7880FA5
:102890009695879597F90895990F0008550FAA0BFB
:1028A000E0E8FEEF16161706E807F907C0F0121663
:1028B0001306E407F50798F0621B730B840B950B66
:1028C00039F40A2661F0232B242B252B21F40895BB
:1028D0000A2609F4A140A6958FEF811D811D089558
:1028E00097F99F6780E870E060E008959FEF80ECC3
:1028F000089500240A941616170618060906089566
:1029000000240A9412161306140605060895092ECB
:102910000394000C11F4882352F0BB0F40F4BF2B3A
:1029200011F460FF04C06F5F7F4F8F4F9F4F08957A
:1029300057FD9058440F551F59F05F3F71F0479570
:10294000880F97FB991F61F09F3F79F08795089555
:10295000121613061406551FF2CF4695F1DF08C074
:10296000161617061806991FF1CF86957105610591
:1029700008940895E894BB2766277727CB0197F939
:1029800008950E94D4140C9487140E94791438F08E
:102990000E94801420F0952311F00C9470140C9474
:1029A000761411240C94BB140E94981470F3959F14
:1029B000C1F3950F50E0551F629FF001729FBB2736
:1029C000F00DB11D639FAA27F00DB11DAA1F649FD2
:1029D0006627B00DA11D661F829F2227B00DA11D85
:1029E000621F739FB00DA11D621F839FA00D611D0B
:1029F000221F749F3327A00D611D231F849F600D2C
:102A0000211D822F762F6A2F11249F5750409AF054
:102A1000F1F088234AF0EE0FFF1FBB1F661F771FE0
:102A2000881F91505040A9F79E3F510580F00C94AB
:102A300070140C94BB145F3FE4F3983ED4F3869576
:102A400077956795B795F795E7959F5FC1F7FE2B4B
:102A5000880F911D9695879597F908959F930E94E9
:102A600038150F9007FCEE5F0C9461150C947614EA
:102A70000E94A014D8F3E894E0E0BB279F57F0F041
:102A80002AED3FE049EC06C0EE0FBB0F661F771F33
:102A9000881F28F0B23A62077307840728F0B25AF9
:102AA000620B730B840BE3959A9572F7803830F4C0
:102AB0009A95BB0F661F771F881FD2F790480C941A
:102AC0007715EF93E0FF07C0A2EA2AED3FE049EC5B
:102AD0005FEB0E940D130E9487140F90039401FC7A
:102AE0009058ECEAF0E00C9483159F3F31F0915040
:102AF00020F4879577956795B795880F911D9695E2
:102B0000879597F908959F938F937F936F93FF9382
:102B1000EF939B01AC010E94C114EF91FF910E94C1
:102B200097152F913F914F915F910C94C114DF93B2
:102B3000CF931F930F93FF92EF92DF927B018C0153
:102B4000689406C0DA2EEF010E94D414FE01E894C6
:102B5000A5912591359145915591A6F3EF010E94DC
:102B60000D13FE019701A801DA9469F7DF90EF9049
:102B7000FF900F911F91CF91DF910895DB018F930B
:102B80009F930E94B112BF91AF91A29F800D911DA2
:102B9000A39F900DB29F900D11240895991B79E089
:102BA00004C0991F961708F0961B881F7A95C9F7DD
:102BB0008095089597FB072E16F4009407D077FDB3
:102BC00009D00E94F51507FC05D03EF4909581953B
:102BD0009F4F0895709561957F4F08950E94E6126A
:102BE000B7FF0895821B930B0895AA1BBB1B51E1ED
:102BF00007C0AA1FBB1FA617B70710F0A61BB70B6D
:102C0000881F991F5A95A9F780959095BC01CD0111
:102C10000895EE0FFF1F0590F491E02D099481E0D7
:0C2C200090E0F8940C941416F894FFCF88
:102C2C00FFFFFFFF00E100000000000001000000BA
:102C3C0000C1808100000000000000EF08EF08EFE9
:102C4C0008AF08AB08EC07A708A408A1080000000F
:102C5C00004D08F107EF07AF08AB08EC07A708A475
:102C6C00086C018B055D46280F070F2846000000F5
:102C7C000034020C0355024A029B025902770200EF
:102C8C000000000D090E0A00000000D008E6080044
:102C9C0000000001054605000000007A0AE7080064
:00000001FF
